:020000021000EC
:10C00000000001205DF401009DF401009FF4010097
:10C01000A1F40100A3F40100A5F401000000000058
:10C02000000000000000000000000000A7F4010074
:10C03000A9F4010000000000ABF40100BDF4010010
:10C04000AFF40100AFF40100E5030200AFF401001A
:10C050001DF40100AFF4010089F70100AFF4010005
:10C06000AFF40100AFF40100AFF40100AFF4010040
:10C07000AFF40100AFF40100AFF40100AFF4010030
:10C08000AFF40100D5C60100AFF40100AFF4010028
:10C09000AFF40100AFF401004D260200AFF401003F
:10C0A000AFF40100AFF40100AFF40100AFF4010000
:10C0B000AFF40100AFF40100000000000000000038
:10C0C000AFF40100AFF40100AFF40100AFF40100E0
:10C0D000AFF40100AFF40100AFF401000000000074
:10C0E0000000000000000000000000000000000050
:10C0F0000000000000000000000000000000000040
:10C10000000000000000000000000000000000002F
:10C11000000000000000000000000000000000001F
:10C4000010B5054C237833B9044B13B10448AFF38E
:10C4100000800123237010BD0841002000000000AF
:10C420007474020008B5064B1BB106480649AFF309
:10C4300000800648036813B1054B03B1984708BD57
:10C4400000000000747402000C4100200441002030
:10C4500000000000054B064AD3F804351360054A76
:10C46000054811681360591A016070470040024086
:10C47000284100202C4100202441002007200121D8
:10C4800003F016BA10B50020022103F035FA1F4C54
:10C490000720012103F030FA0A20012103F02CFAD1
:10C4A00020461B4901F004FA204601F003FD04F583
:10C4B000ED601849184C03F05BFD01210A2003F0E0
:10C4C000F7F94FF4FA7003F001F800210A2003F0A5
:10C4D000EFF94FF4FA7002F0F9FF0720002103F0A2
:10C4E000E7F90E4B2022C3F8082501221A602046E6
:10C4F00000210B4A042300F0D5F82046FF21094A09
:10C500000223BDE8104000F0CDB800BF304100204C
:10C51000E0580200E55802007C4A0020004002403A
:10C5200055C401007DC4010010B50E4C0720002148
:10C5300003F0BEF942F21071204600F0A9F820463F
:10C5400000F070F8FFF786FF204600F06BF8FFF769
:10C5500081FF054B054819680A22BDE8104003F029
:10C560004DBD00BF7C4A0020244100209848002097
:10C5700010B5074CFF210A4620460B4601F00EFC81
:10C5800020460449044ABDE8104006F0D3B800BF75
:10C59000304100209DC5010000400020124B03F1F6
:10C5A0008C0210B50360426003F1A402CC33044650
:10C5B0008260C0F8683700F6341000F04FFE04F6D1
:10C5C000041000F0C5FD04F6EC0000F047FE04F690
:10C5D000BC0000F0BDFD04F6A40000F03FFE2046C4
:10C5E00001F08AF9204610BD1069020010B504461A
:10C5F000FFF7D4FF204606F099F8204610BD3BDF38
:10C60000704748DF7047000008B5044B01221A70DC
:10C61000034B1B6803B1984708BD00BF844A002044
:10C62000804A002010B50120FFF7E9FF044B0022EB
:10C630001A701C46237813B9FFF7E3FFFAE710BD21
:10C64000844A0020104B2022C3F808250F4A4020BE
:10C6500082F811034FF40030C2F88001106002F13B
:10C66000C04202F541520020106082B0126801926F
:10C67000019A4FF48032C3F804230122C3F8401515
:10C680001A6002B0704700BF0010014000E100E0F6
:10C6900010B50446FFF7D6FF2046BDE81040FFF76F
:10C6A000C1BF000038B51D46084BFF290C461A6073
:10C6B0000AD00846022103F01FF920462A46044901
:10C6C000BDE8384003F090B838BD00BF804A002074
:10C6D00009C6010007B50A4A01231370094A00215F
:10C6E000116012680192019A074A136042F8043CF3
:10C6F000064B1B6803B1984703B05DF804FB00BF0D
:10C70000844A00204011014008100140804A002066
:10C71000016082807047006870478088704729DF19
:10C72000704728DF70474B1C4FF0805310B514BF83
:10C730001A6959695C6918BFB1FBF2F11A695B6942
:10C74000611A023B591A5143016010BD0368186811
:10C75000013018BF012070474FF0805310B51B699E
:10C760000468B4FBF3F42046FFF7DBFF1128FAD08E
:10C770006420BDE8104003F085B970B51E4605463B
:10C780000C46FFF7E9FFB608286821463246FFF756
:10C79000C6FF1128F8D06420BDE8704003F072B9DC
:10C7A00010B5046800229A4203D2A058885004327F
:10C7B000F9E710BD07B5002369460622043000934F
:10C7C000ADF8043006F0F6FC003018BF012003B0CD
:10C7D0005DF804FB0430062206F0FBBC04300021A7
:10C7E000062206F0FFBC10B504460160FFF7F6FF15
:10C7F000204610BD75DF70477EDF70477FDF7047D2
:10C8000085DF704786DF70478ADF704790DF7047AB
:10C8100092DF704799DF7047A9DF704761DF70478B
:10C8200062DF704738B5044600F58365284610225C
:10C83000002106F0D7FC94F81834227C62F3000340
:10C8400084F818346389A4F82034A389A4F8223426
:10C85000E389A4F824342846BDE83840FFF7D4BF64
:10C860002DE9F0470446DAB00D4659B94FF48E73FE
:10C8700013A80BA9ADF82C30FFF7D0FF002840F02B
:10C880003B8413AD2B881A2B00F075831FD8132B14
:10C8900000F057810FD8102B5ED0112B00F0F380E1
:10C8A000012B40F029842A7A94F85D34134484F8EB
:10C8B0005D3400F021BC152B00F0EE8330D3172B34
:10C8C00000F00284192B00F0D38300F015BC362B46
:10C8D00000F06A8207D8302B1ED0322B18D01D2BC7
:10C8E00040F00A8420E0392B0ED004D8382B00F019
:10C8F000C68200F001BC502B00F04B83522B08BFC6
:10C90000002600F06781F7E394F82924002309E367
:10C9100094F829140023CCE194F82924002368E139
:10C9200094F8291400238BE305F114070FCF6E460A
:10C930000FC697E8070086E8070004F55778083522
:10C9400095E80E00404600F057FDD4F8EC33002B7C
:10C9500000F0D28340461DE2002394F8292423727C
:10C96000D9B2914208D2013304EB4300B0F8066417
:10C970004FF6FF708642F3D17822AF8802FB01F6B2
:10C9800004EB4105A01904F55771A5F8087414309B
:10C9900006F01FFC384609A9FFF742FF9DF8243036
:10C9A00084F85D34D4F8D43313B1A0191430984707
:10C9B000B4F82A24052A14D9B4F82C34B3F5486FF6
:10C9C0000FD8ADF82E300023ADF83030B5F808049C
:10C9D000ADF82C204FF4C8730BA9ADF83230FFF737
:10C9E00009FF94F838352BB1B5F80804012100226D
:10C9F000FFF70CFF94F82E34B3B304F58660FFF70D
:10CA0000A5FE064640B1D4F85024B5F8080402F15A
:10CA10001201FFF7F5FE27E0314605220BA806F0CC
:10CA2000E1FB9DF82F3094F85424B5F8080443F046
:10CA300001038DF82F309DF82C3043F0010366F38D
:10CA4000820362F3410394F8552462F3061366F3FC
:10CA5000C7138DF82C3007238DF82D300BA9102328
:10CA60008DF82E30FFF7C8FE94F8283494F8292466
:10CA70000133DBB29A4284F8283440F23D832046E9
:10CA8000FFF7D0FE38E3012394F829242372002312
:10CA9000DEB2964208D204EB4301A888B1F808142C
:10CAA000884203F10103F3D106F501734FF6FF72DB
:10CAB00024F8132094F82834013B84F82834D4F85F
:10CAC000F033002084F85D040BB1297A9847D4F83C
:10CAD000D83323B1782202FB064014309847002552
:10CAE00094F838359D420BDAD4F83C350C2202FB21
:10CAF000053008300021042206F074FB0135EFE711
:10CB000094F8285445B1002384F848352046FFF7AF
:10CB100089FE03232372EFE294F841359D42F2DA55
:10CB2000D4F8440518266E43304414300021012205
:10CB300006F058FBD4F844351E440023F382013537
:10CB4000EAE794F82E34002B00F0D68209A80021E1
:10CB5000052206F047FB9DF8273094F8542443F053
:10CB600001038DF827309DF8243043F0010303F0D2
:10CB7000FB0362F3410394F8552462F306136FF349
:10CB8000C7138DF8243007238DF825300BA8102308
:10CB9000002120228DF8263006F024FB0021D4F855
:10CBA00050340B93A8880F910A460BAB109111914A
:10CBB0000C910D91FFF722FE9EE203F50173A88808
:10CBC00034F81330984204D100210A460B46FFF78F
:10CBD00023FE013694F82924F3B29A42EDD88BE271
:10CBE00004EB4301A888B1F80814884203F101035B
:10CBF00002D0DEB29642F3D3E98871BBB5F80CE0FF
:10CC00002B4671451CDA94F838C50022624514DAC7
:10CC1000D4F83C0593F810800C2707FB0207B8797D
:10CC2000804508D1B3F80E80B888804503D1D3F889
:10CC30001200B86001E00132E8E701310833E0E7B3
:10CC400005EBCE0506F50176A98934F81600013109
:10CC500089B20022FFF7DAFD4EE240F20113994259
:10CC600017D194F838050023834280F24582D4F826
:10CC70003C250C2101FB03210A8942B14A8932B1CA
:10CC800006F5017684F8403534F8160077E0013374
:10CC9000EAE7D4F8F033002B00F02E82022081E086
:10CCA00004EB4300AE88B0F80804864203F10103A8
:10CCB00002D0DAB28A42F3D3E988002941D194F84C
:10CCC0004035D4F83C65B5F80CE003EB430306EBC4
:10CCD00083039B680B9371452BDA002094F8413550
:10CCE000984220DAD4F84435182707FB003394F82B
:10CCF000407507EB470756F827C05F68BC4510D161
:10CD000095F810C09F7CBC450BD1B5F80EC01F8AAA
:10CD1000BC4506D1AF7C1F75EF8ADF821344012723
:10CD20001F720130DAE7EB8AADF82C3001310A3599
:10CD3000D1E702F501720BA934F81200FFF768FD84
:10CD4000DAE1B1F5857F27D194F8403594F838556C
:10CD500001330C20584301E001330C30AB4210DAB0
:10CD6000D4F83C1501440E89002EF5D04E89002ED2
:10CD7000F2D002F5017284F8403534F8120008311F
:10CD8000DCE7D4F8E033002B00F0B681782101FB1A
:10CD9000024014309847AFE1D4F8F033002B00F094
:10CDA000AB8103209847A7E1002684F84865E9880D
:10CDB00040F20513994236D194F82E34002B57D007
:10CDC00005220BA8314606F00DFA9DF82F3094F895
:10CDD000542443F001038DF82F309DF82C3043F09C
:10CDE000010303F0FB0362F3410394F8552462F35B
:10CDF000061366F3C7138DF82C3007238DF82D30FA
:10CE000010238DF82E3094F82934F2B29A4280F033
:10CE1000738104EB4602A888B2F80824904206F118
:10CE20000106F2D15CE019BBAF8994F82934CAB28B
:10CE30009A4208D204EB4100AE88B0F8080486425A
:10CE400001F10101F3D194F841650023B34280F26E
:10CE50005381D4F84415182000FB0310C18AB9424D
:10CE600004D1782303FB024100687DE00133EDE744
:10CE7000D4F8F033002B00F03F81042092E7002625
:10CE800084F84865E98840F20513994237D194F84F
:10CE90002E34BBB305220BA8314606F0A3F99DF84A
:10CEA0002F3094F8542443F001038DF82F309DF86F
:10CEB0002C3043F0010303F0FB0362F3410394F8C9
:10CEC000552462F3061366F3C7138DF82C3007233D
:10CED0008DF82D3010238DF82E3094F829340BE086
:10CEE0000BA9FFF789FC07E104EB4602A888B2F81A
:10CEF00008249042F4D001369E42F5DBFCE0002984
:10CF000000F0FA80D4F8F033002B00F0F580052013
:10CF100048E704EB4301A888B1F80814884203F1FC
:10CF2000010302D0DEB29642F3D3AB7BAF89022B72
:10CF300006D106F50173394634F81300FFF76AFC91
:10CF400094F84115002300E001338B4280F2D48035
:10CF5000D4F84425182000FB0322D08AB842F3D12C
:10CF60007823106803FB0641143105F112022B7C73
:10CF700000F08EFEC0E02B7A03F00F03012B40F08F
:10CF8000BB80D4F8DC33002B00F0B68004F1140031
:10CF900000E7B5F806A094F8292400235FFA83F986
:10CFA000914508D204EB4301A888B1F808148842DF
:10CFB00003F10103F2D14FF0000894F801349845D1
:10CFC00080F29A801423D4F8042403FB08F3D618C3
:10CFD000318951450AD1782303FB094130682B7C04
:10CFE000143105F1120200F003F985E0B1895145D1
:10CFF0001AD1A97CEF7CD05841EA072707F001013C
:10D00000C7F3400700297774317418BF012700F077
:10D01000FFF8874208D0782303FB094130681431B8
:10D020003A4600F005F967E008F10108C5E704EBAE
:10D030004300AE88B0F80804864203F1010302D031
:10D04000DAB28A42F3D3D4F850142B8A488A984231
:10D0500002F5017304D1002234F81300134604E0F2
:10D06000002134F813000A460B46FFF7CBFB43E0E0
:10D07000297A61B994F82E34002B3DD004F58660EE
:10D0800004F2344100221C23FFF777FB34E0D4F88C
:10D09000F0338BB3012085E6062204F2564005F1F9
:10D0A000080106F096F8D4F8E4232AB394F829147A
:10D0B00000238B4220DA04EB4300B0F80864A88810
:10D0C000864214D00133F4E7D4F8E823A2B194F8EF
:10D0D0002904002300E0013383420DDA04EB43010D
:10D0E000B1F80864A988B142F5D1A4F816147821E2
:10D0F00001FB0340143090475AB0BDE8F087807AB6
:10D100007047C0687047007C704700207047C36854
:10D11000585C704770B5056804460E46ED691146C7
:10D120001A46A8470123A374A36913B130462146C8
:10D13000984770BD036870B5044608460D46DE6921
:10D1400006F022F92946C2B22046B04770BD000061
:10D15000044B10B504460360C06808B106F022F81D
:10D16000204610BD0859020010B50446FFF7F0FF35
:10D17000204605F0DBFA204610BD10B5837A044640
:10D180009A4228BF1A460274C06806F022F8606905
:10D1900020B1036821461B68984710BD012010BDCF
:10D1A00070B504461646043042F603021D4600F0F0
:10D1B000D5F80D4B23600021142D34BF2B461423CA
:10D1C000A372E16021746674A174E174616104F179
:10D1D00018000C2206F006F81DB1A07A05F0DAFF5F
:10D1E000E060204670BD00BF08590200407C7047D7
:10D1F00070B5056804460E46ED6911461A46A84703
:10D200000123A374636A13B130462146984770BD69
:10D21000C07C7047002A08B5C27414BF07220822D8
:10D22000034650F8222012B108461946904708BD1F
:10D23000002A08B5C27414BF2422282202440346DF
:10D24000526812B108461946904708BD0C293CBFE8
:10D25000063140F82120704741617047014B03605F
:10D26000704700BF3859020000697047007D704761
:10D270000369585C7047000010B5034B0360044617
:10D2800005F054FA204610BD3859020038B504465E
:10D29000154604304FF4245200F060F8044B23602C
:10D2A0002561284606F070F82075204638BD00BF7D
:10D2B0003859020070477047704700207047704728
:10D2C0007047002070470020704700207047002002
:10D2D00070470020704700207047002070470020F2
:10D2E00070470020704700207047002070470020E2
:10D2F0007047704770477047014B0360704700BF2D
:10D300005859020010B5034B0360044605F00EFAAD
:10D31000204610BD585902000E4B70B503604FF601
:10D32000FF738380642300250446C3800126032302
:10D3300005814581067345738373294606220F30A4
:10D3400005F050FF84F820606575A561E561204611
:10D3500070BD00BF58590200C161704710B5044646
:10D36000FFF7D6F9024B1A7801321A70204610BD29
:10D37000854A0020014B1878704700BF854A00207D
:10D38000014B1860704700BF884A002010B5044662
:10D3900002F0F0FAA08802F05FFB012806D10B4BE7
:10D3A000186848B1214600F037F905E0022803D19A
:10D3B000074B186820B910BD23881D2BF8D010BD6D
:10D3C0002146BDE81040FFF74BBA00BF884A002055
:10D3D0008C4A0020024B1868003018BF01207047AB
:10D3E000884A00200A46034903460868194600F0A7
:10D3F00071BA00BF884A002084B0F0B506AF87E854
:10D400000E003D4600F1500406460FCD0FC40FCD6F
:10D410000FC495E8030084E803000023FA1852784B
:10D42000F2540133062BF9D19DF82020C2F3C40336
:10D43000D9B286F825300023D8B2884205D2FC182C
:10D44000F018647A84710133F6E7C2F3410386F879
:10D450002630C2F300029DF81F3086F8272086F898
:10D460002830BDE8F04004B0704708B50069036893
:10D470001B6A984708BDA0F10400FFF7F6BF08B586
:10D48000006903685B6A984708BDA0F10400FFF7D4
:10D49000F6BF08B5006903689B6A984708BDA0F10C
:10D4A0000400FFF7F6BF08B500690368DB6A984718
:10D4B00008BDA0F10400FFF7F6BF08B500690368D6
:10D4C0001B6B984708BDA0F10800FFF7F6BF08B531
:10D4D000006903685B6B984708BDA0F10800FFF77F
:10D4E000F6BF08B5006903689B6B984708BDA0F1BB
:10D4F0000800FFF7F6BF10B500690468E46BA047A9
:10D5000010BDA0F10800FFF7F6BF08B50069036879
:10D510001B6C984708BDA0F10800FFF7F6BF08B5DF
:10D52000006903685B6C984708BDA0F10800FFF72D
:10D53000F6BF08B5006903689B6C984708BDA0F169
:10D540000800FFF7F6BF08B500690368DB6C984771
:10D5500008BDA0F10800FFF7F6BF08B5D0F8D83134
:10D5600013B100F5E270984708BD08B5D0F8DC317A
:10D5700013B100F5E270984708BD08B5D0F8E03166
:10D5800013B100F5E270984708BD08B5D0F8E43152
:10D5900013B100F5E270984708BD10B5D0F8E84126
:10D5A00014B110461946A04710BD10B5146800F517
:10D5B000E271646A10461A469DF80830A04710BD13
:10D5C00070477047704738B5054600F5E27420464D
:10D5D0001146FFF7FFF8D5F8D0310BB12046984738
:10D5E00038BDD0F8D43110B500F5E2740BB1204647
:10D5F00098472046BDE81040FFF7F0B800F5E2710B
:10D6000010461A46FFF706BE00F5E27110461A46AC
:10D610009DF8003000F02ABB08B500690368DB689C
:10D62000984708BD08B5006903681B69984708BD9D
:10D6300038B5D0F8E43004460D463BB900F0E6FAC0
:10D6400000B2800005F0A6FDC4F8E40094F8E820DC
:10D65000D4F8E43043F8225094F8E830013384F8E9
:10D66000E83038BD10B500210446FFF7D5FF04F5BA
:10D67000E270BDE81040FFF79DB810B50446FFF713
:10D6800079FE00B2800005F085FD04F1EC03C4F8DA
:10D69000DC000360D4F8DC3004F1F8025A60D4F8FE
:10D6A000DC3004F594729A60D4F8DC3004F5AA7288
:10D6B000DA60D4F8DC3004F5B0721A61052384F81E
:10D6C000E03010BD70B5D0F8DC3086B004460BB940
:10D6D000FFF7D3FF002594F8E0309D4213DAD4F829
:10D6E000DC3053F825603046FFF717F842F60303A5
:10D6F000984206D10EB1301F00E03046211DFFF7E1
:10D70000ABFD0135E7E7002594F8E8309D4214DAD7
:10D71000D4F8E43053F825603046FEF7FEFF42F6B9
:10D720000303984207D10EB1301F00E0304604F1E8
:10D73000080100F0BFFA0135E6E74BB1204604F5D9
:10D74000C671FFF775FF204604F5CC71FFF770FF37
:10D75000206994F8B810056894F8D93004F1B9023A
:10D760000092D4F8DC20019294F8E0200292D4F8E0
:10D77000E420039294F8E8200492AD6804F1980242
:10D78000A847206903681B6D984706B070BD38B57F
:10D79000D0F8DC3004460D460BB9FFF76EFF94F865
:10D7A000E020D4F8DC3043F8225094F8E030013324
:10D7B00084F8E03038BDFFF7EABF2DE9F0410F46AD
:10D7C000194690F8B8301B2B144608D8C3F11C0337
:10D7D000934204DB00F1980200F1B8050BE090F8E9
:10D7E000D9301C2B49D8C3F11D03A34245DB00F1FE
:10D7F000B90200F1D9050026935D02EB060863B378
:10D8000098F80100B84205D001331E44F6B21E2E2E
:10D81000F2D922E00A2F01D0192F06D1B01C1044F2
:10D820002246BDE8F04105F0D4BC2F78274498F893
:10D83000000030440130013F03199F4203DB131BFA
:10D84000DB5DD355F3E71044224605F0C2FC98F89F
:10D850000030234488F800300CE02B78601CD05452
:10D860002B7813445F70287802301044224605F06C
:10D87000B0FC02342B781C442C70BDE8F08170B5EC
:10D8800086B00546684600F06CFB684600F09BFBDE
:10D8900003280446684634BF0226062600F091FBA2
:10D8A0003146034622462846FFF787FF06B070BD83
:10D8B00070B5054608460C4605F066FDC2B21D2A45
:10D8C0002846234692BF092108211D22BDE8704049
:10D8D000FFF773BF012938B5134604D10368016906
:10D8E0009B68984738BD022904D1016801228D69DF
:10D8F0000169A84738BD0000154B10B503F174024B
:10D90000036004468C3342608360FFF78BFED4F8DB
:10D91000E40008B105F046FCD4F8DC0008B105F0DD
:10D9200041FC04F5CA7000F077F904F5AE70FFF71A
:10D930000FFC04F59270FFF70BFC04F1F400FFF705
:10D9400007FC04F1140001F033F8204610BD00BFBD
:10D950009867020010B50446FFF7CEFF204604F09A
:10D96000E5FE204610BD37B502AC054624F8021D81
:10D97000022223461921FFF720FF05F59270214668
:10D980000222FFF7FAFB03B030BD00002DE9F84397
:10D99000784B794F794E03F10802026003F17C0263
:10D9A000943383604FF0102304464260596904F1B8
:10D9B00014090C300025FEF7B6FE484601F048FC7D
:10D9C00004F1F40884F8B85084F8D950C4F8DC5055
:10D9D00084F8E050C4F8E45084F8E85004F1EC0016
:10D9E000674900F0B6FA4046664902221323FFF762
:10D9F000D7FB0222134604F592706349FFF7D0FB70
:10DA0000394604F5AA7000F0A4FA04233146202216
:10DA100004F5AE70FFF7C4FB394604F5C67000F09C
:10DA20004BF95A4F3146202204F5CA7000F004F930
:10DA3000214604F5E270FEF7D6FE3946C4F8E851F7
:10DA400004F5F670FC2205F0C4FB07F1FC0104F5B7
:10DA50003A704FF4806205F0BCFB294604F5DD60A6
:10DA6000682205F0BFFB4A4BC4F8E836494BC4F8BE
:10DA7000EC36494BC4F8F036484BC4F8F436484B02
:10DA8000C4F8F836474BC4F8FC36474BC4F80037A7
:10DA9000464BC4F80437464BC4F80837454BC4F826
:10DAA0000C37454BC4F81037444BC4F81437444B7B
:10DAB000C4F81837434BC4F81C37434BC4F820371D
:10DAC000424BC4F82437424BC4F82837414BC4F8C2
:10DAD0002C37C4F83437404BC4F838373F4BC4F8C0
:10DAE0003C373F4BC4F840373E4BC4F844373E4ABE
:10DAF0003E4BC4F8302707F2FC47C4F848370FCF35
:10DB000004F5EA660FC697E80300182286E80300CA
:10DB10002946C4F8109004F5E87005F063FB294627
:10DB200004F19800202205F05DFB2022294604F133
:10DB3000B90005F057FB022384F89830012384F8DC
:10DB40009930062384F89A30032384F8B83040468D
:10DB50002749FFF7EFFA20462946FFF704FF20691F
:10DB60002146FFF7F9FB2046FFF70AFC2046BDE8F7
:10DB7000F88300BF90670200EE5E0200F35E0200D1
:10DB8000DF5E0200E45E0200E95E0200B8590200B6
:10DB9000F85E0200005F02000E5F02002C5F0200D0
:10DBA000505F02006E5F02008D5F0200B05F0200F6
:10DBB000D75F0200046002001E6002005360020092
:10DBC0007D600200A8600200F16002002561020091
:10DBD0004361020062610200C5610200E861020067
:10DBE000096202007462020085610200B8620200EC
:10DBF000EB62020010B50446FEF78AFD024B1A786C
:10DC000001321A70204610BD904A0020014B18784E
:10DC1000704700BF904A0020014B0360704700BF6F
:10DC20005068020010B5034B0360044604F07EFD0B
:10DC3000204610BD5068020038B504461546043031
:10DC400042F60302FFF7D6FF0021074B2360A572BF
:10DC5000E17284F82210616204F12800042205F0C8
:10DC6000C1FA204638BD00BF5068020038B50446EE
:10DC7000C3720D460C3011461A4605F0AAFA01236C
:10DC800084F82230A36A13B128462146984738BD4C
:10DC900038B50446C3720D460C3011461A4605F0DD
:10DCA00098FA012384F82230E36A13B1284621460A
:10DCB000984738BD4162704710B54FF42052044672
:10DCC000FFF798FF204610BD10B504460021FFF76E
:10DCD000A3FCD4F87C07D4F88037C01AC0B210BDBA
:10DCE000A0F55A70A0F58060FFF7EEBF10B50446AE
:10DCF0000021FFF791FCD4F88037D4F87C279342B9
:10DD00001ABFE41894F884074FF0FF3010BDA0F557
:10DD10005A70A0F58060FFF7E9BF10B504460021F6
:10DD2000FFF77AFCD4F88037D4F87C27934207D0E9
:10DD30000133DBB2C4F880371C4494F8840710BD6B
:10DD40004FF0FF3010BDA0F55A70A0F58060FFF7CE
:10DD5000E4BFFFF787BC38B504460D460021FFF746
:10DD60005BFC04F60410FFF753FA80B1D4F8842862
:10DD7000531C2244142BC4F8843882F8885801D0EC
:10DD80000A2D03D1236820469B6F9847012038BD98
:10DD9000A0F55A70A0F58060FFF7DDBF2DE9F041D6
:10DDA0000446FFF7F3FD4FF47A73C4F87037374B2E
:10DDB000374E384903F10802226003F1940200252E
:10DDC00004F69C07626003F1AC02D433C4F86837F0
:10DDD000A260C4F86C57384600F0BBF804F6BC08E3
:10DDE000314604F6A4002C4AFFF750FA14234046AB
:10DDF0002A490422FFF7D4F9314604F6EC00284AF8
:10DE0000FFF744FA142304F6041026491022FFF702
:10DE1000C7F9254A314604F63410FFF737FA234B89
:10DE2000C4F8845820463946C4F88057C4F87C5753
:10DE3000C4F878571C60FFF7BEFC04F6A801204622
:10DE4000FFF7B9FC3846FEF766FC01462046FFF7AF
:10DE500016FD204604F50C61FFF7ADFC204604F5E5
:10DE60000F61FFF7A8FC124A40462946FFF7EEF97A
:10DE7000204604F60811FFF79EFC204604F63811F0
:10DE8000FFF799FC2046BDE8F08100BF0869020059
:10DE90007D68020058680200E058020082680200B3
:10DEA000A7680200C1680200E6680200944A0020E8
:10DEB000E9DE01000FB408B50298FFF703FCBDE8E6
:10DEC000084004B0704730B5002393420BD0D0F81F
:10DED0007C470134E4B2C0F87C470444CD5C84F84C
:10DEE00084570133F1E730BD094B70B51D680B68ED
:10DEF0000C460846DB689847236806461B6920469F
:10DF00009847314602462846BDE87040FFF7DBBF20
:10DF1000944A0020D0F8842810B5044692B104F643
:10DF20008801D2B200F60410FFF727F901F0C0FA19
:10DF30000021C4F87807C4F884182046BDE81040D2
:10DF4000FFF76ABB10BDA0F55A70A0F58060FFF71F
:10DF5000E1BF10B54FF420520446FFF7FFF9204609
:10DF600010BDF7B5044600232160037508460E4630
:10DF70008DF804308DF805308DF8063005F004FA80
:10DF8000451E002D1ADB277D0F2F17D8735D2D2B13
:10DF900001D1013510E0721901A812F8012C8DF899
:10DFA0000420002110228DF8053005F06DFA237D44
:10DFB0002744013338712375023DE2E7204603B060
:10DFC000F0BD04307047007D704771DF704772DF2D
:10DFD000704773DF704775DF704776DF704777DF14
:10DFE000704778DF70477ADF70477CDF70477EDFED
:10DFF000704790DF704792DF704796DF704798DF79
:10E00000704799DF7047A0DF7047A2DF7047A3DF3A
:10E010007047A4DF7047A6DF7047A9DF704760DF55
:10E02000704761DF704762DF704763DF704753DF1F
:10E03000704710DF704711DF704790F868000030BC
:10E0400018BF0120704790F86800003018BF012009
:10E05000704770B590F8796002460023B34212DA37
:10E060001801D56F2C18285888420AD1E08958B178
:10E07000207BC0F3400038B192F8800080F00100AE
:10E0800070BD0133EAE7002070BD70B590F879608B
:10E090000023B34219DA1C01C56F2A192C598C428E
:10E0A00011D1D18999B1137BC3F340038BB1012303
:10E0B00080F8803000228088FFF79FFFD0F10100B8
:10E0C00038BF002070BD0133E3E7002070BD084673
:10E0D00070BD184670BD70B590F879600346002297
:10E0E000B2421ADA1001DD6F2C182858884212D17A
:10E0F000E08998B1207B020704D593F8800080F076
:10E10000010070BDC0F3800040B193F8680000309A
:10E1100018BF012070BD0132E2E7002070BDF0B5EC
:10E1200090F879C085B0002464452FDA2601C76FC6
:10E13000BD19BE598E4227D1EC894CB32D7B15F009
:10E140000C0127D090F8681021B315F0080F0CBF10
:10E1500002250125ADF80A300139012380F880300D
:10E1600080F868108DF804508088ADF806400025CE
:10E1700001A98DF80550ADF808500392FFF73FFF55
:10E18000431B5842584106E00134CDE7002002E02D
:10E19000204600E0084605B0F0BD70B590F8796003
:10E1A0000023B34210DA1C01C56F2A192C598C4286
:10E1B00008D1D08948B1137B13F0300F0CBF002079
:10E1C000012070BD0133ECE7002070BD7FB590F8F1
:10E1D00079600023B3422FDA1C01C56F2A192C592C
:10E1E0008C4227D1D3894BB3127B12F0300127D058
:10E1F000012112F0100F0B440CBF02220A46ADF8A9
:10E200000630022380F88010ADF802208DF804104B
:10E210000022ADF80A3080888DF805206B4401A9F2
:10E22000ADF808200393FFF7EAFED0F1010038BFF4
:10E23000002006E00133CDE7002002E0184600E0B0
:10E24000084604B070BD08B503681B6C984708BD4C
:10E250007FB590F879600023B3422BDA1C01C56FBB
:10E260002A192C598C4223D1D3892BB3127B12F05B
:10E2700030014FF0000221D001210B44ADF80630EF
:10E28000022380F880108DF80410ADF80A308088E1
:10E29000ADF802206B4401A98DF80520ADF80820E7
:10E2A0000393FFF7ACFED0F1010038BF002006E079
:10E2B0000133D1E7002002E0184600E0084604B030
:10E2C00070BD11F1270F08B514DB11F11D0F14DB20
:10E2D00011F1130F14DB11F10F0F14DB11F10B0F00
:10E2E00014DBCA1D15DBCB1C16DB0029CCBF0420B8
:10E2F000002013E06FF0270010E06FF01D000DE02C
:10E300006FF013000AE06FF00F0007E06FF00B00F2
:10E3100004E06FF0070001E06FF00300FFF75FFE1D
:10E32000D0F1010038BF002008BD80881321FFF71D
:10E3300054BE37B504466846FFF747FEE06928B18A
:10E3400002682146956A0DF10102A84703B030BD6D
:10E3500013B5044602A8002240F8042DFFF767FE1B
:10E36000019804F069FB0022074B04F0CBFB04F09A
:10E370008BFE00EE100AE06918B102682146D26AED
:10E38000904702B010BD00BF0000D03F704710B5ED
:10E39000044686B068460021182204F023FF237B40
:10E3A000002B4FF000030CBF03221A468DF800200B
:10E3B000E28801930A21120192FBF1F268468DF87E
:10E3C00008300393ADF81020ADF81230FFF701FECE
:10E3D00006B010BD2DE9F041054690F869008EB0F9
:10E3E0000C460023834260DA14225A43E96E8E18E9
:10E3F0008A58A24207D12046FEF7F8FEC30754D53B
:10E40000736813B951E00133ECE795F8407005F1FA
:10E4100021013A4606A804F0DCFE236820461B6969
:10E42000984704300744FFB21F2F3ED87068FEF7AC
:10E4300072F901466846FFF794FD236895F840603D
:10E440001B69204698470EAB1E44033006F8200C8B
:10E4500095F8406033441622684603F81F2CFFF7F6
:10E46000B0FD06AB0146B01C0222184404F0B1FE18
:10E4700095F8408006AB08F10408984423682046CC
:10E48000DB689847236806461B6920469847314653
:10E490000246404604F09DFE002206A83946134677
:10E4A000FFF795FD6C64012000E000200EB0BDE890
:10E4B000F0812DE9F0430446CDB00D4659B94FF433
:10E4C0008E7305A803A9ADF80C30FFF7AAFD00284C
:10E4D00040F0528205AD2B88302B00F00B810ED816
:10E4E000112B5AD004D8012B1ED0102B23D043E27D
:10E4F000152B00F02982172B00F032823CE2382BDA
:10E5000000F0C68106D8322B00F03E81362B00F099
:10E510009D8131E2502B00F0A480522B00F0E3806B
:10E52000392B40F02982EDE12A7A94F868301344BF
:10E5300084F8683020E2002384F82030A888A08086
:10E5400003A9FFF770FDE0699DF80C3084F868308E
:10E5500028B1036821461B6805F109029847228902
:10E56000052A12D96389B3F5486F0ED8ADF80E307D
:10E570000023ADF81030A088ADF80C204FF4C8731C
:10E5800003A9ADF81230FFF726FD94F87030002B88
:10E5900000F0F281A0880121D4E04FF6FF73A38040
:10E5A0000026012384F8686084F8203094F86930EC
:10E5B0009E421BDAD4F86C904FF0140808FB06F862
:10E5C00009EB080300271F745F7459F80800FEF771
:10E5D0001FFE48B1E06938B1036859F80820D3F844
:10E5E00020C021463B46E0470136DFE7E06950B1F5
:10E5F000036821469E692B7A0022B047E0690368D0
:10E6000021465B689847002594F870309D420ADAED
:10E61000636F0C2202FB053008300021042204F055
:10E62000E1FD0135F0E7002594F879309D420DDADF
:10E63000E06F2E0130440C300021012204F0D2FDA5
:10E64000E36F1E440023F3810135EDE7002384F8D6
:10E650008030236820469B699847022384F8203045
:10E660008AE1B5F806904FF0000894F869309845B3
:10E6700080F282811423E26E03FB08F3D6183189FD
:10E6800049450DD1E069002800F0768103682A7CB5
:10E690000092DF693268214605F11203B8476BE149
:10E6A000B18949451CD1A97CEF7CD05841EA0727A4
:10E6B00007F00101C7F3400700297774317418BFD0
:10E6C0000127FEF7A5FD87420AD0E069002800F087
:10E6D0005381036832681D6A21463B46A8474BE1D7
:10E6E00008F10108C1E70021A0880A460B46FFF7A0
:10E6F00094FC41E1EB884BBBAF892A46BB421BDA55
:10E7000094F870E00021714513DA606F92F810C040
:10E710000C2606FB0106B079844508D1B2F80EC07C
:10E72000B088844503D1D2F81200B06001E0013115
:10E73000E9E701330832E1E705EBC705A088A989BD
:10E74000013189B20022FFF754FC15E140F20112B9
:10E75000934210D194F870000023834280F20C8120
:10E76000626F0C2101FB03210A8912B14A89002A38
:10E770005DD10133F1E7E069002800F0FD80026817
:10E780002146956902225FE0EB88002B37D194F88F
:10E790007820606FAF8902EB420200EB8202926840
:10E7A0000392BB4226DA002194F8792091421BDAC9
:10E7B000E26F94F8786002EB011206EB460650F81F
:10E7C00026E05668B6450DD195F810E0967AB64524
:10E7D00008D1B5F80EE01689B64503D1AE7C1673A4
:10E7E000EE8AD6810131DFE7EA8AADF80C200133E9
:10E7F0000A35D6E7A08803A9FFF7FDFBBCE0B3F517
:10E80000857F19D194F8783094F8700001330C2288
:10E810005A4301E001330C32834280F2A880616FD9
:10E8200011440D89002DF5D04D89002DF2D084F8CA
:10E830007830A0880831DFE7E069002800F09C808C
:10E840000268214695690322A84795E0002684F8CE
:10E850008060EB8840F20512934202D1A2690ABBA4
:10E860000EE06BB9A88994F879108B4280F284800D
:10E87000E26F02EB0312D68986424FD00133F4E7F0
:10E88000E069002878D00268214695690422DBE718
:10E89000002684F88060EB8840F20512934227D16D
:10E8A000A2693AB3314603A8052204F09BFC9DF807
:10E8B0000F30627BA08843F001038DF80F309DF884
:10E8C0000C3043F0010303F0FB0362F34103A27B2E
:10E8D00062F3061366F3C7138DF80C3007238DF827
:10E8E0000D3003A910238DF80E30FFF780FB43E0B5
:10E8F000002B41D0E06900283ED00268214695698E
:10E900000522A1E7AB7BAE89022B03D1A08831465B
:10E91000FFF777FB94F87910002312E0E06958B311
:10E920000368297C00915E6A1268214605F1120392
:10E93000B04721E0E26F02EB0312D089B042EDD084
:10E9400001338B42F6DB17E004F10F0005F10801FB
:10E95000062204F03EFCE06970B103681B6903E025
:10E96000E06948B103685B692146984704E0E069C3
:10E9700010B10368DB68F7E74DB0BDE8F08310B570
:10E980000446FFF758FBE06F08B104F00BFC606F22
:10E9900008B104F007FCE06E08B104F003FC0023AA
:10E9A00084F8693084F8703084F8793010BD000044
:10E9B00010B5054B03600446FFF7E1FF2046FEF764
:10E9C0009BFC204610BD00BF086A020010B504463B
:10E9D000FFF7EEFF204603F0A9FE204610BD13B559
:10E9E0001288ADF800200446ADF802106A462146B0
:10E9F0004FF6FF700193FFF70CFB02B010BD000053
:10EA00002DE9F04F9B46BE4BE7B0044618680A90CC
:10EA10000E46924600219DF8C82103920AA8DDF80F
:10EA2000C4819DF8D071FFF704FB1422B54B0B9302
:10EA300000210FA804F0D6FB0A23ADF83C309DF866
:10EA4000483043F0010300250BA98DF848300FA88A
:10EA500001238DF8443013958DF845508DF84650BC
:10EA6000FFF7DDFA2823ADF834305023ADF8363007
:10EA70000DA84FF4C873ADF83A3004F12109ADF890
:10EA80003850FFF7B0FA2846FFF7A9FA5146324648
:10EA9000484604F09EFB84F8406048463146709A30
:10EAA0005B46FFF794FA2846FFF79BFA039B9D42CB
:10EAB0000EDA58F82500FDF730FE42F603039842BF
:10EAC00004D194F86930013384F869300135EDE7F9
:10EAD00094F869000338C0B284F8690000EB800044
:10EAE000800004F057FB0026A8F10402E066ADF8B0
:10EAF0001C6002920496B046039A964280F201820C
:10EB0000029B53F8045F02932846FDF704FE01467A
:10EB100019A8FFF726FA19A8FFF753FA814619A892
:10EB2000FFF751FA02280BD199F8012099F800302B
:10EB300043EA0223ADF8303001238DF8323016E07D
:10EB40004946102226A804F044FB99F80D2099F8B4
:10EB50000C3043EA0223ADF8303026A800230DF133
:10EB600032018DF8A5308DF8A430FFF75EFA284603
:10EB7000FDF7D3FDB0F5205F284611D1FDF7CBFDA1
:10EB8000614904F0F7FB002800F0B9812846FDF741
:10EB9000C2FD5E4904F0EEFB002800F0B0816FE298
:10EBA000FDF7BBFD42F60303984240F07A8105B1C0
:10EBB000043D05F104094846FDF7ADFD544904F054
:10EBC000D9FBB8B99DF89830012262F3030362F3D0
:10EBD00007138DF898302B682846DB6898472B6818
:10EBE00081461B69284698474946024626A8FFF7F2
:10EBF000FCF984E14846FDF78EFD464904F0BAFB76
:10EC000038B92B682846DB6898470088FFF7E9F990
:10EC100075E14846FDF77FFD3F4904F0ABFB002856
:10EC200000F06D812846FEF7E1FA20F001008DF832
:10EC30001B002B6828461B699847E26EADF81E0042
:10EC400008EB88014FEA810902EB09034FF0000A43
:10EC500042F82150049A5A6083F810A083F811A05A
:10EC600051461C221FA804F0BDFA1FA80DF11B017C
:10EC7000012204F0AEFA9DF81B30CDF880A013F00D
:10EC8000300FCDF888A0CDF88CA0CDF890A0CDF8AD
:10EC900094A01FD00DF1200B03225846514604F0DA
:10ECA000A1FA9BF80020CDF890B0012363F3030292
:10ECB00063F307128BF800209BF8012063F3030233
:10ECC00063F307128BF801209BF8022063F34202E2
:10ECD0008BF8022009A80021032204F083FA9DF892
:10ECE0001B3013F0320F22D0A069B8B1FDF72EFD12
:10ECF000A0B99DF82430012262F30303022212E03E
:10ED0000F869020000400020DF5E0200EE5E0200B3
:10ED1000E45E0200E95E0200F35E02009DF824302A
:10ED2000012262F3030362F307138DF824309DF888
:10ED30001B3013F00C0F14D0A06948B1FDF706FD8D
:10ED400030B99DF82530012262F30303022204E06A
:10ED50009DF82530012262F3030362F307138DF857
:10ED600025309DF82630012262F3420303F0F703B9
:10ED70006FF304138DF826302B6828469B6998475B
:10ED80009DF8263080F0010060F300038DF82630F6
:10ED9000029B059306F1010A039B9A4509DA059A3D
:10EDA00052F804BF05925846FDF7B7FCB0F5245F52
:10EDB00025D00021142214A804F014FA0CAB1493EB
:10EDC00009AB1593BDF81E30ADF858302B684FF0E5
:10EDD000000A9B68ADF85AA028469847E36EADF844
:10EDE0005C004B44083350461FA914AACDF860A01C
:10EDF000FFF70BF9BDF81E30002B35D14CE0BBF10D
:10EE0000000F01D0ABF1040B0BF10402104601928C
:10EE1000FDF781FC9E4904F0ADFA019AA0B9DBF838
:10EE200000205846926890472090DBF80020584612
:10EE3000D2689047DBF80020ADF88400D2685846CD
:10EE40009047ADF886000CE01046FDF764FC914950
:10EE500004F090FA28B9DBF80020584692689047F1
:10EE600022900AF1010A97E7BDF81E309A450ADAA6
:10EE70002B6851465B692846984726AB03F80A0081
:10EE80000AF1010AF0E7E36E4B44002118890DF105
:10EE90001E0226ABFFF7A3FD08F101085FFA88F810
:10EEA0002DE02846FDF739FCB0F5245F27D105B1E8
:10EEB000043D05F104094846FDF72DFC744904F0B2
:10EEC00059FAE0B14846FDF726FC734904F052FABE
:10EED000A8B14846FDF71FFC704904F04BFA70B129
:10EEE0004846FDF718FC6B4904F044FA38B1D7E006
:10EEF000BDF81C00002109AA26ABFFF770FD013602
:10EF0000FAE50FB1023FFFB20025BD421CDA739B48
:10EF100053F825603046FDF700FCB0F5205F05D1C1
:10EF200094F87030013384F870300BE03046FDF710
:10EF3000F4FB42F60303984204D194F8793001338C
:10EF400084F879300135E0E794F8700000EB400078
:10EF5000800004F01FF9606794F87900000104F064
:10EF600019F90026E067B146B046B246BE4276DAED
:10EF7000739A52F826502846FDF7CDFB014626A885
:10EF8000FEF7EFFF26A8FFF71CF8834626A8FFF739
:10EF90001AF802280BD19BF801209BF8003043EAB5
:10EFA0000223ADF8643001238DF8663016E059462F
:10EFB00010221FA804F00DF99BF80D209BF80C30CF
:10EFC00043EA0223ADF864301FA800230DF1660167
:10EFD0008DF889308DF88830FFF727F82846FDF73F
:10EFE0009CFBB0F5205F15D1626F08EB48018B00E8
:10EFF000D01842F82150199A4260606F18440830C6
:10F000000021042208F1010804F0ECF85FFA88F806
:10F01000AA4622E02846FDF780FB42F60303984209
:10F020001BD1E26F4FEA091B02EB0B0305B1043D54
:10F0300042F80B50C3F804A0199A9A60E06F584444
:10F0400001220C30002104F0CDF8E36F5B44002274
:10F0500009F10109DA815FFA89F9013686E7A069C9
:10F0600020B1FDF773FB002840F084802368204620
:10F070009B699847022384F8203067B0BDE8F08F81
:10F0800001200CA907AAFEF7BEFF049537E700BFD1
:10F090007D680200686A02006D6A0200726A0200FE
:10F0A0002B682846DB6898470DF1500AADF824001C
:10F0B000002114221FA804F095F8002103225046D5
:10F0C00004F090F89AF80230BDF824B04FF001092E
:10F0D00069F342038AF802302B682846DB689847B8
:10F0E0009AF80230BBEB000018BF012060F3000368
:10F0F000A0698AF8023010B1FDF728FB28B19AF810
:10F100000030012262F3030304E09AF80030022287
:10F1100069F3030362F307138AF800300CAB1F9303
:10F12000CDF880A0BDF82430ADF884302B68284697
:10F13000DB6898474FF00009ADF888001FA94846E2
:10F1400007AACDF88C90FEF762FFBDF82430002BA3
:10F150003FF4D5AEBDF824309945BFF6C9AE2B6853
:10F1600049461B692846984726AB03F8090009F170
:10F170000109EFE7A06904F1480100221C23FDF713
:10F180000FFB73E72DE9F047044686B00D460026D5
:10F190004FF0010994F869309E4254DA1423734306
:10F1A000E26ED718D358AB424BD1636C9D4204D169
:10F1B000236820465B6A294698472B6828461B69C6
:10F1C00098470DF118082B6828F8120DDB68B7F87E
:10F1D00008A0284698470021034642465046FFF7BC
:10F1E000FEFB02A80021102203F0FCFF3B89ADF8D2
:10F1F00008300023ADF80C3005933B7CCDF810802F
:10F2000073B194F8683053B1013B84F86830A0883A
:10F21000012302A98DF80A30FEF7FDFE00E09946B1
:10F220007B7C73B194F8683053B1013B84F868304B
:10F23000A088022302A98DF80A30FEF7ECFE00E058
:10F2400099460136A6E7484606B0BDE8F0870000BB
:10F2500010B50446FEF760F800210E4B236004F160
:10F26000480084F84010616484F8681084F86910DC
:10F27000E16684F87010616784F8781084F879107A
:10F28000E16784F8801060661C2203F0ABFF204623
:10F2900010BD00BF086A02007047203000F0D2BEE7
:10F2A000203000F0DDBE0000F8B5847E06460F4633
:10F2B0001546DCB10024AC4216D03368395D1B68BA
:10F2C00030469847F0B10134F5E773690022C3F87E
:10F2D0005021EAB2C3F84405C3F8482501225A6315
:10F2E000D3F85021002AFBD02846F8BD104603F081
:10F2F00051FF054B18602346AB42E6D0FA5CC2547E
:10F300000133F9E72046F8BD104C0020203000F012
:10F31000ADBE000038B50C46817E61B1037FDBB124
:10F3200000F16805284600F0A9FEA8B92846214644
:10F3300000F079FE0EE04369084AC3F850111470DA
:10F34000C3F844250122C3F848255A63D3F8502155
:10F35000002AFBD0012038BD002038BD544C0020CD
:10F36000F8B54FF47A7383600A4B036000250123DC
:10F37000044683764560C57620300E46174600F079
:10F3800047FE04F1680000F043FE26766776257795
:10F390002046F8BD806A02002DE9F041817E0446D6
:10F3A000002937D14369D3F8642152B3C3F86411FB
:10F3B000194AC3F834254021C3F8381501211963CF
:10F3C0009046D3F80421002AFBD0D3F83C750025E1
:10F3D000FBB29D4204F1200606DA18F8051030460B
:10F3E00000F021FE0135F3E7D4F8B85025B12368C9
:10F3F00020469B689847A8473046BDE8F04100F09A
:10F400001DBED3F8681129B1C3F86821D0F8B43013
:10F4100003B19847BDE8F081144C00200148FFF784
:10F42000BBBF00BF544B002008B510211122054876
:10F43000FFF796FF044812211322BDE80840FFF7AA
:10F440008FBF00BF544B0020984A002002480E2175
:10F450000F2200F0BFBE00BF584C00200B490C4AE1
:10F460000C4B9B1A03DD043BC858D050FBDC094908
:10F47000094A0020521A02DD043A8850FCDC00F0F0
:10F4800037F803F061FE00F023FD000078740200FD
:10F4900000400020084100209C530020FEE7FEE7CA
:10F4A000FEE7FEE7FEE7FEE7FEE7FEE7FEE7FEE734
:10F4B000014B1868704700BFB44C0020024B1A681B
:10F4C00001321A60704700BFB44C002070B504468A
:10F4D00048B1054B1D681E4600F008F83268631EEF
:10F4E000521B9A42F8D970BDB44C002070470000FE
:10F4F000944B1B78062B0AD1934B1B681A0706D135
:10F50000924B1B6803F0F003302B00F0AA808D4B68
:10F510001B78062B0FD18C4B1B681B070BD18B4B19
:10F520001B6803F0F002302A00F09F8003F0E00334
:10F53000402B00F09A80834B1B78062B0AD1824B1C
:10F540001B68180706D1814B1B6803F0F003302BB2
:10F5500000F092807B4B1B78062B0FD17A4B1B68F7
:10F5600019070BD1794B1B6803F0F002302A00F029
:10F57000898003F0E003402B00F08480714B1B78FE
:10F58000062B09D1704B1B681A0705D16F4B1B68FE
:10F5900003F0F003302B7FD06A4B1B78062B0AD187
:10F5A000694B1B6813F00F0305D1684A126802F01B
:10F5B000F002302A74D0634B1B78062B09D1624BC2
:10F5C0001B681B0705D1614B1B6803F0F003502B30
:10F5D00070D05F4BD3F8882042F47002C3F88820C3
:10F5E000BFF34F8FBFF36F8F4FF01023D3F800227C
:10F5F000002A03DBD3F80432002B2EDA554B01220C
:10F60000C3F80425D3F80024002AFBD04FF01022C1
:10F610001521C2F80012D3F80024002AFBD04FF0C5
:10F6200010231522C3F804224A4BD3F80024002AE1
:10F63000FAD00022C3F80425D3F80024002AFBD016
:10F64000BFF34F8F424A444BD16801F4E0610B4352
:10F65000D360BFF34F8F00BFFDE7404B404A1A60B5
:10F660007047404B404A1A6051E7404B1A68404B84
:10F67000C2F342321A605EE73E4BDA6822F08072D3
:10F68000DA6067E74FF080430022C3F80C21C3F82B
:10F690001021C3F8382571E7374B03221A607BE746
:10F6A000364A05211160012191679360344B3F2256
:10F6B0001A6080E74FF08052324BD2F80414C3F83E
:10F6C0002015D2F80814C3F82415D2F80C14C3F886
:10F6D0002815D2F81014C3F82C15D2F81414C3F856
:10F6E0003015D2F81814C3F83415D2F81C14C3F826
:10F6F0004015D2F82014C3F84415D2F82414C3F8E6
:10F700004815D2F82814C3F84C15D2F82C14C3F8B5
:10F710005015D2F83014C3F85415D2F83414C3F885
:10F720006015D2F83814C3F86415D2F83C14C3F845
:10F730006815D2F84014C3F86C15D2F84424C3F805
:10F74000702546E7E00F00F0E40F00F0E80F00F04E
:10F7500000ED00E000E001400400FA050440002054
:10F760000090D00374C007400DF0ADBA4402001001
:10F770003C050040F0ED00E0A005004010560040C0
:10F780001456004000C0004037B50023144A02EB75
:10F790000311D8B2098901F1804101F5C04109681E
:10F7A000012903D00133082BF0D1184602EB0012D7
:10F7B000002113890B4C03F1804303F5C04302F190
:10F7C000080519601B680193019BD368C4F80833CE
:10F7D000536898476B68C4F8043303B030BD00BF6A
:10F7E000B84C002000600040F0B50023284D5C5D5F
:10F7F0002CB90133082BF9D14FF0FF30F0BD254F64
:10F800001E01BC19B8516160234931F813102181E0
:10F810002249013A51F82310E160032A4FF0000415
:10F82000EC5432D81E4CA45C9B0003F1804303F5DA
:10F83000C0431C4A142505FB0020D3F81025456859
:10F8400022F4473222F44072C3F81025D3F8100591
:10F850002A0202F4F8522404024304F4403414430C
:10F86000C3F81045D3F8102542F00102C3F8102563
:10F870000D4BC02283F806234022C3F880211A6072
:10F880000A4B0846C3F80413F0BD0224CCE700BFBE
:10F8900038400020B84C00200840002018400020CC
:10F8A000DC6C0200986A020000E100E000600040A9
:10F8B000A0F10A03032B10B503D8D1F1010138BF21
:10F8C0000021A0F12603042B13D90A4B142202FBBA
:10F8D000003090F9083001330BD0426801244FF01A
:10F8E000A04304FA02F211B9C3F80C2510BDC3F805
:10F8F000082510BD986A02001D4B142210B502FBAA
:10F90000003494F90840013431D004292FD8DFE8BD
:10F9100001F0031C0A2E110002FB00300021426896
:10F9200002F5E0720CE002FB00300C21426802F5A7
:10F93000E07205E002FB00300421426802F5E0724B
:10F940004FF0A04343F8221010BD02FB0033012208
:10F950005B689A404FF0A043C3F81825A0F10A0352
:10F96000032B04D80021BDE81040FFF7A1BF10BD54
:10F97000986A0200F0B50388112B89B0044644D080
:10F980001A2B48D0102B60D1314E727D337D03A8E5
:10F99000311D23EA020200F014F90025039B9D4269
:10F9A0000DD203AA02EB45032A489B88002200924D
:10F9B00000F110011D2200F0CAF80135EEE7307D9C
:10F9C000A788234DC043C0B200F0B3F84FF6FF73D1
:10F9D000984237D005EB400005F1150187803A4683
:10F9E000281D012300F0D3F8281D05F114013A4623
:10F9F000012300F0CCF8A37DA2889C1E634205F190
:10FA0000040005F11601634119E01248A28800F1D3
:10FA10001101002313E0037A0E48A2881F2B00F186
:10FA2000130194BF0023012300F0B1F8237A0948A1
:10FA3000A2882F2B00F1140194BF0023012300F0B2
:10FA4000A6F802E0042000F066F809B0F0BD00BF9F
:10FA5000384D00203C4D002038B5094C0546217D2D
:10FA6000201D2A4600F09CF840B1201DA17D2A46A9
:10FA700000F096F800280CBF0120022038BD00BF1E
:10FA8000384D002082B00190019B002B41D0019B9A
:10FA9000013B019340F2E730013800BF00BF00BFD7
:10FAA00000BF00BF00BF00BF00BF00BF00BF00BF5E
:10FAB00000BF00BF00BF00BF00BF00BF00BF00BF4E
:10FAC00000BF00BF00BF00BF00BF00BF00BF00BF3E
:10FAD00000BF00BF00BF00BF00BF00BF00BF00BF2E
:10FAE00000BF00BF00BF00BF00BF00BF00BF00BF1E
:10FAF00000BF00BF00BF00BF00BF00BF00BF00BF0E
:10FB000000BF00BF00BF00BF00BF00BF00BFC3D128
:10FB1000BAE702B070471FB50021039001AA44F272
:10FB20000100ADF804100291AFF3008005B05DF85C
:10FB300004FB002340FA03F1C9079AB205D401334C
:10FB4000082BF7D14FF6FF7070471046704770B51D
:10FB50009DF81050D0B1C9B1C2B1002430F8146082
:10FB60009E4210D1012303FA04F4E4B2E643F6B254
:10FB70000023C85C0DB1204300E03040C85401337D
:10FB80009342F6D170BD0134082CE7D170BD13B596
:10FB90001446009301222346FFF7D9FF02B010BD9F
:10FBA00010B568B1002330F81340944204D141FAF3
:10FBB00003F303F0010010BD0133082BF3D1002043
:10FBC00010BD70B579B100231C4642FA04F5ED076B
:10FBD00005D500EB430531F81460AE8001330134E4
:10FBE000082CF2D100E00B46036070BD72DF704755
:10FBF00073DF704774DF704776DF70477ADF7047D6
:10FC00007CDF7047A7DF704730B50B78152B85B0C8
:10FC1000054615D104230C4C02930DEB030103940C
:10FC200001F0C6F960B92368DB0706D5074B0C2144
:10FC300018884FF6FF72FFF7E5FF284601F00EFA2D
:10FC4000002005B030BD00BF6C4D002042400020B8
:10FC500008B5094B18884FF6FF73984203D013215B
:10FC6000FFF7CAFF01E0FFF7C5FF4FF4FA70BDE8E8
:10FC70000840FFF707BF00BF4240002010B5044610
:10FC800086B08088FFF7E8FE1B4B1B7863B3022821
:10FC90002AD0A37D022B27D0204601F02DFB174848
:10FCA000214600F04BFD2388102B1AD0112B1BD1BD
:10FCB000134B4FF6FF721A8068460021182203F09A
:10FCC00091FA0023A02268468DF8003001938DF848
:10FCD00008300393ADF81020ADF81230FFF788FF1D
:10FCE00002E0074BA2881A80064B13B12046FDF7AD
:10FCF0004DFB06B010BD00BF40400020744D0020F9
:10FD0000424000208DD3010030B585B004AD002401
:10FD100005F8104D02F02AF9684601F039F821463D
:10FD20000DF10900052203F05DFA144A9DF809302F
:10FD30001278134862F30003124A127862F3410307
:10FD4000114A127862F38203104A127803F0F70323
:10FD500062F3061364F3C7138DF8093007238DF897
:10FD60000A3010238DF80B30094B019301A90123B0
:10FD70008DF8083001F078F805B030BD444000201F
:10FD8000704D0020714D0020724D00204140002038
:10FD900009FC010070B5414E8CB0FFF7B5FF06B30A
:10FDA000FDF718FBE8B10C22002101A803F01AFAB4
:10FDB0003B4B02930023039301A901233948ADF87B
:10FDC000043000F03DFB384802F07EFB374B1878DA
:10FDD00002F080FB002E4AD0FDF7FCFA002846D046
:10FDE00059E09DF800303248012262F303030CAC65
:10FDF00062F3071304F8303D03F0C6FA2C4982B2CF
:10FE00006846FFF7FDFE0021082201A803F0EAF989
:10FE10004FF4A073ADF804304FF402730024ADF832
:10FE2000063001A84FF4C873ADF80A30ADF80840A9
:10FE3000FFF7E4FE21461F2204A803F0D3F91C4873
:10FE400003F0A2FAC5B26B1C8DF810302A460923C4
:10FE50000DF1120016498DF8113003F0BAF9A91C02
:10FE600004A8C9B222462346FFF7C0FE9BE718222A
:10FE700004A8002103F0B6F90023A02204A88DF8FD
:10FE8000103005938DF818300793ADF82020ADF8A9
:10FE90002230FFF7ADFE0CB070BD00BFD5D301001E
:10FEA00041230200744D002051FC0100704D0020E0
:10FEB000E06C0200014B1878704700BF4040002002
:10FEC00008B5024B0BB1FDF78DFA08BDE5D3010073
:10FED00008B500F08DFA0020FFF7F8FA0A4800F0A4
:10FEE000F7F80A4802F09EFBFCF7CCFAFFF7E2FFB6
:10FEF00008B1FFF74FFFFCF717FB054B002BFAD0BB
:10FF0000AFF30080F7E700BFA44D00207DFC0100A7
:10FF100000000000F8B506460C468F180025BC42CC
:10FF200007D0336814F8011B1B6830469847054416
:10FF3000F5E72846F8BD70B505460C4649B103689B
:10FF400008465E6803F020FA214602462846B0477C
:10FF500070BD084670BD08B503681B68984708BDAA
:10FF600008B50249FFF7E7FF08BD00BF6E70020049
:10FF700038B50446FFF7DFFF05462046FFF7F0FFE0
:10FF8000284438BD30B58BB000238DF82430012AC9
:10FF900098BF0A220DF12304B1FBF2F303FB121107
:10FFA000CDB2092D94BF30353735EDB2214604F876
:10FFB00001590BB11946EFE7FFF7BDFF0BB030BD9C
:10FFC000F8B506460D46144622B90368C9B21B6847
:10FFD0009847F8BD0A2A0CD100290BDA2D21FFF72A
:10FFE000BAFF6942074622463046FFF7CBFF384446
:10FFF000F8BDD2B2BDE8F840FFF7C4BF38B504463B
:020000022000DC
:10000000FFF7DEFF05462046FFF7AAFF284438BD6C
:1000100010B500210446402203F0E4F800232364D5
:100020006364204610BD026C10B5531C446C03F091
:100030003F03A3421CBF8154036410BD002303642B
:1000400043647047436C026C934206D0C25C013338
:1000500003F03F034364104670474FF0FF30704792
:10006000026C436CD01A48BF40307047436C026C3E
:10007000934214BFC05C4FF0FF307047036C406C7C
:10008000013303F03F031B1A5842584170470000E8
:1000900010B5044601F032FF022C02D0032C02D02E
:1000A00010BD002200E00222014B1A7010BD00BFFB
:1000B000144F002010B50021142304468162C16250
:1000C0000163C0F82431282203F08CF8204610BDCB
:1000D0007FB5164B164918680090482268460023E1
:1000E00002F064FA08B1FFF716FD0720012101AA0A
:1000F00002F0BEFA08B1FFF70EFD0423ADF804309C
:100100009DF810300B4843F001038DF8103002F0D9
:10011000C7FA08B1FFF7FFFC01A802F0CBFA0648C6
:1001200002F08AFA07B05DF804FB00BFFF6C020022
:10013000CC4E0020283D0020910002000148FFF72E
:10014000B9BF00BFA44D002001207047064B1970B5
:10015000064B00221A60064A012111601A68002A23
:10016000FCD00120704700BF154F00202021004027
:10017000082000400C4BD3F8002222F02002C3F8E4
:1001800000220A4A012111601022C3F8082300222C
:10019000C3F800254FF0FF32C3F80C251030C3F828
:1001A0001425FFF74BBF00BF002000400420004093
:1001B000024B01221A601030FFF740BF08200040B8
:1001C0001030FFF74DBF1030FFF750BF1030FFF772
:1001D00039BF000070B5002343604FF47A730446C2
:1001E0008360064B40F8103B0D461646FFF710FFA4
:1001F00084F8585084F85960204670BD106D020094
:10020000034B00221A60034B10301978FFF70BBF25
:1002100010210040164F0020B1F5E16F37D3B1F542
:10022000616F37D3B1F5E15F37D342F6DF639942AF
:1002300035D944F29F13994233D945F6BF539942B9
:1002400031D948F23F3399422FD94BF67F33994247
:100250002DD903F5964399422CD903F5E1439942F0
:100260002BD903F59633994229D91B4B994229D9A9
:1002700003F5E133994228D9184B994228D91848F7
:1002800081428CBF4FF080504FF0706070474FF448
:100290009E2070474FF41D20704712487047124847
:1002A00070471248704712487047124870474FF421
:1002B0001D0070474FF46B0070470F4870474FF0B8
:1002C000EB7070474FF06C7070474FF08060704774
:1002D0004FF0E860704700BF47AA0300FF8B0A0099
:1002E0001FA90E0000B013000050270000F03A00D4
:1002F00000A04E0000C0750000903A0101F00F010F
:1003000001290CBF0E200020704700002DE9F041AC
:100310002B4C2C4BC4F8443501262B4BC4F84865B4
:100320000546C4F83435C4F838650F4690F85800CF
:1003300000219046FFF7E0FA95F859003146FFF7A3
:10034000DBFA95F859003146FFF7B2FA39462846EC
:10035000FFF762FF4146C4F824052846FFF7CEFFA9
:10036000C4F86C0595F8591095F85800174B1422ED
:1003700002FB013102FB003349685B68C4F80C15CD
:10038000C4F814350823C4F800351023C4F8043326
:100390000F4BC02283F802230422C3F880211A6085
:1003A0000C4B00221A60D4F8003243F02003C4F84A
:1003B00000322660084B1B68002BFBD0BDE8F081A3
:1003C00000200040154F0020164F0020986A0200C0
:1003D00000E100E0102100404C2100401322FFF713
:1003E00095BF00000148FFF70BBF00BF584C00202D
:1003F0000A4B1A684FF47A73B2FBF3F2013AB2F186
:10040000807F0AD2064B5A60064AE02182F8231008
:1004100000229A6007221A607047FEE7044000201D
:1004200010E000E000ED00E0A0DF7047A2DF7047C1
:10043000A5DF7047A6DF7047A8DF704763DF70470E
:100440002DE9F047884694B00546002800F0368133
:10045000002900F033814B68002B00F02F814FF60C
:10046000FF730380994B04AA03F11006174618681E
:100470005968144603C40833B3422246F7D114AE78
:1004800041F2305338460DF10A0126F8483DFFF796
:10049000D5FF002840F01481012031462A1DFFF7C6
:1004A000C3FF0446002840F00C819DF80A30AB7170
:1004B00021461C220DA802F095FE9DF834300E94C2
:1004C00043F004038DF8343001AFAB798DF80E3072
:1004D000214641F23253032238461094119412946B
:1004E0001394ADF80C3002F07DFE9DF8043064F3F7
:1004F000030364F307138DF804309DF805300126DB
:1005000066F3030366F307138DF805309DF8063094
:1005100066F3420364F3C30364F30413DBB23343AF
:100520002146142208A88DF806300DF10C0902F0BE
:1005300059FE4FF0140AA888ADF828400DA908AA62
:1005400005F10803ADF82A400C94CDF820900997E6
:10055000ADF82CA0FFF76AFF0446002840F0B180F8
:1005600021461C220DA802F03DFE9DF834300E9469
:1005700043F018038DF83430AB798DF80E302146F6
:1005800041F231530322384610941194129413947B
:10059000ADF80C3002F026FE9DF8043064F303033E
:1005A00064F307138DF804309DF8053066F30303F8
:1005B00066F307138DF805309DF8063066F34203A5
:1005C00064F3C303DBB243F011032146524608A88B
:1005D0008DF8063002F006FE1723ADF82C30A888FF
:1005E000ADF828400DA908AA05F11003ADF82A407E
:1005F0000C94CDF820900997FFF718FF04460028C7
:100600005FD121461C220DA802F0ECFD9DF834308C
:100610000E9443F002038DF83430AB798DF80E3030
:10062000214641F234530322384610941194129417
:100630001394ADF80C3002F0D5FD9DF8043066F34C
:10064000030366F307138DF804309DF8053064F357
:10065000030364F307138DF805309DF8063066F345
:10066000420364F3C30364F30413DBB23343214650
:10067000524608A88DF8063002F0B4FD0223ADF80A
:100680002830ADF82C30A888ADF82A400DA908AA6A
:1006900005F12003CDF820900997CDF83080FFF7C1
:1006A000C5FE044668B9D8F80430AB62D8F8083003
:1006B00003B1EB62064B01221A7002E00E2400E047
:1006C0000446204614B0BDE8F08700BF386D020034
:1006D000174F002030B5044687B030B300884FF67E
:1006E000FF73984223D0134B1B7803B3124D102392
:1006F00069700321ADF80610AA7002A81A460021FD
:100700002B7002F06FFD238AADF8083001238DF8BD
:100710000A300023ADF80C30208805950DF1060352
:1007200002A90493FFF786FE02E00E2000E00820F5
:1007300007B030BD174F0020184F002070B50D4690
:1007400088B00446002800F0C380002900F0C08073
:10075000826A002A00F0BC800B88112B1BD004D8C1
:10076000102B40F0B5808B8817E0502B02D0512B16
:1007700015D0ADE0C9880389994240F0A9800823CB
:100780008DF81030123535F8023C8DF8183005958B
:1007900004A990479CE04FF6FF73238098E08B7983
:1007A000022B40F095800A89038A9A4240F090809B
:1007B0008B7B043B022B40F28B809DF8163043F07C
:1007C00001038DF816300B8AADF818304B8AADF85E
:1007D0001A30022601F114030822002101A88DF825
:1007E0001060079302F0FEFC00230DEB030202925F
:1007F0002088A18AADF8046001AAADF80630FFF7A1
:1008000017FE064618B1E36A2BB1984703E09DF83E
:100810000030DB0708D440F2FD132088ADF8143017
:1008200004A9FFF709FE4FE0ADF8140004A92088E1
:10083000FFF702FE002847D1297D4B1E072B3FD82A
:10084000DFE803F0040E1D1F21233C256B8A8DF881
:100850000460012B02D82046012109E0012309E0B0
:100860006A8A01239A428DF8043003D82046022177
:10087000062227E015358DF80C30029519E0022389
:1008800015E0032313E0042311E005230FE06B8A36
:10089000022B02D82046082113E0AA7D6B7D43EA93
:1008A0000223ADF808300BB9072300E006238DF8CA
:1008B0000430A36A204601A9984709E00923F6E716
:1008C00020460322FFF706FF10B1E36A03B1984701
:1008D00008B070BD7FDF704786DF7047A7DF7047C5
:1008E000A9DF7047AADF70470020704700207047DB
:1008F000002070470020704700207047002070479C
:10090000002070472DE9F34704460F462B48A17895
:100910006A4601F0DFFB00284DD1294B62780C219B
:1009200001FB02319946897A11F0400F09D1022F5B
:1009300007D0012F07D12348A178234E02F0F2FC03
:1009400002E0224E00E0224EDFF89880A1781C25BC
:1009500005FB01812A4600236846B047A1788246FC
:1009600005FB01811B482A46002302F0DBFCBAF19B
:10097000000F12D1022F1ED063780C2202FB0393CA
:1009800068469A7A22F040029A726178124B2A469F
:1009900005FB01312B46B04701E0022F0BD00F4A77
:1009A00023780C2101FB032368469A7A0C4B2146DD
:1009B00053F82230984702B0BDE8F0877C50002001
:1009C000444F0020586D0200252102009D210200A5
:1009D000E9080200946D02002C5000206C500020A9
:1009E000486D0200504F00202DE9F84343782B4911
:1009F0002B4F24225A4380468818446874B10C2037
:100A000000FB0370807A050607D5400605D402F185
:100A10000806A5B20E448C5802E00024254626465E
:100A20004FF00C0909FB0373314618892A46234607
:100A3000FFF756FF0B280BD198F80120184B09FB44
:100A40000233314618892A460123FFF749FF012462
:100A5000002848F2410518BF2846012C1BD198F800
:100A600001300C2101FB03774FF6FF723889FFF745
:100A700035FF80B143F2020398420BD0082809D019
:100A800043F20403984205D011280CBF28460020E9
:100A9000BDE8F8832846BDE8F88300BF4850002031
:100AA000444F0020FFF7A0BF2DE9F04389B01A237F
:100AB000ADF80230244F4B784FF00C0808FB03735D
:100AC00081460E46188901A90DF102020323FFF7A2
:100AD00009FF002834D170781C4DBDF80220242471
:100AE00004FB0050083001A902F064FB737868B978
:100AF00008FB0377BA7A02F0020202F0FF01FAB9AA
:100B000004FB0350224602F06DFB19E06343E91831
:100B10000F484A680F4F002A18BF07460322EA50C1
:100B200003F10800BDF802204A60284401A902F040
:100B300050FB7178484604FB015122463823B847E0
:100B4000002009B0BDE8F083444F00204850002049
:100B50009D21020025210200FFF7A6BF70B50346C4
:100B6000094D487824240E4604FB005019462246BD
:100B7000382301F04FFB30B9737804FB03546368EA
:100B8000013308BF606070BD48500020FFF7E6BF2A
:100B90002DE9F0471C46544B92B017461A681A9E2E
:100BA000824688469946002A00F09A80742E00F208
:100BB0009780FF2300258DF805308DF806308DF8DD
:100BC00007308DF804508DF8105009940896474866
:100BD000A9B202AA01F07EFA40B9504602A9082241
:100BE00002F0E8FA10B98DF8065002E00135072D41
:100BF000EDD19DF80630FF2B72D0B8F1030F06D16E
:100C0000742E0CBF202340238DF810304EE0384A5C
:100C1000A21AC32A11D8374827B90121026899407E
:100C200011425DD0012202FA03F3026822EA0302B4
:100C3000202302608DF8103047E02F4AA21A1B2AA9
:100C400009D8002220238DF805200AAA8DF810303B
:100C50000992089339E02948221A232A13D830230D
:100C60008DF8103000238DF8053001238DF8073002
:100C7000234B9B7A03F0020303F0FF012BBB2422DA
:100C800002F0B0FA21E040228DF810201D4A944273
:100C90000CD01D4A52F82320A24221D1184AD27A00
:100CA0009A4212D100238DF805300EE09DF81030E5
:100CB00043F003038DF8103007AB059301A8D9F872
:100CC000003004A93A4698470AE0B8F1020F9DF8AF
:100CD000103002D143F00103ECE743F00203E9E7EF
:100CE00012B0BDE8F08700BF6C5000207C5000209F
:100CF000504F0020785000202C50002048500020F9
:100D0000444F00208C710200204F002070B5114E1E
:100D10001C24444305463019002134440622113076
:100D200002F060FA00211022204602F05BFAFF2355
:100D30002374A3764FF6FF732383074B01211A68B0
:100D4000A94022EA01021A60044B002243F8252040
:100D500070BD00BF504F002078500020204F002071
:100D600037B50546A9B209486A4601F0B3F9044609
:100D700040B96846742101F099FA044610B9284632
:100D8000FFF7C4FF204603B030BD00BF7C500020F9
:100D90007FB50546002853D02B482C4B0122002458
:100DA00082724FF6FF720281C272214607221C60D6
:100DB0005C729C7202F016FA25482146242202F049
:100DC00011FA2046FFF7A2FF224BFF22E254013422
:100DD000072CF6D104A8204A40F8102D7423684649
:100DE0001E49ADF80430ADF8064001F009F948BBE2
:100DF0001B4E2C7801233370C4B91848A1B202AA43
:100E000001F068F9054650B916481C2202FB04009F
:100E100002A92B4601F0FEF920B1357012E0002343
:100E200033700FE00134072CE7D10BE0BDF806303A
:100E3000BDF804100948594389B201F037FA01E0BE
:100E400048F20E0004B070BD444F00206C500020EA
:100E5000485000203C4F0020910B02007C500020A5
:100E6000434F0020504F0020184B1B7870B50646AA
:100E70001BB328B321B3086810B3154B1A6812BB13
:100E80000D461C4644F8040B55F8050F58602879A8
:100E9000207109799972197A62F30001C9B241F09F
:100EA000020162F382011972D97941F0030162F300
:100EB0008201D9713270104670BD48F2080070BDD1
:100EC00048F20E0070BD48F2040070BD434F002090
:100ED0006C5000207FB52E4B1B7805460C46002B2E
:100EE00050D0002848D0002946D08B68002B43D032
:100EF0000378002B46D1274B1B68002B42D081780A
:100F000006293CD8244B1C2202FB01339B7EFF2B7D
:100F100035D04378214A0C2000FB03239B7A1B0722
:100F200030D56368032B30D91D4802AA01F0D2F8EE
:100F300060BB01A802A90422602301F06BF938B953
:100F4000184A194E019BB3F1FF3F08BF164600E057
:100F5000144E02A8211D04226023B047B0B902A894
:100F6000A1681022642301F019F978B9AA780F4B0F
:100F7000A16843F8221009E048F20E0006E048F2AA
:100F8000100003E048F2080000E0072004B070BD44
:100F9000434F00206C500020504F0020444F002051
:100FA0007C500020252102009D210200204F0020BE
:100FB0001FB5254A127803460C46002A3AD000286D
:100FC00035D0002933D00278002A33D11F4A126865
:100FD000002A2FD08278062A2FD81D491C2000FB1A
:100FE0000211897EFF2928D0A0681A4918B951F842
:100FF0002220A26001E041F822001748997802AA55
:1010000001F068F8F0B901A802A90422602301F0F8
:1010100001F9A8B9019B013312D0A06802A91022DE
:10102000642301F0F7F868B9019B63600AE048F2B5
:101030000E0007E048F2080004E048F2100001E06A
:1010400048F2400004B010BD434F00206C50002017
:10105000504F0020204F00207C5000201FB51C4B1B
:101060001B78044663B340B303784BBB194B1B6832
:1010700033B38178062926D8174B1C2202FB013393
:101080009B7EFF2B1FD0154802AA01F023F8E0B980
:10109000602301A802A9042201F0BCF8019B0133DE
:1010A00013D002A80E490422602301F077F860B93A
:1010B000A2780C4B43F8220007E048F20E0004E04F
:1010C00048F2080001E048F2100004B010BD00BF73
:1010D000434F00206C500020504F00207C500020D7
:1010E0008C710200204F0020084B1B785BB139B196
:1010F00030B1007838B9064B1B6823B108707047CF
:1011000048F20E00704748F208007047434F002035
:101110006C5000201C4B1B7810B57BB358B351B3F7
:1011200004785CBB194B1B6843B38278FF2A0FD14C
:101130004278FF2A25D0164B0C2000FB02339A7A06
:1011400092071ED51A680A609A888A809B790FE0F8
:10115000104B1C2000FB02339A7E02F0020202F0C8
:10116000FF0472B953F8100F08609A889B798A803F
:101170008B71204610BD48F20E0010BD48F20800E9
:1011800010BD48F2050010BD434F00206C500020F8
:10119000444F0020504F00202DE9F043264B1B7890
:1011A0008BB005460C46002B3DD0002838D00029D6
:1011B00036D00378002B36D1204A1268002A32D06C
:1011C0008278062A32D8DFF87C801C2707FB02824F
:1011D000927EFF2A2AD0CB608278DFF86C904B6138
:1011E00007FB028203AE0A61C1F804908B600E60B7
:1011F0001348A97801AA00F06DFFC8B9304601A9CB
:101200003A463B4601F006F890B9E060AB78606181
:1012100007FB03872761C4F80490A060266007E0FD
:1012200048F20E0004E048F2080001E048F2100025
:101230000BB0BDE8F08300BF434F00206C5000208E
:101240007C500020504F0020145000207FB50446F1
:1012500002AAA1781E4800F03DFF617803460028ED
:1012600030D11C4E039A1C481C2505FB01630095D8
:10127000019502F057F860782A4605FB006002A944
:101280002B4600F0C7FF024618B11448617802F0FF
:1012900049F8382261780092114A1248242303FB4E
:1012A000012202F03FF8104B9A7A104B02A853F833
:1012B000223021469847024640B161780C4802F03E
:1012C00031F803E00B48A27802F02CF804B070BDAE
:1012D0007C5000202C500020D06D02002C6E0200AB
:1012E00048500020686E02006C5000206C710200B3
:1012F000B16E0200F06E02002DE9F041B74A90B0E5
:101300001278FF2305460393002A00F02E82B44F83
:101310003A68002A00F0298206888DF811308DF88D
:1013200012308DF81330031D06934FF000082C2364
:10133000102EADF81C308DF81080AA4C22D0A27A65
:101340008388920708D54FF6FF72934200F0CE8152
:1013500022899A4200F0CA81192E00F0EB8007D84A
:10136000132E67D0142E3BD0112E40F0FE8119E0D1
:101370001E2E00F09C81522E00F08F811A2E40F01C
:10138000F48159E1984801F0CDFF4FF0A0434FF0B0
:101390008052C3F81825C3F80825A37ADE0700F1A8
:1013A000AC81E2E19148297A01F0BCFFA27A02F017
:1013B000FD031007A37206D519060DD504A8002158
:1013C000FFF7A0FA08E09DF81200FF2804D0FFF70D
:1013D0009DFCFF238DF812301023A37212236AE1C3
:1013E000834801F09FFFE37AFF2B18D12A8A00235C
:1013F00080491C2000FB0311098B91420CD1A27A79
:10140000039342F00802DBB204A8E372A2728DF8E3
:101410001230FFF71BFF02E00133072BE8D1E37A1C
:101420007549A888734AFF2B08BF00210023FFF7E6
:1014300053FA9AE1714801F075FFA37A8DF81460B0
:1014400043F00403A372E37A664EFF2B5AD10023C4
:1014500068491C2202FB03128846907EFF2820D197
:1014600020786049022802F118000AD0FD26867013
:1014700002F110060868106188888A79B080B2711C
:1014800001E0FE2282708DF80C305D48039A002145
:1014900001F048FF9DF80C308DF81230E372002601
:1014A00009E00133072BD3D1564848F2430101F03C
:1014B00039FF48F24306297A2B7BEA7A524801F039
:1014C00001010091C2F3400203F00101C3F3800364
:1014D00001F028FFE37AA8881C2202FB03830D9306
:1014E000454B08930021494A0C9108AB0E910F918E
:1014F00009910A910B91FFF7EDF90146002800F0E0
:10150000DD8013E0424801F00DFFB37A43F0400361
:10151000B372002216238DF814308521A888134653
:10152000FFF7D8F90146002800F0C780394801F0DC
:10153000F9FE1AE1297A384801F0F4FE7B7AA27AA2
:1015400023F0010302F0FB017B721420A1728DF8DD
:101550001400287A234B60B1520604D4D87AFFF7DE
:10156000FFFB2E7A00E00026297A0220FEF7A8FC75
:10157000A4E06A7A560740F1A0809DF81220FF2A65
:1015800000F09B8041F0080199726B7B980707D5AA
:10159000184B1C2101FB0233997E21F00101997641
:1015A000E37A104DFF2B00F088800021144801F0F1
:1015B000B9FE2B780F4A022B9DF812304FF01C0118
:1015C00001FB03232AD09A7E28681861A979A8888C
:1015D000988222F0020299759A7628E0434F002003
:1015E0006C500020444F00203C6F02004E6F020000
:1015F0006F6F0200504F00202C500020976F0200A8
:10160000C16F020030710200E96F020070500020CB
:101610005070020010700200717002005449498A33
:10162000198303F118029B7E23F00103937004A831
:101630000121FFF767F940E02A7A4E4802F00F01D6
:10164000120901F06FFE2B7A112B14D1A37A4A4DA7
:10165000190710D549480021324601F0C3FD162371
:101660008DF81430AB7A43F06003AB727B7A43F0B1
:1016700002037B7221E000210120FEF721FCA37A06
:10168000BA7A63F07F03A37215238DF814303C4BB4
:1016900004A853F8223098470FE03A4801F042FE80
:1016A000BA7A374B04A853F8223098475DE03648A1
:1016B00001F038FE13238DF8143000263B6804A88F
:1016C00005A9324698479DF81430122B4DD1A37AC4
:1016D0002948012B49D0012383724FF6FF73038100
:1016E000C3720021072201F07DFD3EE0E37A8DF810
:1016F000123000238DF811302EE611238DF81430AE
:10170000AB8823812E460223A37256F8080F8DF86A
:101710001180B379B288A371EB7DA280DA072060D3
:1017200006D55B08194AD35CFF2B11D003930FE059
:101730004546174B1C2000FB05303146072201F0BF
:1017400039FD08B9039503E00135072DF1D1B4E760
:10175000A27A9DF80C30E37242F0080204A8A2724B
:101760008DF81230FFF772FDA7E710B0BDE8F081E9
:101770002C500020A1700200444F00205050002047
:101780007C710200E37002000D7102003C4F0020EA
:10179000604F002010B579B10B7883B90A4A1268FE
:1017A0006AB1FF228A70094A148984420AD14B70B7
:1017B000D27A8A70184610BD48F20E0010BD48F269
:1017C000080010BD052010BD6C500020444F0020C3
:1017D0004FF010235A69531C4FF080531DBF1869F6
:1017E00080B2B2FBF0F05869704729DF704728DFFC
:1017F0007047000008B5034B1A78034B53F82230AA
:10180000984708BD08530020A471020037B502466E
:101810000846074C0B4650F8081F24680C254D431A
:1018200019780094034C1B696459A04703B030BD7C
:1018300010530020E8520020104A1378142101FBB5
:1018400003234FF08052D88811691A690433013A92
:101850009B8802441A448BB2B2FBF3F2084B1B681C
:10186000934207D308D1074B1868D0F1010038BF65
:1018700000207047012070470020704784500020EE
:10188000E0520020E4520020034B1A6822F00802C4
:101890001A60FFF7AFBF00BF04530020074A136868
:1018A000180709D4990744BF43F001031360044BA0
:1018B00002221A70FFF79EBFFFF7E6BF0453002015
:1018C00008530020054B1B681B0704D4044B01225E
:1018D0001A70FFF78FBFFFF7D7BF00BF0453002078
:1018E0000853002008B5B0B1112805D10A4B1A6879
:1018F00042F008021A6008BD084B1A78142101FB57
:1019000002310431FFF782FF054B04221A70BDE853
:10191000084000F09BB808BD04530020845000200C
:101920000953002008B5FFF760FFBDE80840FFF746
:10193000D9BF0000F8B5134B134E1A78142404FBDA
:1019400002344FF0805504342B696288A0889BB222
:101950009A42E3680ED929692F6989B2521A21691E
:10196000184410441144C7F38D02FFF7DBFF2B69C5
:101970009BB205E0184421699208FFF7D3FF638802
:101980003360F8BD845000201C53002038B50A4A4B
:101990004FF0805415682369013D9BB25D43FFF70A
:1019A00017FF2169431E89B25943044B28461A6820
:1019B000BDE83840FFF7B6BFE052002018530020C2
:1019C00070B5104A1378142101FB032304339A885D
:1019D0005C88DB684FF0805514441C442B699BB233
:1019E000B4FBF3F603FB1646FFF7F2FE2969431E2C
:1019F00089B201FB0361044B20461A68BDE87040C0
:101A0000FFF790BF84500020E452002010B5FFF78C
:101A1000DFFE4FF0805301381C6919691A698BB2D7
:101A200005490968A4B260435943C2F38D02BDE879
:101A30001040FFF777BF00BFE052002008B5FFF766
:101A4000D6FEBDE80840FFF74DBF0000294B1B78CC
:101A5000F0B5032B4DD8DFE803F0020F1346264AFA
:101A600000231360254A1360254B5B78002B40D080
:101A7000BDE8F04000F0CCB8BDE8F040FFF75ABF39
:101A8000204B1F481A6804781F4F22F001011425CB
:101A90004FF08056196005FB04043069256980B257
:101AA000B5FBF0F00434386036696488013D2544A4
:101AB000B4B2B5FBF4F5A8421CBF22F003021A60D1
:101AC000124A04BF41F0020119601168104A21B99D
:101AD0001B689B0701D4022300E00023BDE8F0400F
:101AE0001370FFF787BE084BBDE8F0401868FFF79A
:101AF000A5BFF0BD09530020145300201C53002043
:101B00008450002004530020E0520020185300208D
:101B1000085300202DE9F041374A384E137814213C
:101B200001FB0323364ADF681969B3F806C00C24A9
:101B300004FB07244FF08058228960896468D8F834
:101B4000105000FB02401C8900233360ABB2B1FB94
:101B5000F3F50CEB040203FB15130A44294D3BB9C2
:101B6000D8F810309BB29C4504D0824200D10CB111
:101B7000032F09D14FF080531B699BB2B1FBF3F1E6
:101B8000214B1960032331E04FF0805321441F693A
:101B9000BFB2B1FBF7F407FB14111C4C890821609C
:101BA0008242196921D089B2B2FBF1F401FB142100
:101BB000D9B11C69196992B280B2A4B289B2B0FBE2
:101BC000F4F4B2FBF1F18C4203D1821A9208326034
:101BD0000BE019691B699BB2B2FBF3F003FB102207
:101BE00089B292B28B1A9B08336002232B70BDE836
:101BF000F041FFF72BBF00BF84500020E4520020CB
:101C0000E852002009530020E05200201853002021
:101C10000A4A1378142101FB0323094AD9881B7946
:101C20001160032B07D0042B05D0012B05D1054AE9
:101C30001370FFF70BBFFFF76DBF70478450002094
:101C40001053002009530020F8B5114D6E781E2E58
:101C50001AD02C7834441D2C88BF1E3C142707FB57
:101C600004540136207103C9626104F10C0282E858
:101C70000300E380BDF818302381064B6E701C789A
:101C800024B9FFF7C5FF01E00420F8BD0020F8BD2E
:101C9000845000200953002038B5124C21781425B7
:101CA00005FB014104310020FFF7B0FD217805FB61
:101CB0000142002302251371D380D5601361536163
:101CC00013816278013A62704A1CD2B21E2A18BF90
:101CD0002270054A08BF23701370BDE83840FFF733
:101CE000B5BE00BF8450002009530020074B1A786E
:101CF000142101FB02331B79042B01D0FFF7CCBF69
:101D0000034B01221A70FFF7A1BE00BF84500020D0
:101D1000095300201F48F8B5036813F0080121D1CA
:101D20001D4C2278142505FB0242D2F810C0D7883A
:101D300016894FF080521569184A1468B4B10CF135
:101D4000FF323A44ADB23244B2FBF5F2144D2D6885
:101D500095420BD143F00103124A0360124B11600C
:101D600019700CE0BDE8F840FFF78EBDFFF764FD89
:101D700048B10C4B00221A6002220B4B1A70BDE8CE
:101D8000F840FFF737BD0CB10322F6E7BDE8F84095
:101D9000FFF7ACBF0453002084500020E452002021
:101DA000E05200201853002008530020034B1B680A
