:020000021000EC
:10C0000000000120B5F50100F5F50100F7F501008C
:10C01000F9F50100FBF50100FDF50100000000004D
:10C02000000000000000000000000000FFF501001B
:10C0300001F601000000000003F6010015F6010002
:10C0400007F6010007F601009506020007F6010059
:10C0500075F5010007F60100E1F8010007F601009F
:10C0600007F6010007F6010007F6010007F60100D8
:10C0700007F6010007F6010007F6010007F60100C8
:10C0800007F601002DC8010007F6010007F60100C0
:10C0900007F6010007F60100FD28020007F601007F
:10C0A00007F6010007F6010007F6010007F6010098
:10C0B00007F6010007F60100000000000000000084
:10C0C00007F6010007F6010007F6010007F6010078
:10C0D00007F6010007F6010007F601000000000066
:10C0E0000000000000000000000000000000000050
:10C0F0000000000000000000000000000000000040
:10C10000000000000000000000000000000000002F
:10C11000000000000000000000000000000000001F
:10C4000010B5054C237833B9044B13B10448AFF38E
:10C4100000800123237010BD1041002000000000A7
:10C420006477020008B5064B1BB106480649AFF316
:10C4300000800648036813B1054B03B1984708BD57
:10C440000000000064770200144100200C4100202D
:10C450000000000038B5074B074DD3F804452868A5
:10C46000064B201A1C6006F02FFC054B2C60C3E91C
:10C47000000138BD00400240404100203C41002006
:10C48000304100200720012103F0BEBA10B5002082
:10C49000022103F0DDFA0720012103F0D9FA0D2073
:10C4A000012103F0D5FA1F4C0A20012103F0D0FA34
:10C4B0000C20012103F0CCFA20461B4901F0A4FA1C
:10C4C000204601F0A3FD04F5ED601849184C03F077
:10C4D000FBFD01210A2003F097FA4FF4FA7003F0F4
:10C4E000A1F800210A2003F08FFA4FF4FA7003F04C
:10C4F00099F80720002103F087FA0E4B2022C3F899
:10C50000082501221A60204600210B4A042300F06E
:10C5100075F92046FF21094A0223BDE8104000F0CA
:10C520006DB900BF50410020D05B0200D55B020016
:10C530009C4A00200040024055C4010085C401000F
:10C54000F8B55148514C524D01F06AFC002869D0B1
:10C55000504E4D48504F01F08CFC33683860532BDF
:10C5600029D10D20002103F04FFA3B68312B02D175
:10C570004FF47A7317E0322B02D14FF4FA6312E0D2
:10C58000332B02D141F288330DE0342B02D142F239
:10C59000107308E0352B02D144F6206303E0362BFC
:10C5A00002D14EF6602323603C4821680A2203F042
:10C5B000D1FD582333603368502B1FD10C2000214C
:10C5C00003F022FA3B68312B02D14FF47A730DE06D
:10C5D000322B02D140F2DC5308E0332B02D140F27F
:10C5E0006C7303E0342B02D140F6C4132B602B484C
:10C5F00029680A2203F0AEFD582333603B68532BB1
:10C6000006D10D20012103F0FFF9234B1B68336095
:10C610003B68502B06D10C20012103F0F5F91E4B8D
:10C620001B6833600720002103F0EEF921681C48E5
:10C630001C4C00F0D9F81A4800F0A0F8FFF70AFFE8
:10C64000174800F09BF8FFF705FF286806F04CFB41
:10C65000D4E9002306F0AEFB0B46024608A1D1E95F
:10C66000000106F0D1FCC4E9000141EC100BBDE86B
:10C67000F8400A48022103F019BE00BFAFF3008062
:10C680000000000040774B41504100200440002052
:10C69000084000204441002038410020B8480020D4
:10C6A0009C4A0020304100200C4B10B518680C4CFF
:10C6B00006F01AFB00220B4B06F0A6FC0A4BC3E95E
:10C6C0000001FF210A4620460B4601F013FC2046DC
:10C6D0000649074ABDE8104006F084B9084000202A
:10C6E0005041002000408F4048410020F5C6010025
:10C6F00000400020124B03F18C0210B50360426031
:10C7000003F1A402CC3304468260C0F8683700F617
:10C71000341000F04FFE04F6041000F0C5FD04F6DE
:10C72000EC0000F047FE04F6BC0000F0BDFD04F68E
:10C73000A40000F03FFE204601F08AF9204610BD1B
:10C74000006C020010B50446FFF7D4FF204606F047
:10C7500045F9204610BD3BDF704748DF70470000B9
:10C7600008B5044B01221A70034B1B6803B19847AC
:10C7700008BD00BFA44A0020A04A002010B5012037
:10C78000FFF7E9FF044B00221A701C46237813B907
:10C79000FFF7E3FFFAE710BDA44A0020104B202268
:10C7A000C3F808250F4A402082F811034FF40030E7
:10C7B000C2F88001106002F1C04202F5415200202F
:10C7C000106082B012680192019A4FF48032C3F86F
:10C7D00004230122C3F840151A6002B0704700BF5D
:10C7E0000010014000E100E010B50446FFF7D6FF5D
:10C7F0002046BDE81040FFF7C1BF000038B51D4618
:10C80000084BFF290C461A600AD00846022103F0A3
:10C810001FF920462A460449BDE8384003F090B885
:10C8200038BD00BFA04A002061C7010007B50A4A11
:10C8300001231370094A0021116012680192019AC4
:10C84000074A136042F8043C064B1B6803B1984743
:10C8500003B05DF804FB00BFA44A00204011014072
:10C8600008100140A04A00200160828070470068E3
:10C8700070478088704729DF704728DF70474B1C5E
:10C880004FF0805310B514BF1A6959695C6918BF1D
:10C89000B1FBF2F11A695B69611A023B591A514303
:10C8A000016010BD03681868013018BF012070478F
:10C8B0004FF0805310B51B690468B4FBF3F42046B5
:10C8C000FFF7DBFF1128FAD06420BDE8104003F029
:10C8D00085B970B51E4605460C46FFF7E9FFB60858
:10C8E000286821463246FFF7C6FF1128F8D0642099
:10C8F000BDE8704003F072B910B5046800229A4296
:10C9000003D2A05888500432F9E710BD07B50023C0
:10C910006946062204300093ADF8043006F0C2FDEB
:10C92000003018BF012003B05DF804FB043006227C
:10C9300006F0C7BD04300021062206F0CBBD10B5BD
:10C9400004460160FFF7F6FF204610BD75DF704713
:10C950007EDF70477FDF704785DF704786DF704777
:10C960008ADF704790DF704792DF704799DF70472A
:10C97000A9DF704761DF704762DF704738B5044652
:10C9800000F5836528461022002106F0A3FD94F8E7
:10C990001834227C62F3000384F818346389A4F805
:10C9A0002034A389A4F82234E389A4F82434284647
:10C9B000BDE83840FFF7D4BF2DE9F0470446DAB0B0
:10C9C0000D4659B94FF48E7313A80BA9ADF82C304E
:10C9D000FFF7D0FF002840F03B8413AD2B881A2BC3
:10C9E00000F075831FD8132B00F057810FD8102B40
:10C9F0005ED0112B00F0F380012B40F029842A7ABD
:10CA000094F85D34134484F85D3400F021BC152B98
:10CA100000F0EE8330D3172B00F00284192B00F0C6
:10CA2000D38300F015BC362B00F06A8207D8302B78
:10CA30001ED0322B18D01D2B40F00A8420E0392B59
:10CA40000ED004D8382B00F0C68200F001BC502B69
:10CA500000F04B83522B08BF002600F06781F7E3FC
:10CA600094F82924002309E394F829140023CCE145
:10CA700094F82924002368E194F8291400238BE317
:10CA800005F114070FCF6E460FC697E8070086E83A
:10CA9000070004F55778083595E80E00404600F089
:10CAA00057FDD4F8EC33002B00F0D28340461DE252
:10CAB000002394F829242372D9B2914208D2013379
:10CAC00004EB4300B0F806644FF6FF708642F3D1E2
:10CAD0007822AF8802FB01F604EB4105A01904F5AA
:10CAE0005771A5F80874143006F0EBFC384609A914
:10CAF000FFF742FF9DF8243084F85D34D4F8D43336
:10CB000013B1A01914309847B4F82A24052A14D96F
:10CB1000B4F82C34B3F5486F0FD8ADF82E3000239D
:10CB2000ADF83030B5F80804ADF82C204FF4C873D8
:10CB30000BA9ADF83230FFF709FF94F838352BB167
:10CB4000B5F8080401210022FFF70CFF94F82E34F9
:10CB5000B3B304F58660FFF7A5FE064640B1D4F8EE
:10CB60005024B5F8080402F11201FFF7F5FE27E0A2
:10CB7000314605220BA806F0ADFC9DF82F3094F845
:10CB80005424B5F8080443F001038DF82F309DF8C4
:10CB90002C3043F0010366F3820362F3410394F8FF
:10CBA000552462F3061366F3C7138DF82C30072360
:10CBB0008DF82D300BA910238DF82E30FFF7C8FE0D
:10CBC00094F8283494F829240133DBB29A4284F88B
:10CBD000283440F23D832046FFF7D0FE38E301239E
:10CBE00094F8292423720023DEB2964208D204EB83
:10CBF0004301A888B1F80814884203F10103F3D176
:10CC000006F501734FF6FF7224F8132094F82834C8
:10CC1000013B84F82834D4F8F033002084F85D0414
:10CC20000BB1297A9847D4F8D83323B1782202FB84
:10CC3000064014309847002594F838359D420BDAA9
:10CC4000D4F83C350C2202FB0530083000210422C8
:10CC500006F040FC0135EFE794F8285445B1002375
:10CC600084F848352046FFF789FE03232372EFE25C
:10CC700094F841359D42F2DAD4F8440518266E4303
:10CC8000304414300021012206F024FCD4F844354D
:10CC90001E440023F3820135EAE794F82E34002B7A
:10CCA00000F0D68209A80021052206F013FC9DF8A9
:10CCB000273094F8542443F001038DF827309DF871
:10CCC000243043F0010303F0FB0362F3410394F8C3
:10CCD000552462F306136FF3C7138DF8243007232E
:10CCE0008DF825300BA81023002120228DF8263046
:10CCF00006F0F0FB0021D4F850340B93A8880F9174
:10CD00000A460BAB109111910C910D91FFF722FE89
:10CD10009EE203F50173A88834F81330984204D1D9
:10CD200000210A460B46FFF723FE013694F829241A
:10CD3000F3B29A42EDD88BE204EB4301A888B1F834
:10CD40000814884203F1010302D0DEB29642F3D305
:10CD5000E98871BBB5F80CE02B4671451CDA94F8F4
:10CD600038C50022624514DAD4F83C0593F81080E7
:10CD70000C2707FB0207B879804508D1B3F80E806D
:10CD8000B888804503D1D3F81200B86001E00132C1
:10CD9000E8E701310833E0E705EBCE0506F501765B
:10CDA000A98934F81600013189B20022FFF7DAFDB3
:10CDB0004EE240F20113994217D194F8380500234E
:10CDC000834280F24582D4F83C250C2101FB0321EB
:10CDD0000A8942B14A8932B106F5017684F84035B4
:10CDE00034F8160077E00133EAE7D4F8F033002B8B
:10CDF00000F02E82022081E004EB4300AE88B0F800
:10CE00000804864203F1010302D0DAB28A42F3D366
:10CE1000E988002941D194F84035D4F83C65B5F84B
:10CE20000CE003EB430306EB83039B680B93714514
:10CE30002BDA002094F84135984220DAD4F84435B2
:10CE4000182707FB003394F8407507EB470756F89F
:10CE500027C05F68BC4510D195F810C09F7CBC45C9
:10CE60000BD1B5F80EC01F8ABC4506D1AF7C1F752B
:10CE7000EF8ADF82134401271F720130DAE7EB8A61
:10CE8000ADF82C3001310A35D1E702F501720BA95A
:10CE900034F81200FFF768FDDAE1B1F5857F27D19C
:10CEA00094F8403594F8385501330C20584301E08C
:10CEB00001330C30AB4210DAD4F83C1501440E8932
:10CEC000002EF5D04E89002EF2D002F5017284F8C2
:10CED000403534F812000831DCE7D4F8E033002B99
:10CEE00000F0B681782101FB024014309847AFE191
:10CEF000D4F8F033002B00F0AB8103209847A7E172
:10CF0000002684F84865E98840F20513994236D135
:10CF100094F82E34002B57D005220BA8314606F08A
:10CF2000D9FA9DF82F3094F8542443F001038DF87A
:10CF30002F309DF82C3043F0010303F0FB0362F324
:10CF4000410394F8552462F3061366F3C7138DF872
:10CF50002C3007238DF82D3010238DF82E3094F8C7
:10CF60002934F2B29A4280F0738104EB4602A88819
:10CF7000B2F80824904206F10106F2D15CE019BB38
:10CF8000AF8994F82934CAB29A4208D204EB41001E
:10CF9000AE88B0F80804864201F10101F3D194F89B
:10CFA00041650023B34280F25381D4F84415182020
:10CFB00000FB0310C18AB94204D1782303FB02416C
:10CFC00000687DE00133EDE7D4F8F033002B00F08A
:10CFD0003F81042092E7002684F84865E98840F202
:10CFE0000513994237D194F82E34BBB305220BA810
:10CFF000314606F06FFA9DF82F3094F8542443F030
:10D0000001038DF82F309DF82C3043F0010303F01D
:10D01000FB0362F3410394F8552462F3061366F3AD
:10D02000C7138DF82C3007238DF82D3010238DF881
:10D030002E3094F829340BE00BA9FFF789FC07E1A7
:10D0400004EB4602A888B2F808249042F4D00136D6
:10D050009E42F5DBFCE0002900F0FA80D4F8F033C2
:10D06000002B00F0F580052048E704EB4301A88879
:10D07000B1F80814884203F1010302D0DEB29642EF
:10D08000F3D3AB7BAF89022B06D106F5017339468A
:10D0900034F81300FFF76AFC94F84115002300E010
:10D0A00001338B4280F2D480D4F84425182000FB51
:10D0B0000322D08AB842F3D17823106803FB0641DB
:10D0C000143105F112022B7C00F08EFEC0E02B7AA9
:10D0D00003F00F03012B40F0BB80D4F8DC33002BAE
:10D0E00000F0B68004F1140000E7B5F806A094F84B
:10D0F000292400235FFA83F9914508D204EB430108
:10D10000A888B1F80814884203F10103F2D14FF066
:10D11000000894F80134984580F29A801423D4F8DA
:10D12000042403FB08F3D618318951450AD178232A
:10D1300003FB094130682B7C143105F1120200F029
:10D1400003F985E0B18951451AD1A97CEF7CD0580B
:10D1500041EA072707F00101C7F340070029777468
:10D16000317418BF012700F0FFF8874208D07823F8
:10D1700003FB0941306814313A4600F005F967E0D5
:10D1800008F10108C5E704EB4300AE88B0F80804D5
:10D19000864203F1010302D0DAB28A42F3D3D4F813
:10D1A00050142B8A488A984202F5017304D1002258
:10D1B00034F81300134604E0002134F813000A4643
:10D1C0000B46FFF7CBFB43E0297A61B994F82E3484
:10D1D000002B3DD004F5866004F2344100221C236C
:10D1E000FFF777FB34E0D4F8F0338BB3012085E60A
:10D1F000062204F2564005F1080106F062F9D4F85F
:10D20000E4232AB394F8291400238B4220DA04EB98
:10D210004300B0F80864A888864214D00133F4E7CC
:10D22000D4F8E823A2B194F82904002300E00133E4
:10D2300083420DDA04EB4301B1F80864A988B142D6
:10D24000F5D1A4F81614782101FB0340143090475F
:10D250005AB0BDE8F087807A7047C0687047007C9C
:10D26000704700207047C368585C704770B5056808
:10D2700004460E46ED6911461A46A8470123A374D9
:10D28000A36913B130462146984770BD036870B555
:10D29000044608460D46DE6906F0EEF92946C2B29C
:10D2A0002046B04770BD0000044B10B50446036033
:10D2B000C06808B106F0EEF8204610BDF85B020029
:10D2C00010B50446FFF7F0FF204605F087FB204627
:10D2D00010BD10B5837A04469A4228BF1A460274DC
:10D2E000C06806F0EEF8606920B1036821461B684B
:10D2F000984710BD012010BD70B504461646043095
:10D3000042F603021D4600F0D5F80D4B23600021C4
:10D31000142D34BF2B461423A372E160217466746C
:10D32000A174E174616104F118000C2206F0D2F8D6
:10D330001DB1A07A06F0A6F8E060204670BD00BFDF
:10D34000F85B0200407C704770B5056804460E46E5
:10D35000ED6911461A46A8470123A374636A13B105
:10D3600030462146984770BDC07C7047002A08B5FA
:10D37000C27414BF07220822034650F8222012B1BB
:10D3800008461946904708BD002A08B5C27414BF64
:10D390002422282202440346526812B10846194644
:10D3A000904708BD0C293CBF063140F8212070474A
:10D3B00041617047014B0360704700BF285C020069
:10D3C00000697047007D70470369585C7047000032
:10D3D00010B5034B0360044605F000FB204610BD6A
:10D3E000285C020038B50446154604304FF4245238
:10D3F00000F060F8044B23602561284606F03CF9F4
:10D400002075204638BD00BF285C02007047704779
:10D410007047002070477047704700207047002019
:10D4200070470020704700207047002070470020A0
:10D430007047002070470020704700207047002090
:10D440007047002070470020704770477047704752
:10D45000014B0360704700BF485C020010B5034BEE
:10D460000360044605F0BAFA204610BD485C02008D
:10D470000E4B70B503604FF6FF7383806423002565
:10D480000446C38001260323058145810673457345
:10D490008373294606220F3006F01CF884F82060BA
:10D4A0006575A561E561204670BD00BF485C02005E
:10D4B000C161704710B50446FFF7D6F9024B1A78E0
:10D4C00001321A70204610BDA54A0020014B187881
:10D4D000704700BFA54A0020014B1860704700BF8D
:10D4E000A84A002010B5044602F0F0FAA08802F025
:10D4F0005FFB012806D10B4B186848B1214600F0AC
:10D5000037F905E0022803D1074B186820B910BD90
:10D5100023881D2BF8D010BD2146BDE81040FFF731
:10D520004BBA00BFA84A0020AC4A0020024B186842
:10D53000003018BF01207047A84A00200A4603495E
:10D5400003460868194600F071BA00BFA84A0020D7
:10D5500084B0F0B506AF87E80E003D4600F15004F8
:10D5600006460FCD0FC40FCD0FC495E8030084E825
:10D5700003000023FA185278F2540133062BF9D134
:10D580009DF82020C2F3C403D9B286F825300023C9
:10D59000D8B2884205D2FC18F018647A847101333D
:10D5A000F6E7C2F3410386F82630C2F300029DF885
:10D5B0001F3086F8272086F82830BDE8F04004B0F8
:10D5C000704708B5006903681B6A984708BDA0F159
:10D5D0000400FFF7F6BF08B5006903685B6A984767
:10D5E00008BDA0F10400FFF7F6BF08B500690368A5
:10D5F0009B6A984708BDA0F10400FFF7F6BF08B585
:10D6000000690368DB6A984708BDA0F10400FFF7D2
:10D61000F6BF08B5006903681B6B984708BDA0F109
:10D620000800FFF7F6BF08B5006903685B6B984711
:10D6300008BDA0F10800FFF7F6BF08B50069036850
:10D640009B6B984708BDA0F10800FFF7F6BF10B527
:10D6500000690468E46BA04710BDA0F10800FFF763
:10D66000F6BF08B5006903681B6C984708BDA0F1B8
:10D670000800FFF7F6BF08B5006903685B6C9847C0
:10D6800008BDA0F10800FFF7F6BF08B50069036800
:10D690009B6C984708BDA0F10800FFF7F6BF08B5DE
:10D6A00000690368DB6C984708BDA0F10800FFF72C
:10D6B000F6BF08B5D0F8D83113B100F5E27098473D
:10D6C00008BD08B5D0F8DC3113B100F5E270984719
:10D6D00008BD08B5D0F8E03113B100F5E270984705
:10D6E00008BD08B5D0F8E43113B100F5E2709847F1
:10D6F00008BD10B5D0F8E84114B110461946A0474E
:10D7000010BD10B5146800F5E271646A10461A463F
:10D710009DF80830A04710BD70477047704738B576
:10D72000054600F5E27420461146FFF7FFF8D5F8EC
:10D73000D0310BB12046984738BDD0F8D43110B560
:10D7400000F5E2740BB1204698472046BDE8104032
:10D75000FFF7F0B800F5E27110461A46FFF706BE73
:10D7600000F5E27110461A469DF8003000F02ABB21
:10D7700008B500690368DB68984708BD08B500690B
:10D7800003681B69984708BD38B5D0F8E4300446F3
:10D790000D463BB900F0E6FA00B2800005F072FEDB
:10D7A000C4F8E40094F8E820D4F8E43043F82250B8
:10D7B00094F8E830013384F8E83038BD10B5002122
:10D7C0000446FFF7D5FF04F5E270BDE81040FFF70F
:10D7D0009DB810B50446FFF779FE00B2800005F051
:10D7E00051FE04F1EC03C4F8DC000360D4F8DC3033
:10D7F00004F1F8025A60D4F8DC3004F594729A60AF
:10D80000D4F8DC3004F5AA72DA60D4F8DC3004F520
:10D81000B0721A61052384F8E03010BD70B5D0F8FD
:10D82000DC3086B004460BB9FFF7D3FF002594F82F
:10D83000E0309D4213DAD4F8DC3053F825603046EE
:10D84000FFF717F842F60303984206D10EB1301FD6
:10D8500000E03046211DFFF7ABFD0135E7E700256D
:10D8600094F8E8309D4214DAD4F8E43053F8256097
:10D870003046FEF7FEFF42F60303984207D10EB191
:10D88000301F00E0304604F1080100F0BFFA013516
:10D89000E6E74BB1204604F5C671FFF775FF204659
:10D8A00004F5CC71FFF770FF206994F8B810056893
:10D8B00094F8D93004F1B9020092D4F8DC20019236
:10D8C00094F8E0200292D4F8E420039294F8E8203F
:10D8D0000492AD6804F19802A847206903681B6DA3
:10D8E000984706B070BD38B5D0F8DC3004460D4618
:10D8F0000BB9FFF76EFF94F8E020D4F8DC3043F862
:10D90000225094F8E030013384F8E03038BDFFF75E
:10D91000EABF2DE9F0410F46194690F8B8301B2BAD
:10D92000144608D8C3F11C03934204DB00F19802AB
:10D9300000F1B8050BE090F8D9301C2B49D8C3F1A1
:10D940001D03A34245DB00F1B90200F1D905002611
:10D95000935D02EB060863B398F80100B84205D066
:10D9600001331E44F6B21E2EF2D922E00A2F01D056
:10D97000192F06D1B01C10442246BDE8F04105F035
:10D98000A0BD2F78274498F8000030440130013FB3
:10D9900003199F4203DB131BDB5DD355F3E71044F0
:10D9A000224605F08EFD98F80030234488F80030B8
:10D9B0000CE02B78601CD0542B7813445F702878CF
:10D9C00002301044224605F07CFD02342B781C44C2
:10D9D0002C70BDE8F08170B586B00546684600F051
:10D9E0006CFB684600F09BFB03280446684634BF86
:10D9F0000226062600F091FB3146034622462846C1
:10DA0000FFF787FF06B070BD70B5054608460C46A7
:10DA100005F032FEC2B21D2A2846234692BF0921D4
:10DA200008211D22BDE87040FFF773BF012938B5FA
:10DA3000134604D1036801699B68984738BD0229E1
:10DA400004D1016801228D690169A84738BD000031
:10DA5000154B10B503F17402036004468C33426029
:10DA60008360FFF78BFED4F8E40008B105F012FDE7
:10DA7000D4F8DC0008B105F00DFD04F5CA7000F023
:10DA800077F904F5AE70FFF70FFC04F59270FFF71D
:10DA90000BFC04F1F400FFF707FC04F1140001F0A3
:10DAA00033F8204610BD00BF886A020010B5044656
:10DAB000FFF7CEFF204604F091FF204610BD37B59A
:10DAC00002AC054624F8021D022223461921FFF765
:10DAD00020FF05F5927021460222FFF7FAFB03B002
:10DAE00030BD00002DE9F843784B794F794E03F1B2
:10DAF0000802026003F17C02943383604FF010232C
:10DB000004464260596904F114090C300025FEF7FF
:10DB1000B6FE484601F048FC04F1F40884F8B85019
:10DB200084F8D950C4F8DC5084F8E050C4F8E450CC
:10DB300084F8E85004F1EC00674900F0B6FA40467A
:10DB4000664902221323FFF7D7FB0222134604F58E
:10DB500092706349FFF7D0FB394604F5AA7000F0D4
:10DB6000A4FA04233146202204F5AE70FFF7C4FB6B
:10DB7000394604F5C67000F04BF95A4F3146202261
:10DB800004F5CA7000F004F9214604F5E270FEF7CE
:10DB9000D6FE3946C4F8E85104F5F670FC2205F0CB
:10DBA00090FC07F1FC0104F53A704FF4806205F037
:10DBB00088FC294604F5DD60682205F08BFC4A4BA1
:10DBC000C4F8E836494BC4F8EC36494BC4F8F03693
:10DBD000484BC4F8F436484BC4F8F836474BC4F801
:10DBE000FC36474BC4F80037464BC4F80437464B65
:10DBF000C4F80837454BC4F80C37454BC4F8103708
:10DC0000444BC4F81437444BC4F81837434BC4F89A
:10DC10001C37434BC4F82037424BC4F82437424BDF
:10DC2000C4F82837414BC4F82C37C4F83437404B7C
:10DC3000C4F838373F4BC4F83C373F4BC4F8403743
:10DC40003E4BC4F844373E4A3E4BC4F8302707F2F7
:10DC5000FC47C4F848370FCF04F5EA660FC697E8CB
:10DC60000300182286E803002946C4F8109004F542
:10DC7000E87005F02FFC294604F19800202205F0F9
:10DC800029FC2022294604F1B90005F023FC0223D7
:10DC900084F89830012384F89930062384F89A3068
:10DCA000032384F8B83040462749FFF7EFFA2046AF
:10DCB0002946FFF704FF20692146FFF7F9FB2046BC
:10DCC000FFF70AFC2046BDE8F88300BF806A020027
:10DCD000DE610200E3610200CF610200D461020054
:10DCE000D9610200A85C0200E8610200F061020054
:10DCF000FE6102001C620200406202005E620200DD
:10DD00007D620200A0620200C7620200F4620200AB
:10DD10000E630200436302006D6302009863020019
:10DD2000E1630200156402003364020052640200E1
:10DD3000B5640200D8640200F96402006465020060
:10DD400075640200A8650200DB65020010B5044698
:10DD5000FEF78AFD024B1A7801321A70204610BD78
:10DD6000B04A0020014B1878704700BFB04A00202D
:10DD7000014B0360704700BF406B020010B5034BBE
:10DD80000360044604F02AFE204610BD406B0200EA
:10DD900038B504461546043042F60302FFF7D6FFB5
:10DDA0000021074B2360A572E17284F822106162A2
:10DDB00004F12800042205F08DFB204638BD00BF89
:10DDC000406B020038B50446C3720D460C30114654
:10DDD0001A4605F076FB012384F82230A36A13B1BA
:10DDE00028462146984738BD38B50446C3720D46CB
:10DDF0000C3011461A4605F064FB012384F82230EA
:10DE0000E36A13B128462146984738BD41627047FE
:10DE100010B54FF420520446FFF798FF204610BD7E
:10DE200010B504460021FFF7A3FCD4F87C07D4F812
:10DE30008037C01AC0B210BDA0F55A70A0F580603E
:10DE4000FFF7EEBF10B504460021FFF791FCD4F8B0
:10DE50008037D4F87C2793421ABFE41894F88407DB
:10DE60004FF0FF3010BDA0F55A70A0F58060FFF7AD
:10DE7000E9BF10B504460021FFF77AFCD4F88037DB
:10DE8000D4F87C27934207D00133DBB2C4F8803743
:10DE90001C4494F8840710BD4FF0FF3010BDA0F56E
:10DEA0005A70A0F58060FFF7E4BFFFF787BC38B574
:10DEB00004460D460021FFF75BFC04F60410FFF753
:10DEC00053FA80B1D4F88428531C2244142BC4F88C
:10DED000843882F8885801D00A2D03D1236820465F
:10DEE0009B6F9847012038BDA0F55A70A0F580605F
:10DEF000FFF7DDBF2DE9F0410446FFF7F3FD4FF4D6
:10DF00007A73C4F87037374B374E384903F108023B
:10DF1000226003F19402002504F69C07626003F17D
:10DF2000AC02D433C4F86837A260C4F86C573846E2
:10DF300000F0BBF804F6BC08314604F6A4002C4AF5
:10DF4000FFF750FA142340462A490422FFF7D4F978
:10DF5000314604F6EC00284AFFF744FA142304F68D
:10DF6000041026491022FFF7C7F9254A314604F666
:10DF70003410FFF737FA234BC4F88458204639464B
:10DF8000C4F88057C4F87C57C4F878571C60FFF772
:10DF9000BEFC04F6A8012046FFF7B9FC3846FEF7A0
:10DFA00066FC01462046FFF716FD204604F50C618D
:10DFB000FFF7ADFC204604F50F61FFF7A8FC124AFD
:10DFC00040462946FFF7EEF9204604F60811FFF710
:10DFD0009EFC204604F63811FFF799FC2046BDE868
:10DFE000F08100BFF86B02006D6B0200486B02000D
:10DFF000D05B0200726B0200976B0200B16B0200F3
:10E00000D66B0200B44A002041E001000FB408B50D
:10E010000298FFF703FCBDE8084004B0704730B534
:10E02000002393420BD0D0F87C470134E4B2C0F80F
:10E030007C470444CD5C84F884570133F1E730BD5C
:10E04000094B70B51D680B680C460846DB6898479D
:10E05000236806461B6920469847314602462846F3
:10E06000BDE87040FFF7DBBFB44A0020D0F8842839
:10E0700010B5044692B104F68801D2B200F604103D
:10E08000FFF727F901F0C0FA0021C4F87807C4F8B7
:10E0900084182046BDE81040FFF76ABB10BDA0F50C
:10E0A0005A70A0F58060FFF7E1BF10B54FF4205221
:10E0B0000446FFF7FFF9204610BDF7B504460023DC
:10E0C0002160037508460E468DF804308DF8053042
:10E0D0008DF8063005F0D0FA451E002D1ADB277D9D
:10E0E0000F2F17D8735D2D2B01D1013510E0721958
:10E0F00001A812F8012C8DF80420002110228DF8BF
:10E10000053005F039FB237D274401333871237531
:10E11000023DE2E7204603B0F0BD04307047007DC9
:10E12000704771DF704772DF704773DF704775DFCC
:10E13000704776DF704777DF704778DF70477ADFA8
:10E1400070477CDF70477EDF704790DF704792DF5B
:10E15000704796DF704798DF704799DF7047A0DF00
:10E160007047A2DF7047A3DF7047A4DF7047A6DFC8
:10E170007047A9DF704760DF704761DF704762DF7B
:10E18000704763DF704753DF704710DF704711DF60
:10E19000704790F86800003018BF0120704790F871
:10E1A0006800003018BF0120704770B590F87960A2
:10E1B00002460023B34212DA1801D56F2C182858F2
:10E1C00088420AD1E08958B1207BC0F3400038B1C1
:10E1D00092F8800080F0010070BD0133EAE7002072
:10E1E00070BD70B590F879600023B34219DA1C0154
:10E1F000C56F2A192C598C4211D1D18999B1137B41
:10E20000C3F340038BB1012380F880300022808863
:10E21000FFF79FFFD0F1010038BF002070BD013330
:10E22000E3E7002070BD084670BD184670BD70B5AC
:10E2300090F8796003460022B2421ADA1001DD6FCD
:10E240002C182858884212D1E08998B1207B020707
:10E2500004D593F8800080F0010070BDC0F3800009
:10E2600040B193F86800003018BF012070BD013242
:10E27000E2E7002070BDF0B590F879C085B00024C9
:10E2800064452FDA2601C76FBD19BE598E4227D1CA
:10E29000EC894CB32D7B15F00C0127D090F8681059
:10E2A00021B315F0080F0CBF02250125ADF80A3087
:10E2B0000139012380F8803080F868108DF804500F
:10E2C0008088ADF80640002501A98DF80550ADF80D
:10E2D00008500392FFF73FFF431B5842584106E0A6
:10E2E0000134CDE7002002E0204600E0084605B0FA
:10E2F000F0BD70B590F879600023B34210DA1C01CC
:10E30000C56F2A192C598C4208D1D08948B1137B8A
:10E3100013F0300F0CBF0020012070BD0133ECE77B
:10E32000002070BD7FB590F879600023B3422FDAEA
:10E330001C01C56F2A192C598C4227D1D3894BB3A4
:10E34000127B12F0300127D0012112F0100F0B4484
:10E350000CBF02220A46ADF80630022380F8801076
:10E36000ADF802208DF804100022ADF80A30808844
:10E370008DF805206B4401A9ADF808200393FFF741
:10E38000EAFED0F1010038BF002006E00133CDE7FE
:10E39000002002E0184600E0084604B070BD08B551
:10E3A00003681B6C984708BD7FB590F8796000231F
:10E3B000B3422BDA1C01C56F2A192C598C4223D188
:10E3C000D3892BB3127B12F030014FF0000221D021
:10E3D00001210B44ADF80630022380F880108DF83F
:10E3E0000410ADF80A308088ADF802206B4401A912
:10E3F0008DF80520ADF808200393FFF7ACFED0F1AF
:10E40000010038BF002006E00133D1E7002002E020
:10E41000184600E0084604B070BD11F1270F08B59A
:10E4200014DB11F11D0F14DB11F1130F14DB11F1CB
:10E430000F0F14DB11F10B0F14DBCA1D15DBCB1C06
:10E4400016DB0029CCBF0420002013E06FF027006A
:10E4500010E06FF01D000DE06FF013000AE06FF0A8
:10E460000F0007E06FF00B0004E06FF0070001E021
:10E470006FF00300FFF75FFED0F1010038BF00200E
:10E4800008BD80881321FFF754BE37B5044668469F
:10E49000FFF747FEE06928B102682146956A0DF151
:10E4A0000102A84703B030BD13B5044602A80022FC
:10E4B00040F8042DFFF767FE019804F015FC0022D8
:10E4C000074B04F077FC04F057FF00EE100AE069F8
:10E4D00018B102682146D26A904702B010BD00BF51
:10E4E0000000D03F704710B5044686B06846002152
:10E4F000182204F0EFFF237B002B4FF000030CBF2A
:10E5000003221A468DF80020E28801930A211201A5
:10E5100092FBF1F268468DF808300393ADF81020B5
:10E52000ADF81230FFF701FE06B010BD2DE9F04145
:10E53000054690F869008EB00C460023834260DAED
:10E5400014225A43E96E8E188A58A24207D12046F7
:10E55000FEF7F8FEC30754D5736813B951E00133D1
:10E56000ECE795F8407005F121013A4606A804F061
:10E57000A8FF236820461B69984704300744FFB270
:10E580001F2F3ED87068FEF772F901466846FFF704
:10E5900094FD236895F840601B69204698470EABB0
:10E5A0001E44033006F8200C95F8406033441622D0
:10E5B000684603F81F2CFFF7B0FD06AB0146B01C00
:10E5C0000222184404F07DFF95F8408006AB08F164
:10E5D0000408984423682046DB6898472368064669
:10E5E0001B692046984731460246404604F069FFC1
:10E5F000002206A839461346FFF795FD6C640120FA
:10E6000000E000200EB0BDE8F0812DE9F0430446A3
:10E61000CDB00D4659B94FF48E7305A803A9ADF8D6
:10E620000C30FFF7AAFD002840F0528205AD2B8880
:10E63000302B00F00B810ED8112B5AD004D8012BAF
:10E640001ED0102B23D043E2152B00F02982172B6C
:10E6500000F032823CE2382B00F0C68106D8322B23
:10E6600000F03E81362B00F09D8131E2502B00F00E
:10E67000A480522B00F0E380392B40F02982EDE199
:10E680002A7A94F86830134484F8683020E2002332
:10E6900084F82030A888A08003A9FFF770FDE06906
:10E6A0009DF80C3084F8683028B1036821461B6857
:10E6B00005F1090298472289052A12D96389B3F521
:10E6C000486F0ED8ADF80E300023ADF81030A0889A
:10E6D000ADF80C204FF4C87303A9ADF81230FFF762
:10E6E00026FD94F87030002B00F0F281A088012103
:10E6F000D4E04FF6FF73A3800026012384F86860FE
:10E7000084F8203094F869309E421BDAD4F86C907B
:10E710004FF0140808FB06F809EB080300271F74E4
:10E720005F7459F80800FEF71FFE48B1E06938B180
:10E73000036859F80820D3F820C021463B46E0473B
:10E740000136DFE7E06950B1036821469E692B7A04
:10E750000022B047E069036821465B6898470025BE
:10E7600094F870309D420ADA636F0C2202FB053088
:10E7700008300021042204F0ADFE0135F0E7002549
:10E7800094F879309D420DDAE06F2E0130440C3060
:10E790000021012204F09EFEE36F1E440023F3815A
:10E7A0000135EDE7002384F88030236820469B691B
:10E7B0009847022384F820308AE1B5F806904FF09C
:10E7C000000894F86930984580F282811423E26E43
:10E7D00003FB08F3D618318949450DD1E0690028BB
:10E7E00000F0768103682A7C0092DF693268214656
:10E7F00005F11203B8476BE1B18949451CD1A97CE9
:10E80000EF7CD05841EA072707F00101C7F3400722
:10E8100000297774317418BF0127FEF7A5FD8742E0
:10E820000AD0E069002800F05381036832681D6A4D
:10E8300021463B46A8474BE108F10108C1E700210A
:10E84000A0880A460B46FFF794FC41E1EB884BBBDE
:10E85000AF892A46BB421BDA94F870E0002171456B
:10E8600013DA606F92F810C00C2606FB0106B0792F
:10E87000844508D1B2F80EC0B088844503D1D2F8DF
:10E880001200B06001E00131E9E701330832E1E74D
:10E8900005EBC705A088A989013189B20022FFF7DD
:10E8A00054FC15E140F20112934210D194F870002B
:10E8B0000023834280F20C81626F0C2101FB032153
:10E8C0000A8912B14A89002A5DD10133F1E7E06972
:10E8D000002800F0FD8002682146956902225FE071
:10E8E000EB88002B37D194F87820606FAF8902EB6A
:10E8F000420200EB820292680392BB4226DA0021B8
:10E9000094F8792091421BDAE26F94F8786002EB78
:10E91000011206EB460650F826E05668B6450DD1C2
:10E9200095F810E0967AB64508D1B5F80EE016894C
:10E93000B64503D1AE7C1673EE8AD6810131DFE78E
:10E94000EA8AADF80C2001330A35D6E7A08803A97E
:10E95000FFF7FDFBBCE0B3F5857F19D194F8783063
:10E9600094F8700001330C225A4301E001330C3259
:10E97000834280F2A880616F11440D89002DF5D08B
:10E980004D89002DF2D084F87830A0880831DFE777
:10E99000E069002800F09C80026821469569032206
:10E9A000A84795E0002684F88060EB8840F20512C5
:10E9B000934202D1A2690ABB0EE06BB9A88994F810
:10E9C00079108B4280F28480E26F02EB0312D689C9
:10E9D00086424FD00133F4E7E069002878D002681E
:10E9E000214695690422DBE7002684F88060EB88E5
:10E9F00040F20512934227D1A2693AB3314603A8E7
:10EA0000052204F067FD9DF80F30627BA08843F07B
:10EA100001038DF80F309DF80C3043F0010303F033
:10EA2000FB0362F34103A27B62F3061366F3C71391
:10EA30008DF80C3007238DF80D3003A910238DF8C5
:10EA40000E30FFF780FB43E0002B41D0E069002847
:10EA50003ED00268214695690522A1E7AB7BAE89CD
:10EA6000022B03D1A0883146FFF777FB94F8791089
:10EA7000002312E0E06958B30368297C00915E6AC4
:10EA80001268214605F11203B04721E0E26F02EB64
:10EA90000312D089B042EDD001338B42F6DB17E090
:10EAA00004F10F0005F10801062204F00AFDE069F7
:10EAB00070B103681B6903E0E06948B103685B69F2
:10EAC0002146984704E0E06910B10368DB68F7E786
:10EAD0004DB0BDE8F08310B50446FFF758FBE06F7A
:10EAE00008B104F0D7FC606F08B104F0D3FCE06E0D
:10EAF00008B104F0CFFC002384F8693084F870304A
:10EB000084F8793010BD000010B5054B0360044651
:10EB1000FFF7E1FF2046FEF79BFC204610BD00BF3B
:10EB2000F86C020010B50446FFF7EEFF204603F034
:10EB300055FF204610BD13B51288ADF800200446DD
:10EB4000ADF802106A4621464FF6FF700193FFF7B9
:10EB50000CFB02B010BD00002DE9F04F9B46BE4BF0
:10EB6000E7B0044618680A900E46924600219DF8C8
:10EB7000C82103920AA8DDF8C4819DF8D071FFF77F
:10EB800004FB1422B54B0B9300210FA804F0A2FC48
:10EB90000A23ADF83C309DF8483043F001030025CE
:10EBA0000BA98DF848300FA801238DF84430139538
:10EBB0008DF845508DF84650FFF7DDFA2823ADF863
:10EBC00034305023ADF836300DA84FF4C873ADF88B
:10EBD0003A3004F12109ADF83850FFF7B0FA284671
:10EBE000FFF7A9FA51463246484604F06AFC84F819
:10EBF000406048463146709A5B46FFF794FA2846D3
:10EC0000FFF79BFA039B9D420EDA58F82500FDF7AB
:10EC100030FE42F60303984204D194F86930013380
:10EC200084F869300135EDE794F869000338C0B223
:10EC300084F8690000EB8000800004F023FC0026CB
:10EC4000A8F10402E066ADF81C6002920496B0469A
:10EC5000039A964280F20182029B53F8045F02936A
:10EC60002846FDF704FE014619A8FFF726FA19A861
:10EC7000FFF753FA814619A8FFF751FA02280BD182
:10EC800099F8012099F8003043EA0223ADF83030BA
:10EC900001238DF8323016E04946102226A804F0F0
:10ECA00010FC99F80D2099F80C3043EA0223ADF8D6
:10ECB000303026A800230DF132018DF8A5308DF8F3
:10ECC000A430FFF75EFA2846FDF7D3FDB0F5205FCC
:10ECD000284611D1FDF7CBFD614904F0C3FC0028A3
:10ECE00000F0B9812846FDF7C2FD5E4904F0BAFC88
:10ECF000002800F0B0816FE2FDF7BBFD42F6030390
:10ED0000984240F07A8105B1043D05F10409484676
:10ED1000FDF7ADFD544904F0A5FCB8B99DF8983055
:10ED2000012262F3030362F307138DF898302B6816
:10ED30002846DB6898472B6881461B692846984718
:10ED40004946024626A8FFF7FCF984E14846FDF74C
:10ED50008EFD464904F086FC38B92B682846DB68EE
:10ED600098470088FFF7E9F975E14846FDF77FFD10
:10ED70003F4904F077FC002800F06D812846FEF73B
:10ED8000E1FA20F001008DF81B002B6828461B6972
:10ED90009847E26EADF81E0008EB88014FEA810942
:10EDA00002EB09034FF0000A42F82150049A5A601E
:10EDB00083F810A083F811A051461C221FA804F06C
:10EDC00089FB1FA80DF11B01012204F07AFB9DF8BD
:10EDD0001B30CDF880A013F0300FCDF888A0CDF80F
:10EDE0008CA0CDF890A0CDF894A01FD00DF1200BF1
:10EDF00003225846514604F06DFB9BF80020CDF8E5
:10EE000090B0012363F3030263F307128BF8002031
:10EE10009BF8012063F3030263F307128BF80120D0
:10EE20009BF8022063F342028BF8022009A800211C
:10EE3000032204F04FFB9DF81B3013F0320F22D059
:10EE4000A069B8B1FDF72EFDA0B99DF824300122CC
:10EE500062F30303022212E0E86C0200004000208B
:10EE6000CF610200DE610200D4610200D9610200BC
:10EE7000E36102009DF82430012262F3030362F390
:10EE800007138DF824309DF81B3013F00C0F14D0AD
:10EE9000A06948B1FDF706FD30B99DF82530012283
:10EEA00062F30303022204E09DF82530012262F39D
:10EEB000030362F307138DF825309DF826300122F5
:10EEC00062F3420303F0F7036FF304138DF8263067
:10EED0002B6828469B6998479DF8263080F00100F2
:10EEE00060F300038DF82630029B059306F1010ABA
:10EEF000039B9A4509DA059A52F804BF05925846D1
:10EF0000FDF7B7FCB0F5245F25D00021142214A82A
:10EF100004F0E0FA0CAB149309AB1593BDF81E3066
:10EF2000ADF858302B684FF0000A9B68ADF85AA036
:10EF300028469847E36EADF85C004B4408335046D2
:10EF40001FA914AACDF860A0FFF70BF9BDF81E3079
:10EF5000002B35D14CE0BBF1000F01D0ABF1040B1D
:10EF60000BF1040210460192FDF781FC9E4904F06A
:10EF700079FB019AA0B9DBF80020584692689047C7
:10EF80002090DBF800205846D2689047DBF800203C
:10EF9000ADF88400D26858469047ADF886000CE082
:10EFA0001046FDF764FC914904F05CFB28B9DBF8DE
:10EFB000002058469268904722900AF1010A97E78C
:10EFC000BDF81E309A450ADA2B6851465B6928461F
:10EFD000984726AB03F80A000AF1010AF0E7E36E4E
:10EFE0004B44002118890DF11E0226ABFFF7A3FD4B
:10EFF00008F101085FFA88F82DE02846FDF739FC92
:10F00000B0F5245F27D105B1043D05F10409484658
:10F01000FDF72DFC744904F025FBE0B14846FDF7EF
:10F0200026FC734904F01EFBA8B14846FDF71FFCFF
:10F03000704904F017FB70B14846FDF718FC6B49A6
:10F0400004F010FB38B1D7E0BDF81C00002109AA7C
:10F0500026ABFFF770FD0136FAE50FB1023FFFB2B4
:10F060000025BD421CDA739B53F825603046FDF73E
:10F0700000FCB0F5205F05D194F87030013384F8BE
:10F0800070300BE03046FDF7F4FB42F60303984284
:10F0900004D194F87930013384F879300135E0E710
:10F0A00094F8700000EB4000800004F0EBF960671A
:10F0B00094F87900000104F0E5F90026E067B14614
:10F0C000B046B246BE4276DA739A52F826502846C7
:10F0D000FDF7CDFB014626A8FEF7EFFF26A8FFF7B8
:10F0E0001CF8834626A8FFF71AF802280BD19BF8D4
:10F0F00001209BF8003043EA0223ADF8643001237D
:10F100008DF8663016E0594610221FA804F0D9F990
:10F110009BF80D209BF80C3043EA0223ADF86430D5
:10F120001FA800230DF166018DF889308DF8883015
:10F13000FFF727F82846FDF79CFBB0F5205F15D1B7
:10F14000626F08EB48018B00D01842F82150199AE1
:10F150004260606F184408300021042208F1010861
:10F1600004F0B8F95FFA88F8AA4622E02846FDF7CD
:10F1700080FB42F6030398421BD1E26F4FEA091B62
:10F1800002EB0B0305B1043D42F80B50C3F804A099
:10F19000199A9A60E06F584401220C30002104F063
:10F1A00099F9E36F5B44002209F10109DA815FFA02
:10F1B00089F9013686E7A06920B1FDF773FB0028C5
:10F1C00040F08480236820469B699847022384F896
:10F1D000203067B0BDE8F08F01200CA907AAFEF728
:10F1E000BEFF049537E700BF6D6B0200586D02004B
:10F1F0005D6D0200626D02002B682846DB6898474F
:10F200000DF1500AADF82400002114221FA804F0CB
:10F2100061F900210322504604F05CF99AF80230AB
:10F22000BDF824B04FF0010969F342038AF80230B7
:10F230002B682846DB6898479AF80230BBEB000041
:10F2400018BF012060F30003A0698AF8023010B1F2
:10F25000FDF728FB28B19AF80030012262F303037E
:10F2600004E09AF80030022269F3030362F3071303
:10F270008AF800300CAB1F93CDF880A0BDF8243085
:10F28000ADF884302B682846DB6898474FF00009BA
:10F29000ADF888001FA9484607AACDF88C90FEF764
:10F2A00062FFBDF82430002B3FF4D5AEBDF824300A
:10F2B0009945BFF6C9AE2B6849461B692846984751
:10F2C00026AB03F8090009F10109EFE7A06904F191
:10F2D000480100221C23FDF70FFB73E72DE9F047DF
:10F2E000044686B00D4600264FF0010994F86930B7
:10F2F0009E4254DA14237343E26ED718D358AB42BC
:10F300004BD1636C9D4204D1236820465B6A294639
:10F3100098472B6828461B6998470DF118082B68F9
:10F3200028F8120DDB68B7F808A028469847002196
:10F33000034642465046FFF7FEFB02A8002110227A
:10F3400004F0C8F83B89ADF808300023ADF80C3064
:10F3500005933B7CCDF8108073B194F8683053B1BD
:10F36000013B84F86830A088012302A98DF80A3097
:10F37000FEF7FDFE00E099467B7C73B194F868309F
:10F3800053B1013B84F86830A088022302A98DF8AC
:10F390000A30FEF7ECFE00E099460136A6E7484643
:10F3A00006B0BDE8F087000010B50446FEF760F82F
:10F3B00000210E4B236004F1480084F84010616482
:10F3C00084F8681084F86910E16684F87010616749
:10F3D00084F8781084F87910E16784F8801060660A
:10F3E0001C2204F077F8204610BD00BFF86C020024
:10F3F0007047203000F07FBF203000F08ABF00004F
:10F40000F8B5847E06460F461546DCB10024AC42B2
:10F4100016D03368395D1B6830469847F0B1013427
:10F42000F5E773690022C3F85021EAB2C3F8440536
:10F43000C3F8482501225A63D3F85021002AFBD093
:10F440002846F8BD104604F01DF8054B1860234609
:10F45000AB42E6D0FA5CC2540133F9E72046F8BD6E
:10F46000304C0020203000F05ABF000038B50C4668
:10F47000817E61B1037FDBB100F16805284600F0B1
:10F4800056FFA8B92846214600F026FF0EE0436942
:10F49000084AC3F850111470C3F844250122C3F878
:10F4A00048255A63D3F85021002AFBD0012038BDEB
:10F4B000002038BD744C0020F8B54FF47A73836097
:10F4C0000A4B036000250123044683764560C57618
:10F4D00020300E46174600F0F4FE04F1680000F0FC
:10F4E000F0FE2676677625772046F8BD706D02001F
:10F4F0002DE9F041817E0446002937D14369D3F8D4
:10F50000642152B3C3F86411194AC3F83425402169
:10F51000C3F83815012119639046D3F80421002A55
:10F52000FBD0D3F83C750025FBB29D4204F12006C8
:10F5300006DA18F80510304600F0CEFE0135F3E784
:10F54000D4F8B85025B1236820469B689847A8474F
:10F550003046BDE8F04100F0CABED3F8681129B1C9
:10F56000C3F86821D0F8B43003B19847BDE8F08102
:10F57000344C00200148FFF7BBBF00BF744B002094
:10F5800008B5102111220548FFF796FF0448122103
:10F590001322BDE80840FFF78FBF00BF744B002067
:10F5A000B84A002002480E210F2200F06BBF00BFB6
:10F5B000784C00200B490C4A0C4B9B1A03DD043B92
:10F5C000C858D050FBDC0949094A0020521A02DD14
:10F5D000043A8850FCDC00F037F803F02DFF00F00F
:10F5E00023FD000068770200004000201041002049
:10F5F000BC530020FEE7FEE7FEE7FEE7FEE7FEE77E
:10F60000FEE7FEE7FEE7FEE7014B1868704700BF24
:10F61000D44C0020024B1A6801321A60704700BFB8
:10F62000D44C002070B5044648B1054B1D681E46F9
:10F6300000F008F83268631E521B9A42F8D970BD78
:10F64000D44C002070470000944B1B78062B0AD145
:10F65000934B1B681A0706D1924B1B6803F0F0030B
:10F66000302B00F0AA808D4B1B78062B0FD18C4BD2
:10F670001B681B070BD18B4B1B6803F0F002302A71
:10F6800000F09F8003F0E003402B00F09A80834B52
:10F690001B78062B0AD1824B1B68180706D1814BB9
:10F6A0001B6803F0F003302B00F092807B4B1B783B
:10F6B000062B0FD17A4B1B6819070BD1794B1B68AE
:10F6C00003F0F002302A00F0898003F0E003402BC1
:10F6D00000F08480714B1B78062B09D1704B1B689E
:10F6E0001A0705D16F4B1B6803F0F003302B7FD056
:10F6F0006A4B1B78062B0AD1694B1B6813F00F036A
:10F7000005D1684A126802F0F002302A74D0634BC7
:10F710001B78062B09D1624B1B681B0705D1614B77
:10F720001B6803F0F003502B70D05F4BD3F8882098
:10F7300042F47002C3F88820BFF34F8FBFF36F8F7E
:10F740004FF01023D3F80022002A03DBD3F8043251
:10F75000002B2EDA554B0122C3F80425D3F80024E0
:10F76000002AFBD04FF010221521C2F80012D3F866
:10F770000024002AFBD04FF010231522C3F80422E6
:10F780004A4BD3F80024002AFAD00022C3F80425FB
:10F79000D3F80024002AFBD0BFF34F8F424A444BDA
:10F7A000D16801F4E0610B43D360BFF34F8F00BF1A
:10F7B000FDE7404B404A1A607047404B404A1A6090
:10F7C00051E7404B1A68404BC2F342321A605EE781
:10F7D0003E4BDA6822F08072DA6067E74FF08043D0
:10F7E0000022C3F80C21C3F81021C3F8382571E7B3
:10F7F000374B03221A607BE7364A0521116001214D
:10F8000091679360344B3F221A6080E74FF080523B
:10F81000324BD2F80414C3F82015D2F80814C3F8F8
:10F820002415D2F80C14C3F82815D2F81014C3F814
:10F830002C15D2F81414C3F83015D2F81814C3F8E4
:10F840003415D2F81C14C3F84015D2F82014C3F8AC
:10F850004415D2F82414C3F84815D2F82814C3F874
:10F860004C15D2F82C14C3F85015D2F83014C3F844
:10F870005415D2F83414C3F86015D2F83814C3F80C
:10F880006415D2F83C14C3F86815D2F84014C3F8D4
:10F890006C15D2F84424C3F8702546E7E00F00F059
:10F8A000E40F00F0E80F00F000ED00E000E00140A0
:10F8B0000400FA050C4000200090D00374C00740FB
:10F8C0000DF0ADBA440200103C050040F0ED00E040
:10F8D000A0050040105600401456004000C00040F3
:10F8E00037B50023144A02EB0311D8B2098901F19C
:10F8F000804101F5C0410968012903D00133082B7B
:10F90000F0D1184602EB0012002113890B4C03F1D1
:10F91000804303F5C04302F1080519601B68019399
:10F92000019BD368C4F80833536898476B68C4F8E0
:10F93000043303B030BD00BFD84C0020006000404D
:10F94000F0B50023284D5C5D2CB90133082BF9D1AB
:10F950004FF0FF30F0BD254F1E01BC19B85161605A
:10F96000234931F8131021812249013A51F823101B
:10F97000E160032A4FF00004EC5432D81E4CA45C22
:10F980009B0003F1804303F5C0431C4A142505FB8B
:10F990000020D3F81025456822F4473222F4407243
:10F9A000C3F81025D3F810052A0202F4F8522404F3
:10F9B000024304F440341443C3F81045D3F810252F
:10F9C00042F00102C3F810250D4BC02283F8062334
:10F9D0004022C3F880211A600A4B0846C3F804137A
:10F9E000F0BD0224CCE700BF40400020D84C0020EE
:10F9F0001040002020400020CC6F0200886D0200E3
:10FA000000E100E000600040A0F10A03032B10B504
:10FA100003D8D1F1010138BF0021A0F12603042B46
:10FA200013D90A4B142202FB003090F9083001333D
:10FA30000BD0426801244FF0A04304FA02F211B93E
:10FA4000C3F80C2510BDC3F8082510BD886D020051
:10FA50001D4B142210B502FB003494F90840013408
:10FA600031D004292FD8DFE801F0031C0A2E110041
:10FA700002FB00300021426802F5E0720CE002FB5C
:10FA800000300C21426802F5E07205E002FB003014
:10FA90000421426802F5E0724FF0A04343F82210BF
:10FAA00010BD02FB003301225B689A404FF0A04377
:10FAB000C3F81825A0F10A03032B04D80021BDE8E0
:10FAC0001040FFF7A1BF10BD886D0200F0B503889C
:10FAD000112B89B0044644D01A2B48D0102B60D18A
:10FAE000314E727D337D03A8311D23EA020200F0FE
:10FAF00014F90025039B9D420DD203AA02EB450396
:10FB00002A489B880022009200F110011D2200F07B
:10FB1000CAF80135EEE7307DA788234DC043C0B257
:10FB200000F0B3F84FF6FF73984237D005EB400072
:10FB300005F1150187803A46281D012300F0D3F80E
:10FB4000281D05F114013A46012300F0CCF8A37DED
:10FB5000A2889C1E634205F1040005F11601634171
:10FB600019E01248A28800F11101002313E0037A82
:10FB70000E48A2881F2B00F1130194BF002301231C
:10FB800000F0B1F8237A0948A2882F2B00F1140164
:10FB900094BF0023012300F0A6F802E0042000F047
:10FBA00066F809B0F0BD00BF584D00205C4D002044
:10FBB00038B5094C0546217D201D2A4600F09CF8E9
:10FBC00040B1201DA17D2A4600F096F800280CBF08
:10FBD0000120022038BD00BF584D002082B00190A6
:10FBE000019B002B41D0019B013B019340F2E73088
:10FBF000013800BF00BF00BF00BF00BF00BF00BF93
:10FC000000BF00BF00BF00BF00BF00BF00BF00BFFC
:10FC100000BF00BF00BF00BF00BF00BF00BF00BFEC
:10FC200000BF00BF00BF00BF00BF00BF00BF00BFDC
:10FC300000BF00BF00BF00BF00BF00BF00BF00BFCC
:10FC400000BF00BF00BF00BF00BF00BF00BF00BFBC
:10FC500000BF00BF00BF00BF00BF00BF00BF00BFAC
:10FC600000BF00BF00BFC3D1BAE702B070471FB5E5
:10FC70000021039001AA44F20100ADF804100291A2
:10FC8000AFF3008005B05DF804FB002340FA03F1F8
:10FC9000C9079AB205D40133082BF7D14FF6FF708C
:10FCA00070471046704770B59DF81050D0B1C9B17B
:10FCB000C2B1002430F814609E4210D1012303FA2F
:10FCC00004F4E4B2E643F6B20023C85C0DB120436D
:10FCD00000E03040C85401339342F6D170BD013486
:10FCE000082CE7D170BD13B51446009301222346BA
:10FCF000FFF7D9FF02B010BD10B568B1002330F88E
:10FD00001340944204D141FA03F303F0010010BD03
:10FD10000133082BF3D1002010BD70B579B1002359
:10FD20001C4642FA04F5ED0705D500EB430531F812
:10FD30001460AE8001330134082CF2D100E00B4690
:10FD4000036070BD72DF704773DF704774DF704708
:10FD500076DF70477ADF70477CDF7047A7DF704738
:10FD600030B50B78152B85B0054615D104230C4C06
:10FD700002930DEB0301039401F072FA60B923685A
:10FD8000DB0706D5074B0C2118884FF6FF72FFF7EB
:10FD9000E5FF284601F0BAFA002005B030BD00BFEB
:10FDA0008C4D00204A40002008B5094B18884FF6BA
:10FDB000FF73984203D01321FFF7CAFF01E0FFF75A
:10FDC000C5FF4FF4FA70BDE80840FFF707BF00BF5A
:10FDD0004A40002010B5044686B08088FFF7E8FE50
:10FDE0001B4B1B7863B302282AD0A37D022B27D09C
:10FDF000204601F0D9FB1748214600F0F7FD238883
:10FE0000102B1AD0112B1BD1134B4FF6FF721A80F7
:10FE100068460021182203F05DFB0023A0226846FB
:10FE20008DF8003001938DF808300393ADF8102061
:10FE3000ADF81230FFF788FF02E0074BA2881A8066
:10FE4000064B13B12046FDF74DFB06B010BD00BFB9
:10FE500048400020944D00204A400020E5D4010095
:10FE600030B585B004AD002405F8104D02F0D6F988
:10FE7000684601F0E5F821460DF10900052203F07E
:10FE800029FB144A9DF809301278134862F30003E5
:10FE9000124A127862F34103114A127862F3820324
:10FEA000104A127803F0F70362F3061364F3C713E2
:10FEB0008DF8093007238DF80A3010238DF80B30A8
:10FEC000094B019301A901238DF8083001F024F9B1
:10FED00005B030BD4C400020904D0020914D0020D9
:10FEE000924D00204940002061FD010070B5414E57
:10FEF0008CB0FFF7B5FF06B3FDF718FBE8B10C2295
:10FF0000002101A803F0E6FA3B4B02930023039380
:10FF100001A901233948ADF8043000F0E9FB384865
:10FF200002F02AFC374B187802F02CFC002E4AD045
:10FF3000FDF7FCFA002846D059E09DF80030324821
:10FF4000012262F303030CAC62F3071304F8303DA3
:10FF500003F092FB2C4982B26846FFF7FDFE0021B8
:10FF6000082201A803F0B6FA4FF4A073ADF80430EC
:10FF70004FF402730024ADF8063001A84FF4C873A3
:10FF8000ADF80A30ADF80840FFF7E4FE21461F2225
:10FF900004A803F09FFA1C4803F06EFBC5B26B1C6B
:10FFA0008DF810302A4609230DF1120016498DF8FC
:10FFB000113003F086FAA91C04A8C9B222462346D0
:10FFC000FFF7C0FE9BE7182204A8002103F082FA85
:10FFD0000023A02204A88DF8103005938DF8183066
:10FFE0000793ADF82020ADF82230FFF7ADFE0CB03E
:10FFF00070BD00BF2DD50100F1250200944D0020F9
:020000022000DC
:10000000A9FD0100904D0020D06F0200014B18782F
:10001000704700BF4840002008B5024B0BB1FDF708
:100020008DFA08BD3DD5010008B500F039FB002070
:10003000FFF7F8FA0A4800F0A3F90A4802F04AFC70
:10004000FCF724FAFFF7E2FF08B1FFF74FFFFCF7D8
:1000500077FA054B002BFAD0AFF30080F7E700BF2B
:10006000C44D0020D5FD010000000000F8B5064693
:100070000C468F180025BC4207D0336814F8011BCA
:100080001B68304698470544F5E72846F8BD70B52B
:1000900005460C4649B1036808465E6803F0ECFA71
:1000A000214602462846B04770BD084670BD08B5D7
:1000B00003681B68984708BD08B50249FFF7E7FFCA
:1000C00008BD00BF5E73020038B50446FFF7DFFFCE
:1000D00005462046FFF7F0FF284438BD30B58BB009
:1000E00000238DF82430012A98BF0A220DF1230441
:1000F000B1FBF2F303FB1211CDB2092D94BF3035E1
:100100003735EDB2214604F801590BB11946EFE736
:10011000FFF7BDFF0BB030BDF8B506460D461446DF
:1001200022B90368C9B21B689847F8BD0A2A0CD1E6
:1001300000290BDA2D21FFF7BAFF69420746224654
:100140003046FFF7CBFF3844F8BDD2B2BDE8F840E7
:10015000FFF7C4BF38B50446FFF7DEFF054620466B
:10016000FFF7AAFF284438BD2DE9F843064655ECB1
:10017000104B0F4602F03CFC10B93046434907E0F3
:1001800045EC104B02F034FC012805D140493046C3
:10019000FFF77DFFBDE8F883204629464FF0604217
:1001A0003C4B03F097F810B130463B49F0E720464E
:1001B00029464FF06042394B03F06EF80028F3D126
:1001C000204629460022002303F066F840B130465D
:1001D0002D21FFF76CFF05F1004380461D4600E02E
:1001E00080462F4B4FF0000900225FFA89F1B94297
:1001F0000AD21046194600222A4B02F005FF09F1E7
:10020000010902460B46F0E72046294602F020FC91
:100210000D46044603F090F8814602F055FD024673
:100220000B462046294602F011FC0A2204460D46E0
:1002300030464946FFF752FF804427B130461A49FD
:10024000FFF725FF8044F7B1164B002220462946D0
:1002500002F0B0FD0D46044603F046F881460A223E
:1002600049463046FFF758FF8044484602F03CFDBF
:1002700002460B462046294602F0E8FB013F0446B1
:100280000D46FFB2DFE74046BDE8F883E16F0200AC
:10029000E56F0200FFFFEF41E96F0200FFFFEFC1D2
:1002A0000000E03F00002440ED6F020038B5C9B205
:1002B0000446FFF759FF05462046FFF7FDFE284498
:1002C00038BD10B500210446402203F003F9002395
:1002D00023646364204610BD026C10B5531C446C4B
:1002E00003F03F03A3421CBF8154036410BD0023ED
:1002F000036443647047436C026C934206D0C25C53
:10030000013303F03F034364104670474FF0FF3062
:100310007047026C436CD01A48BF40307047436C42
:10032000026C934214BFC05C4FF0FF307047036C07
:10033000406C013303F03F031B1A58425841704789
:1003400010B5044601F032FF022C02D0032C02D07B
:1003500010BD002200E00222014B1A7010BD00BF48
:10036000344F002010B50021142304468162C1627D
:100370000163C0F82431282203F0ACF8204610BDF8
:100380007FB5164B1649186800904822684600232E
:1003900002F064FA08B1FFF76AFC0720012101AA04
:1003A00002F0BEFA08B1FFF762FC0423ADF8043096
:1003B0009DF810300B4843F001038DF8103002F027
:1003C000C7FA08B1FFF753FC01A802F0CBFA0648C0
:1003D00002F08AFA07B05DF804FB00BFEF6F02007D
:1003E000EC4E0020283D0020410302000148FFF7A9
:1003F000B9BF00BFC44D002001207047064B1970E3
:10040000064B00221A60064A012111601A68002A70
:10041000FCD00120704700BF354F00202021004054
:10042000082000400C4BD3F8002222F02002C3F831
:1004300000220A4A012111601022C3F80823002279
:10044000C3F800254FF0FF32C3F80C251030C3F875
:100450001425FFF74CBF00BF0020004004200040DF
:10046000024B01221A601030FFF741BF0820004004
:100470001030FFF74EBF1030FFF751BF1030FFF7BD
:100480003ABF000070B5002343604FF47A7304460E
:100490008360064B40F8103B0D461646FFF711FFF0
:1004A00084F8585084F85960204670BD00700200EE
:1004B000034B00221A60034B10301978FFF70CBF72
:1004C00010210040364F0020B1F5E16F37D3B1F570
:1004D000616F37D3B1F5E15F37D342F6DF639942FD
:1004E00035D944F29F13994233D945F6BF53994207
:1004F00031D948F23F3399422FD94BF67F33994295
:100500002DD903F5964399422CD903F5E14399423D
:100510002BD903F59633994229D91B4B994229D9F6
:1005200003F5E133994228D9184B994228D9184844
:1005300081428CBF4FF080504FF0706070474FF495
:100540009E2070474FF41D20704712487047124894
:1005500070471248704712487047124870474FF46E
:100560001D0070474FF46B0070470F4870474FF005
:10057000EB7070474FF06C7070474FF080607047C1
:100580004FF0E860704700BF47AA0300FF8B0A00E6
:100590001FA90E0000B013000050270000F03A0021
:1005A00000A04E0000C0750000903A0101F00F015C
:1005B00001290CBF0E200020704700002DE9F041FA
:1005C0002B4C2C4BC4F8443501262B4BC4F8486502
:1005D0000546C4F83435C4F838650F4690F858001D
:1005E00000219046FFF734FA95F859003146FFF79D
:1005F0002FFA95F859003146FFF706FA3946284692
:10060000FFF762FF4146C4F824052846FFF7CEFFF6
:10061000C4F86C0595F8591095F85800174B14223A
:1006200002FB013102FB003349685B68C4F80C151A
:10063000C4F814350823C4F800351023C4F8043373
:100640000F4BC02283F802230422C3F880211A60D2
:100650000C4B00221A60D4F8003243F02003C4F897
:1006600000322660084B1B68002BFBD0BDE8F081F0
:1006700000200040354F0020364F0020886D0200DA
:1006800000E100E0102100404C2100401322FFF760
:1006900095BF00000148FFF70BBF00BF784C00205A
:1006A0000A4B1A684FF47A73B2FBF3F2013AB2F1D3
:1006B000807F0AD2064B5A60064AE02182F8231056
:1006C00000229A6007221A607047FEE70C40002063
:1006D00010E000E000ED00E0A0DF7047A2DF70470F
:1006E000A5DF7047A6DF7047A8DF704763DF70475C
:1006F0002DE9F047884694B00546002800F0368181
:10070000002900F033814B68002B00F02F814FF659
:10071000FF730380994B04AA03F11006174618686B
:100720005968144603C40833B3422246F7D114AEC5
:1007300041F2305338460DF10A0126F8483DFFF7E3
:10074000D5FF002840F01481012031462A1DFFF713
:10075000C3FF0446002840F00C819DF80A30AB71BD
:1007600021461C220DA802F0B5FE9DF834300E94EF
:1007700043F004038DF8343001AFAB798DF80E30BF
:10078000214641F2325303223846109411941294B8
:100790001394ADF80C3002F09DFE9DF8043064F324
:1007A000030364F307138DF804309DF80530012628
:1007B00066F3030366F307138DF805309DF80630E2
:1007C00066F3420364F3C30364F30413DBB23343FD
:1007D0002146142208A88DF806300DF10C0902F00C
:1007E00079FE4FF0140AA888ADF828400DA908AA90
:1007F00005F10803ADF82A400C94CDF82090099734
:10080000ADF82CA0FFF76AFF0446002840F0B18045
:1008100021461C220DA802F05DFE9DF834300E9496
:1008200043F018038DF83430AB798DF80E30214643
:1008300041F23153032238461094119412941394C8
:10084000ADF80C3002F046FE9DF8043064F303036B
:1008500064F307138DF804309DF8053066F3030345
:1008600066F307138DF805309DF8063066F34203F2
:1008700064F3C303DBB243F011032146524608A8D8
:100880008DF8063002F026FE1723ADF82C30A8882C
:10089000ADF828400DA908AA05F11003ADF82A40CB
:1008A0000C94CDF820900997FFF718FF0446002814
:1008B0005FD121461C220DA802F00CFE9DF83430B9
:1008C0000E9443F002038DF83430AB798DF80E307E
:1008D000214641F234530322384610941194129465
:1008E0001394ADF80C3002F0F5FD9DF8043066F37A
:1008F000030366F307138DF804309DF8053064F3A5
:10090000030364F307138DF805309DF8063066F392
:10091000420364F3C30364F30413DBB2334321469D
:10092000524608A88DF8063002F0D4FD0223ADF837
:100930002830ADF82C30A888ADF82A400DA908AAB7
:1009400005F12003CDF820900997CDF83080FFF70E
:10095000C5FE044668B9D8F80430AB62D8F8083050
:1009600003B1EB62064B01221A7002E00E2400E094
:100970000446204614B0BDE8F08700BF287002008E
:10098000374F002030B5044687B030B300884FF6AB
:10099000FF73984223D0134B1B7803B3124D1023DF
:1009A00069700321ADF80610AA7002A81A4600214A
:1009B0002B7002F08FFD238AADF8083001238DF8EB
:1009C0000A300023ADF80C30208805950DF10603A0
:1009D00002A90493FFF786FE02E00E2000E0082043
:1009E00007B030BD374F0020384F002070B50D469E
:1009F00088B00446002800F0C380002900F0C080C1
:100A0000826A002A00F0BC800B88112B1BD004D80E
:100A1000102B40F0B5808B8817E0502B02D0512B63
:100A200015D0ADE0C9880389994240F0A980082318
:100A30008DF81030123535F8023C8DF818300595D8
:100A400004A990479CE04FF6FF73238098E08B79D0
:100A5000022B40F095800A89038A9A4240F09080E8
:100A60008B7B043B022B40F28B809DF8163043F0C9
:100A700001038DF816300B8AADF818304B8AADF8AB
:100A80001A30022601F114030822002101A88DF872
:100A90001060079302F01EFD00230DEB030202928B
:100AA0002088A18AADF8046001AAADF80630FFF7EE
:100AB00017FE064618B1E36A2BB1984703E09DF88C
:100AC0000030DB0708D440F2FD132088ADF8143065
:100AD00004A9FFF709FE4FE0ADF8140004A920882F
:100AE000FFF702FE002847D1297D4B1E072B3FD878
:100AF000DFE803F0040E1D1F21233C256B8A8DF8CF
:100B00000460012B02D82046012109E0012309E0FD
:100B10006A8A01239A428DF8043003D820460221C4
:100B2000062227E015358DF80C30029519E00223D6
:100B300015E0032313E0042311E005230FE06B8A83
:100B4000022B02D82046082113E0AA7D6B7D43EAE0
:100B50000223ADF808300BB9072300E006238DF817
:100B60000430A36A204601A9984709E00923F6E763
:100B700020460322FFF706FF10B1E36A03B198474E
:100B800008B070BD7FDF704786DF7047A7DF704712
:100B9000A9DF7047AADF7047002070470020704728
:100BA00000207047002070470020704700207047E9
:100BB000002070472DE9F34704460F462B48A178E3
:100BC0006A4601F0DFFB00284DD1294B62780C21E9
:100BD00001FB02319946897A11F0400F09D1022FA9
:100BE00007D0012F07D12348A178234E02F012FD30
:100BF00002E0224E00E0224EDFF89880A1781C250A
:100C000005FB01812A4600236846B047A178824649
:100C100005FB01811B482A46002302F0FBFCBAF1C8
:100C2000000F12D1022F1ED063780C2202FB039317
:100C300068469A7A22F040029A726178124B2A46EC
:100C400005FB01312B46B04701E0022F0BD00F4AC4
:100C500023780C2101FB032368469A7A0C4B21462A
:100C600053F82230984702B0BDE8F0879C5000202E
:100C7000644F002048700200D52302004D2402007A
:100C8000990B0200847002004C5000208C50002010
:100C900038700200704F00202DE9F84343782B494B
:100CA0002B4F24225A4380468818446874B10C2084
:100CB00000FB0370807A050607D5400605D402F1D3
:100CC0000806A5B20E448C5802E0002425462646AC
:100CD0004FF00C0909FB0373314618892A46234655
:100CE000FFF756FF0B280BD198F80120184B09FB92
:100CF0000233314618892A460123FFF749FF0124B0
:100D0000002848F2410518BF2846012C1BD198F84D
:100D100001300C2101FB03774FF6FF723889FFF792
:100D200035FF80B143F2020398420BD0082809D066
:100D300043F20403984205D011280CBF2846002036
:100D4000BDE8F8832846BDE8F88300BF685000205E
:100D5000644F0020FFF7A0BF2DE9F04389B01A23AC
:100D6000ADF80230244F4B784FF00C0808FB0373AA
:100D700081460E46188901A90DF102020323FFF7EF
:100D800009FF002834D170781C4DBDF802202424BE
:100D900004FB0050083001A902F084FB737868B9A5
:100DA00008FB0377BA7A02F0020202F0FF01FAB9F7
:100DB00004FB0350224602F08DFB19E06343E9185F
:100DC0000F484A680F4F002A18BF07460322EA500F
:100DD00003F10800BDF802204A60284401A902F08E
:100DE00070FB7178484604FB015122463823B8470E
:100DF000002009B0BDE8F083644F00206850002057
:100E00004D240200D5230200FFF7A6BF70B50346AC
:100E1000094D487824240E4604FB0050194622460A
:100E2000382301F04FFB30B9737804FB0354636837
:100E3000013308BF606070BD68500020FFF7E6BF57
:100E40002DE9F0471C46544B92B017461A681A9E7B
:100E5000824688469946002A00F09A80742E00F255
:100E60009780FF2300258DF805308DF806308DF82A
:100E700007308DF804508DF81050099408964748B3
:100E8000A9B202AA01F07EFA40B9504602A908228E
:100E900002F008FB10B98DF8065002E00135072D6D
:100EA000EDD19DF80630FF2B72D0B8F1030F06D1BB
:100EB000742E0CBF202340238DF810304EE0384AAA
:100EC000A21AC32A11D8374827B9012102689940CC
:100ED00011425DD0012202FA03F3026822EA030202
:100EE000202302608DF8103047E02F4AA21A1B2AF7
:100EF00009D8002220238DF805200AAA8DF8103089
:100F00000992089339E02948221A232A13D830235A
:100F10008DF8103000238DF8053001238DF807304F
:100F2000234B9B7A03F0020303F0FF012BBB242227
:100F300002F0D0FA21E040228DF810201D4A9442A0
:100F40000CD01D4A52F82320A24221D1184AD27A4D
:100F50009A4212D100238DF805300EE09DF8103032
:100F600043F003038DF8103007AB059301A8D9F8BF
:100F7000003004A93A4698470AE0B8F1020F9DF8FC
:100F8000103002D143F00103ECE743F00203E9E73C
:100F900012B0BDE8F08700BF8C5000209C500020AC
:100FA000704F0020985000204C50002068500020C6
:100FB000644F00207C740200404F002070B5114E39
:100FC0001C244443054630190021344406221130C4
:100FD00002F080FA00211022204602F07BFAFF2363
:100FE0002374A3764FF6FF732383074B01211A68FE
:100FF000A94022EA01021A60044B002243F825208E
:1010000070BD00BF704F002098500020404F00205E
:1010100037B50546A9B209486A4601F0B3F9044656
:1010200040B96846742101F099FA044610B928467F
:10103000FFF7C4FF204603B030BD00BF9C50002026
:101040007FB50546002853D02B482C4B01220024A5
:1010500082724FF6FF720281C272214607221C6023
:101060005C729C7202F036FA25482146242202F076
:1010700031FA2046FFF7A2FF224BFF22E25401344F
:10108000072CF6D104A8204A40F8102D7423684696
:101090001E49ADF80430ADF8064001F009F948BB2F
:1010A0001B4E2C7801233370C4B91848A1B202AA90
:1010B00001F068F9054650B916481C2202FB0400ED
:1010C00002A92B4601F0FEF920B1357012E0002391
:1010D00033700FE00134072CE7D10BE0BDF8063088
:1010E000BDF804100948594389B201F037FA01E00C
:1010F00048F20E0004B070BD644F00208C500020F8
:10110000685000205C4F0020410E02009C500020DF
:10111000634F0020704F0020184B1B7870B50646B7
:101120001BB328B321B3086810B3154B1A6812BB60
:101130000D461C4644F8040B55F8050F58602879F5
:10114000207109799972197A62F30001C9B241F0EC
:10115000020162F382011972D97941F0030162F34D
:101160008201D9713270104670BD48F2080070BD1E
:1011700048F20E0070BD48F2040070BD634F0020BD
:101180008C5000207FB52E4B1B7805460C46002B5B
:1011900050D0002848D0002946D08B68002B43D07F
:1011A0000378002B46D1274B1B68002B42D0817857
:1011B00006293CD8244B1C2202FB01339B7EFF2BCB
:1011C00035D04378214A0C2000FB03239B7A1B0770
:1011D00030D56368032B30D91D4802AA01F0D2F83C
:1011E00060BB01A802A90422602301F06BF938B9A1
:1011F000184A194E019BB3F1FF3F08BF164600E0A5
:10120000144E02A8211D04226023B047B0B902A8E1
:10121000A1681022642301F019F978B9AA780F4B5C
:10122000A16843F8221009E048F20E0006E048F2F7
:10123000100003E048F2080000E0072004B070BD91
:10124000634F00208C500020704F0020644F00201E
:101250009C500020D52302004D240200404F002066
:101260001FB5254A127803460C46002A3AD00028BA
:1012700035D0002933D00278002A33D11F4A1268B2
:10128000002A2FD08278062A2FD81D491C2000FB67
:101290000211897EFF2928D0A0681A4918B951F88F
:1012A0002220A26001E041F822001748997802AAA2
:1012B00001F068F8F0B901A802A90422602301F046
:1012C00001F9A8B9019B013312D0A06802A910222C
:1012D000642301F0F7F868B9019B63600AE048F203
:1012E0000E0007E048F2080004E048F2100001E0B8
:1012F00048F2400004B010BD634F00208C50002025
:10130000704F0020404F00209C5000201FB51C4B08
:101310001B78044663B340B303784BBB194B1B687F
:1013200033B38178062926D8174B1C2202FB0133E0
:101330009B7EFF2B1FD0154802AA01F023F8E0B9CD
:10134000602301A802A9042201F0BCF8019B01332B
:1013500013D002A80E490422602301F077F860B987
:10136000A2780C4B43F8220007E048F20E0004E09C
:1013700048F2080001E048F2100004B010BD00BFC0
:10138000634F00208C500020704F00209C500020A4
:101390007C740200404F0020084B1B785BB139B1D0
:1013A00030B1007838B9064B1B6823B1087070471C
:1013B00048F20E00704748F208007047634F002063
:1013C0008C5000201C4B1B7810B57BB358B351B325
:1013D00004785CBB194B1B6843B38278FF2A0FD19A
:1013E0004278FF2A25D0164B0C2000FB02339A7A54
:1013F00092071ED51A680A609A888A809B790FE046
:10140000104B1C2000FB02339A7E02F0020202F015
:10141000FF0472B953F8100F08609A889B798A808C
:101420008B71204610BD48F20E0010BD48F2080036
:1014300010BD48F2050010BD634F00208C50002005
:10144000644F0020704F00202DE9F043264B1B789D
:101450008BB005460C46002B3DD0002838D0002923
:1014600036D00378002B36D1204A1268002A32D0B9
:101470008278062A32D8DFF87C801C2707FB02829C
:10148000927EFF2A2AD0CB608278DFF86C904B6185
:1014900007FB028203AE0A61C1F804908B600E6004
:1014A0001348A97801AA00F06DFFC8B9304601A918
:1014B0003A463B4601F006F890B9E060AB786061CF
:1014C00007FB03872761C4F80490A060266007E04B
:1014D00048F20E0004E048F2080001E048F2100073
:1014E0000BB0BDE8F08300BF634F00208C5000209C
:1014F0009C500020704F0020345000207FB50446DF
:1015000002AAA1781E4800F03DFF6178034600283A
:1015100030D11C4E039A1C481C2505FB0163009525
:10152000019502F077F860782A4605FB006002A971
:101530002B4600F0C7FF024618B11448617802F04C
:1015400069F8382261780092114A1248242303FB7B
:10155000012202F05FF8104B9A7A104B02A853F860
:10156000223021469847024640B161780C4802F08B
:1015700051F803E00B48A27802F04CF804B070BDBB
:101580009C5000204C500020C07002001C710200D2
:1015900068500020587102008C5000205C740200DA
:1015A000A1710200E07102002DE9F041B74A90B04C
:1015B0001278FF2305460393002A00F02E82B44FD1
:1015C0003A68002A00F0298206888DF811308DF8DB
:1015D00012308DF81330031D06934FF000082C23B2
:1015E000102EADF81C308DF81080AA4C22D0A27AB3
:1015F0008388920708D54FF6FF72934200F0CE81A0
:1016000022899A4200F0CA81192E00F0EB8007D897
:10161000132E67D0142E3BD0112E40F0FE8119E01E
:101620001E2E00F09C81522E00F08F811A2E40F069
:10163000F48159E1984801F0EDFF4FF0A0434FF0DD
:101640008052C3F81825C3F80825A37ADE0700F1F5
:10165000AC81E2E19148297A01F0DCFFA27A02F044
:10166000FD031007A37206D519060DD504A80021A5
:10167000FFF7A0FA08E09DF81200FF2804D0FFF75A
:101680009DFCFF238DF812301023A37212236AE110
:10169000834801F0BFFFE37AFF2B18D12A8A002389
:1016A00080491C2000FB0311098B91420CD1A27AC6
:1016B000039342F00802DBB204A8E372A2728DF831
:1016C0001230FFF71BFF02E00133072BE8D1E37A6A
:1016D0007549A888734AFF2B08BF00210023FFF734
:1016E00053FA9AE1714801F095FFA37A8DF81460DE
:1016F00043F00403A372E37A664EFF2B5AD1002312
:1017000068491C2202FB03128846907EFF2820D1E4
:1017100020786049022802F118000AD0FD26867060
:1017200002F110060868106188888A79B080B27169
:1017300001E0FE2282708DF80C305D48039A002192
:1017400001F068FF9DF80C308DF81230E37200262E
:1017500009E00133072BD3D1564848F2430101F089
:1017600059FF48F24306297A2B7BEA7A524801F066
:1017700001010091C2F3400203F00101C3F38003B1
:1017800001F048FFE37AA8881C2202FB03830D9333
:10179000454B08930021494A0C9108AB0E910F91DB
:1017A00009910A910B91FFF7EDF90146002800F02D
:1017B000DD8013E0424801F02DFFB37A43F040038F
:1017C000B372002216238DF814308521A8881346A1
:1017D000FFF7D8F90146002800F0C780394801F02A
:1017E00019FF1AE1297A384801F014FF7B7AA27AAE
:1017F00023F0010302F0FB017B721420A1728DF82B
:101800001400287A234B60B1520604D4D87AFFF72B
:10181000FFFB2E7A00E00026297A0220FEF7FCFB6F
:10182000A4E06A7A560740F1A0809DF81220FF2AB2
:1018300000F09B8041F0080199726B7B980707D5F7
:10184000184B1C2101FB0233997E21F0010199768E
:10185000E37A104DFF2B00F088800021144801F03E
:10186000D9FE2B780F4A022B9DF812304FF01C0145
:1018700001FB03232AD09A7E28681861A979A888D9
:10188000988222F0020299759A7628E0634F002030
:101890008C500020644F00202C7202003E72020027
:1018A0005F720200704F00204C50002087720200CF
:1018B000B172020020740200D97202009050002020
:1018C0004073020000730200617302005449498AA8
:1018D000198303F118029B7E23F00103937004A87F
:1018E0000121FFF767F940E02A7A4E4802F00F0124
:1018F000120901F08FFE2B7A112B14D1A37A4A4DD5
:10190000190710D549480021324601F0E3FD16239E
:101910008DF81430AB7A43F06003AB727B7A43F0FE
:1019200002037B7221E000210120FEF775FBA37A00
:10193000BA7A63F07F03A37215238DF814303C4B01
:1019400004A853F8223098470FE03A4801F062FEAD
:10195000BA7A374B04A853F8223098475DE03648EE
:1019600001F058FE13238DF8143000263B6804A8BC
:1019700005A9324698479DF81430122B4DD1A37A11
:101980002948012B49D0012383724FF6FF7303814D
:10199000C3720021072201F09DFD3EE0E37A8DF83D
:1019A000123000238DF811302EE611238DF81430FB
:1019B000AB8823812E460223A37256F8080F8DF8B8
:1019C0001180B379B288A371EB7DA280DA07206021
:1019D00006D55B08194AD35CFF2B11D003930FE0A7
:1019E0004546174B1C2000FB05303146072201F00D
:1019F00059FD08B9039503E00135072DF1D1B4E78E
:101A0000A27A9DF80C30E37242F0080204A8A27298
:101A10008DF81230FFF772FDA7E710B0BDE8F08136
:101A20004C50002091730200644F00207050002041
:101A30006C740200D3730200FD7302005C4F00203F
:101A4000804F002010B579B10B7883B90A4A12682B
:101A50006AB1FF228A70094A148984420AD14B7004
:101A6000D27A8A70184610BD48F20E0010BD48F2B6
:101A7000080010BD052010BD8C500020644F0020D0
:101A80004FF010235A69531C4FF080531DBF186943
:101A900080B2B2FBF0F05869704729DF704728DF49
:101AA0007047000008B5034B1A78034B53F82230F7
:101AB000984708BD285300209474020037B50246A9
:101AC0000846074C0B4650F8081F24680C254D4368
:101AD00019780094034C1B696459A04703B030BDCA
:101AE0003053002008530020104A1378142101FBC2
:101AF00003234FF08052D88811691A690433013AE0
:101B00009B8802441A448BB2B2FBF3F2084B1B6869
:101B1000934207D308D1074B1868D0F1010038BFB2
:101B2000002070470120704700207047A45000201B
:101B30000053002004530020034B1A6822F00802CF
:101B40001A60FFF7AFBF00BF24530020074A136895
:101B5000180709D4990744BF43F001031360044BED
:101B600002221A70FFF79EBFFFF7E6BF2453002042
:101B700028530020054B1B681B0704D4044B01228B
:101B80001A70FFF78FBFFFF7D7BF00BF24530020A5
:101B90002853002008B5B0B1112805D10A4B1A68A6
:101BA00042F008021A6008BD084B1A78142101FBA4
:101BB00002310431FFF782FF054B04221A70BDE8A1
:101BC000084000F09BB808BD24530020A45000201A
:101BD0002953002008B5FFF760FFBDE80840FFF774
:101BE000D9BF0000F8B5134B134E1A78142404FB28
:101BF00002344FF0805504342B696288A0889BB270
:101C00009A42E3680ED929692F6989B2521A21696B
:101C1000184410441144C7F38D02FFF7DBFF2B6912
:101C20009BB205E0184421699208FFF7D3FF63884F
:101C30003360F8BDA45000203C53002038B50A4A58
:101C40004FF0805415682369013D9BB25D43FFF757
:101C500017FF2169431E89B25943044B28461A686D
:101C6000BDE83840FFF7B6BF0053002038530020CE
:101C700070B5104A1378142101FB032304339A88AA
:101C80005C88DB684FF0805514441C442B699BB280
:101C9000B4FBF3F603FB1646FFF7F2FE2969431E79
:101CA00089B201FB0361044B20461A68BDE870400D
:101CB000FFF790BFA45000200453002010B5FFF799
:101CC000DFFE4FF0805301381C6919691A698BB225
:101CD00005490968A4B260435943C2F38D02BDE8C7
:101CE0001040FFF777BF00BF0053002008B5FFF793
:101CF000D6FEBDE80840FFF74DBF0000294B1B781A
:101D0000F0B5032B4DD8DFE803F0020F1346264A47
:101D100000231360254A1360254B5B78002B40D0CD
:101D2000BDE8F04000F0CCB8BDE8F040FFF75ABF86
:101D3000204B1F481A6804781F4F22F00101142518
:101D40004FF08056196005FB04043069256980B2A4
:101D5000B5FBF0F00434386036696488013D2544F1
:101D6000B4B2B5FBF4F5A8421CBF22F003021A601E
:101D7000124A04BF41F0020119601168104A21B9EA
:101D80001B689B0701D4022300E00023BDE8F0405C
:101D90001370FFF787BE084BBDE8F0401868FFF7E7
:101DA000A5BFF0BD29530020345300203C53002030
