:020000021000EC
:10C000000000012049F0010089F001008BF00100DF
:10C010008DF001008FF0010091F0010000000000A0
:10C0200000000000000000000000000093F001008C
:10C0300095F001000000000097F001009DF0010064
:10C040009BF001009BF00100A9FC01009BF00100A6
:10C050009BF001009BF001009BF001009BF00100B0
:10C060009BF001009BF001009BF001009BF00100A0
:10C070009BF001009BF001009BF001009BF0010090
:10C080009BF001009BF001009BF001009BF0010080
:10C090009BF001009BF00100212102009BF00100B8
:10C0A0009BF001009BF001009BF001009BF0010060
:10C0B0009BF001009BF00100000000000000000068
:10C0C0009BF001009BF001009BF001009BF0010040
:10C0D0009BF001009BF001009BF0010000000000BC
:10C0E0000000000000000000000000000000000050
:10C0F0000000000000000000000000000000000040
:10C10000000000000000000000000000000000002F
:10C11000000000000000000000000000000000001F
:10C4000010B5054C237833B9044B13B10448AFF38E
:10C4100000800123237010BDCC40002000000000EC
:10C420003C70020008B5064B1BB106480649AFF345
:10C4300000800648036813B1054B03B1984708BD57
:10C44000000000003C700200D0400020C8400020E6
:10C450000000000010B5034B0360044600F052FEDC
:10C46000204610BD2057020010B5034B0360044660
:10C47000FFF7F0FF204610BD8855020010B5034BB2
:10C4800003600446FFF7F0FF204610BDB8550200D8
:10C4900010B50446FFF7DEFF204605F043FF2046B7
:10C4A00010BD10B50446FFF7DFFF204605F03AFF48
:10C4B000204610BD10B50446FFF7E0FF204605F00A
:10C4C00031FF204610BD00001FB52C4901A801F026
:10C4D00085F801A800F01CF900283ED02849294819
:10C4E00003F073FA01A800F02FF90146254803F084
:10C4F00083FA0D20012102F037FF01A800F032F984
:10C5000000B3214800F04EFE0028F6D01E4800F08F
:10C51000D2FD04461C4800F0CCFD214602460DF138
:10C52000030006F052FC9DF80340164824B1174959
:10C5300003F058FA0A20DDE7154903F053FA0A2000
:10C540002146D8E713490F4803F03FFA01A800F04D
:10C55000FBF801460B4803F04FFA01210D2002F0D1
:10C5600003FFC82002F0A2FD00210D2002F0FCFE16
:10C57000C82002F09BFD04B010BD00BF1841002090
:10C58000E0550200A8480020E8400020F7550200CE
:10C59000FE5502000656020038B50F4C0F4DFF2124
:10C5A0000B460A46204601F0AFF92A4620460C49C0
:10C5B0000C4C05F0BBFE0C490C4801F043FB204637
:10C5C0000B490A2201F046FB20462A460949BDE8EC
:10C5D000384005F0ABBE00BF1841002000400020ED
:10C5E00075D80100E8400020225602008048002053
:10C5F000435602007DC4010070B5164D164C174E0F
:10C6000028464FF4165103F04BFB0D20012102F098
:10C61000CFFE0A20012102F0CBFE2046104901F096
:10C6200006F9304600F025F80146204601F0E6F80C
:10C630002046314601F07EF820460A4901F07AF89A
:10C64000204600F0FEFF28460749BDE8704003F091
:10C65000C9B900BFA8480020184100208048002028
:10C6600064560200EC40002068560200016082809F
:10C670007047006870478088704729DF704728DF5F
:10C6800070474B1C4FF0805310B514BF1A6959699D
:10C690005C6918BFB1FBF2F11A695B69611A023B70
:10C6A000591A5143016010BD03681868013018BF62
:10C6B000012070474FF0805310B51B690468B4FB2C
:10C6C000F3F42046FFF7DBFF1128FAD06420BDE821
:10C6D000104002F033BF70B51E4605460C46FFF70A
:10C6E000E9FFB608286821463246FFF7C6FF112841
:10C6F000F8D06420BDE8704002F020BF10B5046897
:10C7000000229A4203D2A05888500432F9E710BDA3
:10C7100007B500236946062204300093ADF80430C3
:10C7200006F044FB003018BF012003B05DF804FBA5
:10C7300008B504310622043006F038FBD0F10100C0
:10C7400038BF002008BD000010B5034C043021465E
:10C7500001F0A0FA204610BD8848002000680021A2
:10C7600000F016BF1FB50446FFF7F8FF2046FFF79D
:10C77000CFFF38B101A8216800F030FF204601A9A1
:10C78000FFF7D6FF04B010BD0430062206F01DBB33
:10C7900004300021062206F021BB10B504460160DA
:10C7A000FFF7F6FF204610BD75DF70477EDF70474C
:10C7B0007FDF704785DF704786DF70478ADF70470D
:10C7C00090DF704792DF704799DF7047A9DF7047AD
:10C7D00061DF704762DF704738B5044600F5836556
:10C7E00028461022002106F0F9FA94F81834227C29
:10C7F00062F3000384F818346389A4F82034A38911
:10C80000A4F82234E389A4F824342846BDE838404B
:10C81000FFF7D4BF2DE9F0470446DAB00D4659B909
:10C820004FF48E7313A80BA9ADF82C30FFF7D0FF8F
:10C83000002840F03B8413AD2B881A2B00F0758341
:10C840001FD8132B00F057810FD8102B5ED0112B5F
:10C8500000F0F380012B40F029842A7A94F85D34AB
:10C86000134484F85D3400F021BC152B00F0EE83F6
:10C8700030D3172B00F00284192B00F0D38300F083
:10C8800015BC362B00F06A8207D8302B1ED0322B15
:10C8900018D01D2B40F00A8420E0392B0ED004D88C
:10C8A000382B00F0C68200F001BC502B00F04B8307
:10C8B000522B08BF002600F06781F7E394F8292483
:10C8C000002309E394F829140023CCE194F82924E7
:10C8D000002368E194F8291400238BE305F1140781
:10C8E0000FCF6E460FC697E8070086E8070004F5ED
:10C8F0005778083595E80E00404600F039FDD4F829
:10C90000EC33002B00F0D28340461DE2002394F864
:10C9100029242372D9B2914208D2013304EB430097
:10C92000B0F806644FF6FF708642F3D17822AF88E4
:10C9300002FB01F604EB4105A01904F55771A5F8B7
:10C940000874143006F041FA384609A9FFF742FF8F
:10C950009DF8243084F85D34D4F8D43313B1A01991
:10C9600014309847B4F82A24052A14D9B4F82C3482
:10C97000B3F5486F0FD8ADF82E300023ADF8303046
:10C98000B5F80804ADF82C204FF4C8730BA9ADF826
:10C990003230FFF709FF94F838352BB1B5F80804A9
:10C9A00001210022FFF70CFF94F82E34B3B304F5F5
:10C9B0008660FFF779FE064640B1D4F85024B5F8FA
:10C9C000080402F11201FFF7F5FE27E031460522C7
:10C9D0000BA806F003FA9DF82F3094F85424B5F80C
:10C9E000080443F001038DF82F309DF82C3043F0FC
:10C9F000010366F3820362F3410394F8552462F362
:10CA0000061366F3C7138DF82C3007238DF82D30ED
:10CA10000BA910238DF82E30FFF7C8FE94F82834A8
:10CA200094F829240133DBB29A4284F8283440F286
:10CA30003D832046FFF7D0FE38E3012394F82924F4
:10CA400023720023DEB2964208D204EB4301A88889
:10CA5000B1F80814884203F10103F3D106F501731C
:10CA60004FF6FF7224F8132094F82834013B84F821
:10CA70002834D4F8F033002084F85D040BB1297A0F
:10CA80009847D4F8D83323B1782202FB06401430FB
:10CA90009847002594F838359D420BDAD4F83C3598
:10CAA0000C2202FB053008300021042206F096F922
:10CAB0000135EFE794F8285445B1002384F8483550
:10CAC0002046FFF789FE03232372EFE294F84135F5
:10CAD0009D42F2DAD4F8440518266E4330441430EF
:10CAE0000021012206F07AF9D4F844351E440023CF
:10CAF000F3820135EAE794F82E34002B00F0D68259
:10CB000009A80021052206F069F99DF8273094F85C
:10CB1000542443F001038DF827309DF8243043F06E
:10CB2000010303F0FB0362F3410394F8552462F31D
:10CB300006136FF3C7138DF8243007238DF82530C3
:10CB40000BA81023002120228DF8263006F046F98C
:10CB50000021D4F850340B93A8880F910A460BABF0
:10CB6000109111910C910D91FFF722FE9EE203F5B9
:10CB70000173A88834F81330984204D100210A4682
:10CB80000B46FFF723FE013694F82924F3B29A42AC
:10CB9000EDD88BE204EB4301A888B1F80814884271
:10CBA00003F1010302D0DEB29642F3D3E98871BBF0
:10CBB000B5F80CE02B4671451CDA94F838C5002214
:10CBC000624514DAD4F83C0593F810800C2707FB73
:10CBD0000207B879804508D1B3F80E80B88880453F
:10CBE00003D1D3F81200B86001E00132E8E7013167
:10CBF0000833E0E705EBCE0506F50176A98934F8A0
:10CC00001600013189B20022FFF7DAFD4EE240F250
:10CC10000113994217D194F838050023834280F21A
:10CC20004582D4F83C250C2101FB03210A8942B13D
:10CC30004A8932B106F5017684F8403534F8160099
:10CC400077E00133EAE7D4F8F033002B00F02E82CE
:10CC5000022081E004EB4300AE88B0F8080486426D
:10CC600003F1010302D0DAB28A42F3D3E988002942
:10CC700041D194F84035D4F83C65B5F80CE003EBAD
:10CC8000430306EB83039B680B9371452BDA00206B
:10CC900094F84135984220DAD4F84435182707FB38
:10CCA000003394F8407507EB470756F827C05F68D4
:10CCB000BC4510D195F810C09F7CBC450BD1B5F890
:10CCC0000EC01F8ABC4506D1AF7C1F75EF8ADF827C
:10CCD000134401271F720130DAE7EB8AADF82C30DC
:10CCE00001310A35D1E702F501720BA934F81200BF
:10CCF000FFF768FDDAE1B1F5857F27D194F840357B
:10CD000094F8385501330C20584301E001330C30BE
:10CD1000AB4210DAD4F83C1501440E89002EF5D050
:10CD20004E89002EF2D002F5017284F8403534F8B5
:10CD300012000831DCE7D4F8E033002B00F0B681B4
:10CD4000782101FB024014309847AFE1D4F8F0336A
:10CD5000002B00F0AB8103209847A7E1002684F860
:10CD60004865E98840F20513994236D194F82E348B
:10CD7000002B57D005220BA8314606F02FF89DF85E
:10CD80002F3094F8542443F001038DF82F309DF890
:10CD90002C3043F0010303F0FB0362F3410394F8EA
:10CDA000552462F3061366F3C7138DF82C3007235E
:10CDB0008DF82D3010238DF82E3094F82934F2B2EE
:10CDC0009A4280F0738104EB4602A888B2F80824E6
:10CDD000904206F10106F2D15CE019BBAF8994F8EC
:10CDE0002934CAB29A4208D204EB4100AE88B0F8A6
:10CDF0000804864201F10101F3D194F84165002352
:10CE0000B34280F25381D4F84415182000FB03107C
:10CE1000C18AB94204D1782303FB024100687DE056
:10CE20000133EDE7D4F8F033002B00F03F8104200C
:10CE300092E7002684F84865E98840F20513994294
:10CE400037D194F82E34BBB305220BA8314605F038
:10CE5000C5FF9DF82F3094F8542443F001038DF85A
:10CE60002F309DF82C3043F0010303F0FB0362F3F5
:10CE7000410394F8552462F3061366F3C7138DF843
:10CE80002C3007238DF82D3010238DF82E3094F898
:10CE900029340BE00BA9FFF789FC07E104EB4602FC
:10CEA000A888B2F808249042F4D001369E42F5DBFF
:10CEB000FCE0002900F0FA80D4F8F033002B00F0F9
:10CEC000F580052048E704EB4301A888B1F8081471
:10CED000884203F1010302D0DEB29642F3D3AB7B6A
:10CEE000AF89022B06D106F50173394634F81300D9
:10CEF000FFF76AFC94F84115002300E001338B42F0
:10CF000080F2D480D4F84425182000FB0322D08A74
:10CF1000B842F3D17823106803FB0641143105F1C0
:10CF200012022B7C00F072FEC0E02B7A03F00F039C
:10CF3000012B40F0BB80D4F8DC33002B00F0B6802E
:10CF400004F1140000E7B5F806A094F829240023A2
:10CF50005FFA83F9914508D204EB4301A888B1F840
:10CF60000814884203F10103F2D14FF0000894F84D
:10CF70000134984580F29A801423D4F8042403FBEA
:10CF800008F3D618318951450AD1782303FB0941AA
:10CF900030682B7C143105F1120200F008F985E0AD
:10CFA000B18951451AD1A97CEF7CD05841EA0727B5
:10CFB00007F00101C7F3400700297774317418BFE7
:10CFC000012700F004F9874208D0782303FB0941C8
:10CFD000306814313A4600F00AF967E008F10108B8
:10CFE000C5E704EB4300AE88B0F80804864203F1BD
:10CFF000010302D0DAB28A42F3D3D4F850142B8A58
:10D00000488A984202F5017304D1002234F81300D3
:10D01000134604E0002134F813000A460B46FFF7DC
:10D02000CBFB43E0297A61B994F82E34002B3DD034
:10D0300004F5866004F2344100221C23FFF74BFB09
:10D0400034E0D4F8F0338BB3012085E6062204F2F5
:10D05000564005F1080105F0B8FED4F8E4232AB3E0
:10D0600094F8291400238B4220DA04EB4300B0F833
:10D070000864A888864214D00133F4E7D4F8E82382
:10D08000A2B194F82904002300E0013383420DDAB1
:10D0900004EB4301B1F80864A988B142F5D1A4F8C2
:10D0A0001614782101FB0340143090475AB0BDE8B4
:10D0B000F087807A7047C0687047007C7047002016
:10D0C0007047C368585C704770B5056804460E46E3
:10D0D000ED6911461A46A8470123A374A36913B149
:10D0E00030462146984770BD036870B5044608462F
:10D0F0000D46DE6905F056FF2946C2B22046B0470C
:10D1000070BD0000044B10B504460360C06808B150
:10D1100005F044FE204610BD8856020010B50446B6
:10D12000FFF7F0FF204605F0FDF8204610BD10B5D2
:10D13000837A04469A4228BF1A460274C06805F0F2
:10D1400044FE606920B1036821461B68984710BD02
:10D15000012010BD70B504461646043042F60302A5
:10D160001D4600F0B7F80D4B23600021142D34BF8D
:10D170002B461423A372E16021746674A174E174D8
:10D18000616104F118000C2205F028FE1DB1A07A9F
:10D1900005F0FCFDE060204670BD00BF885602002F
:10D1A000407C704703460022807C9A74704770B5BB
:10D1B000056804460E46ED6911461A46A847012344
:10D1C000A374636A13B130462146984770BDC07C92
:10D1D0007047002A08B5C27414BF0722082203460C
:10D1E00050F8222012B108461946904708BD002A7F
:10D1F00008B5C27414BF2422282202440346526890
:10D2000012B108461946904708BD41617047704702
:10D210007047704700207047704770470020704784
:10D2200000207047002070470020704700207047A2
:10D230000020704700207047002070470020704792
:10D2400000207047002070470020704770477047EB
:10D2500070470000014B0360704700BFB8560200E2
:10D2600010B5034B0360044605F05CF8204610BD82
:10D27000B85602000E4B70B503604FF6FF73838003
:10D28000642300250446C3800126032305814581CC
:10D29000067345738373294606220F3005F09EFD01
:10D2A00084F820606575A561E561204670BD00BF0A
:10D2B000B8560200C16170470120704738B5044676
:10D2C0001D46FFF747FF024B25742360204638BDFB
:10D2D0002057020010B50446FFF7C8F9024B1A7830
:10D2E00001321A70204610BD9A480020014B187870
:10D2F000704700BF9A480020014B1860704700BF7C
:10D300009C48002010B5044602F090F8A08802F076
:10D31000FFF8012806D10B4B186848B1214600F0F0
:10D3200037F905E0022803D1074B186820B910BD72
:10D3300023881D2BF8D010BD2146BDE81040FFF713
:10D3400069BA00BF9C480020A0480020024B186822
:10D35000003018BF012070479C4800200A4603494E
:10D3600003460868194600F074BA00BF9C480020C4
:10D3700084B0F0B506AF87E80E003D4600F15004DA
:10D3800006460FCD0FC40FCD0FC495E8030084E807
:10D3900003000023FA185278F2540133062BF9D116
:10D3A0009DF82020C2F3C403D9B286F825300023AB
:10D3B000D8B2884205D2FC18F018647A847101331F
:10D3C000F6E7C2F3410386F82630C2F300029DF867
:10D3D0001F3086F8272086F82830BDE8F04004B0DA
:10D3E000704708B5006903681B6A984708BDA0F13B
:10D3F0000400FFF7F6BF08B5006903685B6A984749
:10D4000008BDA0F10400FFF7F6BF08B50069036886
:10D410009B6A984708BDA0F10400FFF7F6BF08B566
:10D4200000690368DB6A984708BDA0F10400FFF7B4
:10D43000F6BF08B5006903681B6B984708BDA0F1EB
:10D440000800FFF7F6BF08B5006903685B6B9847F3
:10D4500008BDA0F10800FFF7F6BF08B50069036832
:10D460009B6B984708BDA0F10800FFF7F6BF10B509
:10D4700000690468E46BA04710BDA0F10800FFF745
:10D48000F6BF08B5006903681B6C984708BDA0F19A
:10D490000800FFF7F6BF08B5006903685B6C9847A2
:10D4A00008BDA0F10800FFF7F6BF08B500690368E2
:10D4B0009B6C984708BDA0F10800FFF7F6BF08B5C0
:10D4C00000690368DB6C984708BDA0F10800FFF70E
:10D4D000F6BF08B5D0F8D83113B100F5E27098471F
:10D4E00008BD08B5D0F8DC3113B100F5E2709847FB
:10D4F00008BD08B5D0F8E03113B100F5E2709847E7
:10D5000008BD08B5D0F8E43113B100F5E2709847D2
:10D5100008BD10B5D0F8E84114B110461946A0472F
:10D5200010BD10B5146800F5E271646A10461A4621
:10D530009DF80830A04710BD70477047704738B558
:10D54000054600F5E27420461146FFF71DF9D5F8AF
:10D55000D0310BB12046984738BDD0F8D43110B542
:10D5600000F5E2740BB1204698472046BDE8104014
:10D57000FFF70EB900F5E27110461A46FFF729BE13
:10D5800000F5E27110461A469DF8003000F02CBB01
:10D5900008B500690368DB68984708BD08B50069ED
:10D5A00003681B69984708BD38B5D0F8E4300446D5
:10D5B0000D463BB900F0E8FA00B2800005F0E6FB4A
:10D5C000C4F8E40094F8E820D4F8E43043F822509A
:10D5D00094F8E830013384F8E83038BD38B50446B3
:10D5E0000D4608460021FFF7D3FF05F5E27107C994
:10D5F00084E80700204638BD10B50446FFF776FEE4
:10D6000000B2800005F0C2FB04F1EC03C4F8DC00BA
:10D610000360D4F8DC3004F1F8025A60D4F8DC304E
:10D6200004F594729A60D4F8DC3004F5AA72DA60DA
:10D63000D4F8DC3004F5B0721A61052384F8E030C8
:10D6400010BD70B5D0F8DC3086B004460BB9FFF7DA
:10D65000D3FF002594F8E0309D4213DAD4F8DC3093
:10D6600053F825603046FFF706F842F60303984268
:10D6700006D10EB1301F00E03046211DFFF7C5FD79
:10D680000135E7E7002594F8E8309D4214DAD4F834
:10D69000E43053F825603046FEF7EDFF42F6030311
:10D6A000984207D10EB1301F00E0304604F1080166
:10D6B00000F0BEFA0135E6E74BB1204604F5C6712D
:10D6C000FFF772FF204604F5CC71FFF76DFF20696C
:10D6D00094F8B810056894F8D93004F1B9020092B2
:10D6E000D4F8DC20019294F8E0200292D4F8E420EF
:10D6F000039294F8E8200492AD6804F19802A847D8
:10D70000206903681B6D984706B070BD38B5D0F826
:10D71000DC3004460D460BB9FFF76EFF94F8E020AD
:10D72000D4F8DC3043F8225094F8E030013384F828
:10D73000E03038BDFFF7EABF2DE9F0410F4619464A
:10D7400090F8B8301B2B144608D8C3F11C03934241
:10D7500004DB00F1980200F1B8050BE090F8D93035
:10D760001C2B49D8C3F11D03A34245DB00F1B902CC
:10D7700000F1D9050026935D02EB060863B398F823
:10D780000100B84205D001331E44F6B21E2EF2D974
:10D7900022E00A2F01D0192F06D1B01C10442246D6
:10D7A000BDE8F04105F011BB2F78274498F8000040
:10D7B00030440130013F03199F4203DB131BDB5D43
:10D7C000D355F3E71044224605F0FFFA98F80030ED
:10D7D000234488F800300CE02B78601CD0542B7860
:10D7E00013445F70287802301044224605F0EDFAA9
:10D7F00002342B781C442C70BDE8F08170B586B0E3
:10D800000546684600F07CFA684600F0ABFA03284B
:10D810000446684634BF0226062600F0A1FA3146C7
:10D82000034622462846FFF787FF06B070BD70B555
:10D83000054608460C4605F0B5FBC2B21D2A28462F
:10D84000234692BF092108211D22BDE87040FFF741
:10D8500073BF012938B5134604D1036801699B6879
:10D86000984738BD022904D1016801228D690169F8
:10D87000A84738BD154B10B503F174020360044688
:10D880008C3342608360FFF789FED4F8E40008B16E
:10D8900005F084FAD4F8DC0008B105F07FFA04F54D
:10D8A000CA7000F077F904F5AE70FFF72BFC04F5B1
:10D8B0009270FFF727FC04F1F400FFF723FC04F15A
:10D8C000140000F045FF204610BD00BF286502008F
:10D8D00010B50446FFF7CEFF204604F023FD204696
:10D8E00010BD37B502AC054624F8021D02222346BE
:10D8F0001921FFF721FF05F5927021460222FFF75B
:10D9000016FC03B030BD00002DE9F843784B794F89
:10D91000794E03F10802026003F17C0294338360C4
:10D920004FF0102304464260596904F114090C3089
:10D930000025FEF7A6FE484601F05AFB04F1F40864
:10D9400084F8B85084F8D950C4F8DC5084F8E0501A
:10D95000C4F8E45084F8E85004F1EC00674900F0A2
:10D9600071F94046664902221323FFF7F3FB0222B6
:10D97000134604F592706349FFF7ECFB394604F552
:10D98000AA7000F05FF904233146202204F5AE703E
:10D99000FFF7E0FB394604F5C67000F04BF95A4F2B
:10D9A0003146202204F5CA7000F004F9214604F53E
:10D9B000E270FEF7F2FE3946C4F8E85104F5F6705D
:10D9C000FC2205F002FA07F1FC0104F53A704FF46D
:10D9D000806205F0FAF9294604F5DD60682205F059
:10D9E000FDF94A4BC4F8E836494BC4F8EC36494BCC
:10D9F000C4F8F036484BC4F8F436484BC4F8F8364F
:10DA0000474BC4F8FC36474BC4F80037464BC4F8C4
:10DA10000437464BC4F80837454BC4F80C37454B20
:10DA2000C4F81037444BC4F81437444BC4F81837C3
:10DA3000434BC4F81C37434BC4F82037424BC4F85F
:10DA40002437424BC4F82837414BC4F82C37C4F86C
:10DA50003437404BC4F838373F4BC4F83C373F4B62
:10DA6000C4F840373E4BC4F844373E4A3E4BC4F8F6
:10DA7000302707F2FC47C4F848370FCF04F5EA66B1
:10DA80000FC697E80300182286E803002946C4F869
:10DA9000109004F5E87005F0A1F9294604F198000A
:10DAA000202205F09BF92022294604F1B90005F057
:10DAB00095F9022384F89830012384F899300623DD
:10DAC00084F89A30032384F8B83040462749FFF79A
:10DAD0000BFB20462946FFF704FF20692146FFF78C
:10DAE000E9FB2046FFF708FC2046BDE8F88300BFAD
:10DAF000206502007E5C0200835C02006F5C020015
:10DB0000745C0200795C020048570200885C0200E5
:10DB1000905C02009E5C0200BC5C0200E05C0200C3
:10DB2000FE5C02001D5D0200405D0200675D0200B8
:10DB3000945D0200AE5D0200E35D02000D5E020036
:10DB4000385E0200815E0200B55E0200D35E020014
:10DB5000F25E0200555F0200785F0200995F0200EA
:10DB600004600200155F0200486002007B60020052
:10DB700010B50446FEF77AFD024B1A7801321A708E
:10DB8000204610BDA4480020014B1878704700BF04
:10DB9000A4480020014B0360704700BFE06502000D
:10DBA00010B5034B0360044604F0BCFB204610BDD7
:10DBB000E065020038B504461546043042F603021B
:10DBC000FFF7D6FF0021074B2360A572E17284F8AE
:10DBD0002210616204F12800042205F0FFF82046BB
:10DBE00038BD00BFE065020038B50446C3720D467B
:10DBF0000C3011461A4605F0E8F8012384F822306B
:10DC0000A36A13B128462146984738BD38B5044663
:10DC1000C3720D460C3011461A4605F0D6F80123A2
:10DC200084F82230E36A13B128462146984738BD6C
:10DC30004162704710B54FF420520446FFF798FF39
:10DC4000204610BD10B54FF420520446FFF742FBAA
:10DC5000204610BD13B501230446FFF72FFB0B4BE5
:10DC600023600DF106000021012205F0B7F802A99A
:10DC70009DF8063001F8013D20460122FFF757FAD2
:10DC8000034B2360204602B010BD00BF8855020040
:10DC9000B855020070B586B005460E46684615496F
:10DCA00002F04AF805242B5D0F2B03D86846124971
:10DCB00002F092F8295D102203A802F060F868468D
:10DCC00003A902F084F803A801F0F4FF1CB1684630
:10DCD0000A4902F081F814F1FF34E4D26846314673
:10DCE0001222002302F087F8684601F0E3FF06B035
:10DCF00070BD00BF386C0200725C0200E865020073
:10DD0000F7B5044600232160037508460E468DF8DA
:10DD100004308DF805308DF8063005F043F9451EC6
:10DD2000002D1ADB277D0F2F17D8735D2D2B01D106
:10DD3000013510E0721901A812F8012C8DF80420A9
:10DD4000002110228DF8053005F0BEF9237D27440F
:10DD5000013338712375023DE2E7204603B0F0BD80
:10DD600004307047007D704771DF704772DF704785
:10DD700073DF704775DF704776DF704777DF704776
:10DD800078DF70477ADF70477CDF70477EDF70474F
:10DD900090DF704792DF704796DF704798DF7047DB
:10DDA00099DF7047A0DF7047A2DF7047A3DF70479D
:10DDB000A4DF7047A6DF7047A9DF704760DF7047B8
:10DDC00061DF704762DF704763DF704753DF704782
:10DDD00010DF704711DF704790F86800003018BFFF
:10DDE0000120704790F86800003018BF012070478C
:10DDF00070B590F8796002460023B34212DA180138
:10DE0000D56F2C18285888420AD1E08958B1207B58
:10DE1000C0F3400038B192F8800080F0010070BD7E
:10DE20000133EAE7002070BD70B590F879600023F7
:10DE3000B34219DA1C01C56F2A192C598C4211D131
:10DE4000D18999B1137BC3F340038BB1012380F8CF
:10DE5000803000228088FFF79FFFD0F1010038BF9B
:10DE6000002070BD0133E3E7002070BD084670BD9F
:10DE7000184670BD70B590F8796003460022B24232
:10DE80001ADA1001DD6F2C182858884212D1E08967
:10DE900098B1207B020704D593F8800080F0010040
:10DEA00070BDC0F3800040B193F86800003018BF27
:10DEB000012070BD0132E2E7002070BDF0B590F89E
:10DEC00079C085B0002464452FDA2601C76FBD19DB
:10DED000BE598E4227D1EC894CB32D7B15F00C0135
:10DEE00027D090F8681021B315F0080F0CBF022559
:10DEF0000125ADF80A300139012380F8803080F81F
:10DF000068108DF804508088ADF80640002501A9FE
:10DF10008DF80550ADF808500392FFF73FFF431B03
:10DF20005842584106E00134CDE7002002E0204687
:10DF300000E0084605B0F0BD70B590F879600023A8
:10DF4000B34210DA1C01C56F2A192C598C4208D132
:10DF5000D08948B1137B13F0300F0CBF0020012093
:10DF600070BD0133ECE7002070BD7FB590F879609B
:10DF70000023B3422FDA1C01C56F2A192C598C4299
:10DF800027D1D3894BB3127B12F0300127D0012166
:10DF900012F0100F0B440CBF02220A46ADF80630F7
:10DFA000022380F88010ADF802208DF804100022C2
:10DFB000ADF80A3080888DF805206B4401A9ADF8D2
:10DFC00008200393FFF7EAFED0F1010038BF0020DC
:10DFD00006E00133CDE7002002E0184600E00846E5
:10DFE00004B070BD08B503681B6C984708BD7FB5C9
:10DFF00090F879600023B3422BDA1C01C56F2A190F
:10E000002C598C4223D1D3892BB3127B12F03001CF
:10E010004FF0000221D001210B44ADF8063002235D
:10E0200080F880108DF80410ADF80A308088ADF8C3
:10E0300002206B4401A98DF80520ADF80820039358
:10E04000FFF7ACFED0F1010038BF002006E001333D
:10E05000D1E7002002E0184600E0084604B070BD99
:10E0600011F1270F08B514DB11F11D0F14DB11F1AD
:10E07000130F14DB11F10F0F14DB11F10B0F14DB75
:10E08000CA1D15DBCB1C16DB0029CCBF04200020E9
:10E0900013E06FF0270010E06FF01D000DE06FF04F
:10E0A00013000AE06FF00F0007E06FF00B0004E0D0
:10E0B0006FF0070001E06FF00300FFF75FFED0F1A3
:10E0C000010038BF002008BD80881321FFF754BE2F
:10E0D00037B504466846FFF747FEE06928B1026895
:10E0E0002146956A0DF10102A84703B030BD00003A
:10E0F00013B5044602A8002240F8042DFFF766FE7F
:10E10000019804F095FA0022074B04F0F7FA04F0A6
:10E11000B7FD00EE100AE06918B102682146D26A24
:10E12000904702B010BD00BF0000D03F704710B54F
:10E13000044686B068460021182204F04FFE237B77
:10E14000002B4FF000030CBF03221A468DF800206D
:10E15000E28801930A21120192FBF1F268468DF8E0
:10E1600008300393ADF81020ADF81230FFF700FE31
:10E1700006B010BD2DE9F041054690F869008EB05B
:10E180000C460023834260DA14225A43E96E8E184B
:10E190008A58A24207D12046FFF702F8C30754D598
:10E1A000736813B951E00133ECE795F8407005F15D
:10E1B00021013A4606A804F008FE236820461B69A0
:10E1C000984704300744FFB21F2F3ED87068FEF70F
:10E1D00050FA01466846FFF793FD236895F84060C2
:10E1E0001B69204698470EAB1E44033006F8200CEE
:10E1F00095F8406033441622684603F81F2CFFF759
:10E20000AFFD06AB0146B01C0222184404F0DDFD50
:10E2100095F8408006AB08F104089844236820462E
:10E22000DB689847236806461B69204698473146B5
:10E230000246404604F0C9FD002206A839461346AE
:10E24000FFF794FD6C64012000E000200EB0BDE8F3
:10E25000F0812DE9F0430446CDB00D4659B94FF495
:10E260008E7305A803A9ADF80C30FFF7A9FD0028AF
:10E2700040F0528205AD2B88302B00F00B810ED878
:10E28000112B5AD004D8012B1ED0102B23D043E2DF
:10E29000152B00F02982172B00F032823CE2382B3C
:10E2A00000F0C68106D8322B00F03E81362B00F0FC
:10E2B0009D8131E2502B00F0A480522B00F0E380CE
:10E2C000392B40F02982EDE12A7A94F86830134422
:10E2D00084F8683020E2002384F82030A888A080E9
:10E2E00003A9FFF76FFDE0699DF80C3084F86830F2
:10E2F00028B1036821461B6805F109029847228965
:10E30000052A12D96389B3F5486F0ED8ADF80E30DF
:10E310000023ADF81030A088ADF80C204FF4C8737E
:10E3200003A9ADF81230FFF725FD94F87030002BEB
:10E3300000F0F281A0880121D4E04FF6FF73A380A2
:10E340000026012384F8686084F8203094F869304E
:10E350009E421BDAD4F86C904FF0140808FB06F8C4
:10E3600009EB080300271F745F7459F80800FEF7D3
:10E370002EFF48B1E06938B1036859F80820D3F896
:10E3800020C021463B46E0470136DFE7E06950B157
:10E39000036821469E692B7A0022B047E069036832
:10E3A00021465B689847002594F870309D420ADA50
:10E3B000636F0C2202FB053008300021042204F0B8
:10E3C0000DFD0135F0E7002594F879309D420DDA16
:10E3D000E06F2E0130440C300021012204F0FEFCDD
:10E3E000E36F1E440023F3810135EDE7002384F839
:10E3F0008030236820469B699847022384F82030A8
:10E400008AE1B5F806904FF0000894F86930984515
:10E4100080F282811423E26E03FB08F3D61831895F
:10E4200049450DD1E069002800F0768103682A7C17
:10E430000092DF693268214605F11203B8476BE1AB
:10E44000B18949451CD1A97CEF7CD05841EA072706
:10E4500007F00101C7F3400700297774317418BF32
:10E460000127FEF7B4FE87420AD0E069002800F0D9
:10E470005381036832681D6A21463B46A8474BE139
:10E4800008F10108C1E70021A0880A460B46FFF702
:10E4900093FC41E1EB884BBBAF892A46BB421BDAB8
:10E4A00094F870E00021714513DA606F92F810C0A3
:10E4B0000C2606FB0106B079844508D1B2F80EC0DF
:10E4C000B088844503D1D2F81200B06001E0013178
:10E4D000E9E701330832E1E705EBC705A088A98920
:10E4E000013189B20022FFF753FC15E140F201121D
:10E4F000934210D194F870000023834280F20C8183
:10E50000626F0C2101FB03210A8912B14A89002A9A
:10E510005DD10133F1E7E069002800F0FD80026879
:10E520002146956902225FE0EB88002B37D194F8F1
:10E530007820606FAF8902EB420200EB82029268A2
:10E540000392BB4226DA002194F8792091421BDA2B
:10E55000E26F94F8786002EB011206EB460650F881
:10E5600026E05668B6450DD195F810E0967AB64586
:10E5700008D1B5F80EE01689B64503D1AE7C167306
:10E58000EE8AD6810131DFE7EA8AADF80C2001334B
:10E590000A35D6E7A08803A9FFF7FCFBBCE0B3F57A
:10E5A000857F19D194F8783094F8700001330C22EB
:10E5B0005A4301E001330C32834280F2A880616F3C
:10E5C00011440D89002DF5D04D89002DF2D084F82D
:10E5D0007830A0880831DFE7E069002800F09C80EF
:10E5E0000268214695690322A84795E0002684F831
:10E5F0008060EB8840F20512934202D1A2690ABB07
:10E600000EE06BB9A88994F879108B4280F284806F
:10E61000E26F02EB0312D68986424FD00133F4E752
:10E62000E069002878D00268214695690422DBE77A
:10E63000002684F88060EB8840F20512934227D1CF
:10E64000A2693AB3314603A8052204F0C7FB9DF83E
:10E650000F30627BA08843F001038DF80F309DF8E6
:10E660000C3043F0010303F0FB0362F34103A27B90
:10E6700062F3061366F3C7138DF80C3007238DF889
:10E680000D3003A910238DF80E30FFF77FFB43E018
:10E69000002B41D0E06900283ED0026821469569F0
:10E6A0000522A1E7AB7BAE89022B03D1A0883146BE
:10E6B000FFF776FB94F87910002312E0E06958B375
:10E6C0000368297C00915E6A1268214605F11203F5
:10E6D000B04721E0E26F02EB0312D089B042EDD0E7
:10E6E00001338B42F6DB17E004F10F0005F108015E
:10E6F000062204F06AFBE06970B103681B6903E05D
:10E70000E06948B103685B692146984704E0E06925
:10E7100010B10368DB68F7E74DB0BDE8F08310B5D2
:10E720000446FFF757FBE06F08B104F037FB606F5A
:10E7300008B104F033FBE06E08B104F02FFB0023B6
:10E7400084F8693084F8703084F8793010BD0000A6
:10E7500010B5054B03600446FFF7E1FF2046FEF7C6
:10E7600079FD204610BD00BFF865020010B50446D3
:10E77000FFF7EEFF204603F0D5FD204610BD13B590
:10E780001288ADF800200446ADF802106A46214612
:10E790004FF6FF700193FFF70BFB02B010BD0000B6
:10E7A0002DE9F04F9B46BE4BE7B0044618680A902F
:10E7B0000E46924600219DF8C82103920AA8DDF872
:10E7C000C4819DF8D071FFF703FB1422B54B0B9366
:10E7D00000210FA804F002FB0A23ADF83C309DF89D
:10E7E000483043F0010300250BA98DF848300FA8ED
:10E7F00001238DF8443013958DF845508DF846501F
:10E80000FFF7DCFA2823ADF834305023ADF836306A
:10E810000DA84FF4C873ADF83A3004F12109ADF8F2
:10E820003850FFF7AFFA2846FFF7A8FA51463246AC
:10E83000484604F0CAFA84F8406048463146709A67
:10E840005B46FFF793FA2846FFF79AFA039B9D422F
:10E850000EDA58F82500FDF70EFF42F60303984242
:10E8600004D194F86930013384F869300135EDE75B
:10E8700094F869000338C0B284F8690000EB8000A6
:10E88000800004F083FA0026A8F10402E066ADF8E7
:10E890001C6002920496B046039A964280F201826E
:10E8A000029B53F8045F02932846FDF7E2FE0146FF
:10E8B00019A8FFF725FA19A8FFF752FA814619A8F7
:10E8C000FFF750FA02280BD199F8012099F800308F
:10E8D00043EA0223ADF8303001238DF8323016E0E0
:10E8E0004946102226A804F070FA99F80D2099F8EC
:10E8F0000C3043EA0223ADF8303026A800230DF196
:10E9000032018DF8A5308DF8A430FFF75DFA284666
:10E91000FDF7B1FEB0F5205F284611D1FDF7A9FE45
:10E92000614904F02DFB002800F0B9812846FDF76D
:10E93000A0FE5E4904F024FB002800F0B0816FE2E5
:10E94000FDF799FE42F60303984240F07A8105B143
:10E95000043D05F104094846FDF78BFE544904F0D7
:10E960000FFBB8B99DF89830012262F3030362F3FC
:10E9700007138DF898302B682846DB6898472B687A
:10E9800081461B69284698474946024626A8FFF754
:10E99000FBF984E14846FDF76CFE464904F0F0FAC5
:10E9A00038B92B682846DB6898470088FFF7E8F9F4
:10E9B00075E14846FDF75DFE3F4904F0E1FA0028A5
:10E9C00000F06D812846FEF7EBFB20F001008DF88A
:10E9D0001B002B6828461B699847E26EADF81E00A5
:10E9E00008EB88014FEA810902EB09034FF0000AA6
:10E9F00042F82150049A5A6083F810A083F811A0BD
:10EA000051461C221FA804F0E9F91FA80DF11B01B3
:10EA1000012204F0DAF99DF81B30CDF880A013F044
:10EA2000300FCDF888A0CDF88CA0CDF890A0CDF80F
:10EA300094A01FD00DF1200B03225846514604F03C
:10EA4000CDF99BF80020CDF890B0012363F30302C9
:10EA500063F307128BF800209BF8012063F3030295
:10EA600063F307128BF801209BF8022063F3420244
:10EA70008BF8022009A80021032204F0AFF99DF8C9
:10EA80001B3013F0320F22D0A069B8B1FDF70CFE95
:10EA9000A0B99DF82430012262F30303022212E0A0
:10EAA000EA650200004000206F5C02007E5C02000C
:10EAB000745C0200795C0200835C02009DF82430E3
:10EAC000012262F3030362F307138DF824309DF8EB
:10EAD0001B3013F00C0F14D0A06948B1FDF7E4FD12
:10EAE00030B99DF82530012262F30303022204E0CD
:10EAF0009DF82530012262F3030362F307138DF8BA
:10EB000025309DF82630012262F3420303F0F7031B
:10EB10006FF304138DF826302B6828469B699847BD
:10EB20009DF8263080F0010060F300038DF8263058
:10EB3000029B059306F1010A039B9A4509DA059A9F
:10EB400052F804BF05925846FDF795FDB0F5245FD5
:10EB500025D00021142214A804F040F90CAB149322
:10EB600009AB1593BDF81E30ADF858302B684FF047
:10EB7000000A9B68ADF85AA028469847E36EADF8A6
:10EB80005C004B44083350461FA914AACDF860A07E
:10EB9000FFF70AF9BDF81E30002B35D14CE0BBF170
:10EBA000000F01D0ABF1040B0BF1040210460192EF
:10EBB000FDF75FFD9E4904F0E3F9019AA0B9DBF887
:10EBC00000205846926890472090DBF80020584675
:10EBD000D2689047DBF80020ADF88400D268584630
:10EBE0009047ADF886000CE01046FDF742FD9149D4
:10EBF00004F0C6F928B9DBF800205846926890471F
:10EC000022900AF1010A97E7BDF81E309A450ADA08
:10EC10002B6851465B692846984726AB03F80A00E3
:10EC20000AF1010AF0E7E36E4B44002118890DF167
:10EC30001E0226ABFFF7A3FD08F101085FFA88F872
:10EC40002DE02846FDF717FDB0F5245F27D105B16B
:10EC5000043D05F104094846FDF70BFD744904F035
:10EC60008FF9E0B14846FDF704FD734904F088F9D7
:10EC7000A8B14846FDF7FDFC704904F081F970B178
:10EC80004846FDF7F6FC6B4904F07AF938B1D7E055
:10EC9000BDF81C00002109AA26ABFFF770FD013664
:10ECA000FAE50FB1023FFFB20025BD421CDA739BAB
:10ECB00053F825603046FDF7DEFCB0F5205F05D146
:10ECC00094F87030013384F870300BE03046FDF773
:10ECD000D2FC42F60303984204D194F87930013310
:10ECE00084F879300135E0E794F8700000EB4000DB
:10ECF000800004F04BF8606794F87900000104F09C
:10ED000045F80026E067B146B046B246BE4276DA24
:10ED1000739A52F826502846FDF7ABFC014626A808
:10ED2000FEF7EEFF26A8FFF71BF8834626A8FFF79D
:10ED300019F802280BD19BF801209BF8003043EA18
:10ED40000223ADF8643001238DF8663016E0594691
:10ED500010221FA804F039F89BF80D209BF80C3006
:10ED600043EA0223ADF864301FA800230DF16601C9
:10ED70008DF889308DF88830FFF726F82846FDF7A2
:10ED80007AFCB0F5205F15D1626F08EB48018B006B
:10ED9000D01842F82150199A4260606F1844083028
:10EDA0000021042208F1010804F018F85FFA88F83D
:10EDB000AA4622E02846FDF75EFC42F6030398428D
:10EDC0001BD1E26F4FEA091B02EB0B0305B1043DB7
:10EDD00042F80B50C3F804A0199A9A60E06F5844A7
:10EDE00001220C30002103F0F9FFE36F5B440022A5
:10EDF00009F10109DA815FFA89F9013686E7A0692C
:10EE000020B1FDF751FC002840F0848023682046A3
:10EE10009B699847022384F8203067B0BDE8F08FE3
:10EE200001200CA907AAFEF7BDFF049537E700BF34
:10EE3000586602005D6602006266020067660200B4
:10EE40002B682846DB6898470DF1500AADF824007E
:10EE5000002114221FA803F0C1FF00210322504605
:10EE600003F0BCFF9AF80230BDF824B04FF001095E
:10EE700069F342038AF802302B682846DB6898471A
:10EE80009AF80230BBEB000018BF012060F30003CA
:10EE9000A0698AF8023010B1FDF706FC28B19AF893
:10EEA0000030012262F3030304E09AF800300222EA
:10EEB00069F3030362F307138AF800300CAB1F9366
:10EEC000CDF880A0BDF82430ADF884302B682846FA
:10EED000DB6898474FF00009ADF888001FA9484645
:10EEE00007AACDF88C90FEF761FFBDF82430002B07
:10EEF0003FF4D5AEBDF824309945BFF6C9AE2B68B6
:10EF000049461B692846984726AB03F8090009F1D2
:10EF10000109EFE7A06904F1480100221C23FDF775
:10EF2000EDFB73E72DE9F047044686B00D46002659
:10EF30004FF0010994F869309E4254DA1423734368
:10EF4000E26ED718D358AB424BD1636C9D4204D1CB
:10EF5000236820465B6A294698472B6828461B6928
:10EF600098470DF118082B6828F8120DDB68B7F8E0
:10EF700008A0284698470021034642465046FFF71E
:10EF8000FEFB02A80021102203F028FF3B89ADF808
:10EF900008300023ADF80C3005933B7CCDF8108091
:10EFA00073B194F8683053B1013B84F86830A0889D
:10EFB000012302A98DF80A30FEF7FCFE00E0994615
:10EFC0007B7C73B194F8683053B1013B84F86830AE
:10EFD000A088022302A98DF80A30FEF7EBFE00E0BC
:10EFE00099460136A6E7484606B0BDE8F08700001E
:10EFF00010B50446FEF73EF900210E4B236004F1E4
:10F00000480084F84010616484F8681084F869103E
:10F01000E16684F87010616784F8781084F87910DC
:10F02000E16784F8801060661C2203F0D7FE20465A
:10F0300010BD00BFF865020002480E210F2200F04B
:10F040002BBD00BFA84800200B490C4A0C4B9B1A53
:10F0500003DD043BC858D050FBDC0949094A0020B5
:10F06000521A02DD043A8850FCDC00F031F803F05B
:10F0700067FE00F0D9FE0000407002000040002052
:10F08000CC400020704F0020FEE7FEE7FEE7FEE7E1
:10F09000FEE7FEE7FEE7FEE7FEE7FEE7024B1A6843
:10F0A00001321A60704700BF0449002070B5044661
:10F0B00048B1054B1D681E4600F008F83268631E13
:10F0C000521B9A42F8D970BD0449002070470000D5
:10F0D000944B1B78062B0AD1934B1B681A0706D159
:10F0E000924B1B6803F0F003302B00F0AA808D4B8D
:10F0F0001B78062B0FD18C4B1B681B070BD18B4B3E
:10F100001B6803F0F002302A00F09F8003F0E00358
:10F11000402B00F09A80834B1B78062B0AD1824B40
:10F120001B68180706D1814B1B6803F0F003302BD6
:10F1300000F092807B4B1B78062B0FD17A4B1B681B
:10F1400019070BD1794B1B6803F0F002302A00F04D
:10F15000898003F0E003402B00F08480714B1B7822
:10F16000062B09D1704B1B681A0705D16F4B1B6822
:10F1700003F0F003302B7FD06A4B1B78062B0AD1AB
:10F18000694B1B6813F00F0305D1684A126802F03F
:10F19000F002302A74D0634B1B78062B09D1624BE6
:10F1A0001B681B0705D1614B1B6803F0F003502B54
:10F1B00070D05F4BD3F8882042F47002C3F88820E7
:10F1C000BFF34F8FBFF36F8F4FF01023D3F80022A0
:10F1D000002A03DBD3F80432002B2EDA554B012230
:10F1E000C3F80425D3F80024002AFBD04FF01022E6
:10F1F0001521C2F80012D3F80024002AFBD04FF0EA
:10F2000010231522C3F804224A4BD3F80024002A05
:10F21000FAD00022C3F80425D3F80024002AFBD03A
:10F22000BFF34F8F424A444BD16801F4E0610B4376
:10F23000D360BFF34F8F00BFFDE7404B404A1A60D9
:10F240007047404B404A1A6051E7404B1A68404BA8
:10F25000C2F342321A605EE73E4BDA6822F08072F7
:10F26000DA6067E74FF080430022C3F80C21C3F84F
:10F270001021C3F8382571E7374B03221A607BE76A
:10F28000364A05211160012191679360344B3F227A
:10F290001A6080E74FF08052324BD2F80414C3F862
:10F2A0002015D2F80814C3F82415D2F80C14C3F8AA
:10F2B0002815D2F81014C3F82C15D2F81414C3F87A
:10F2C0003015D2F81814C3F83415D2F81C14C3F84A
:10F2D0004015D2F82014C3F84415D2F82414C3F80A
:10F2E0004815D2F82814C3F84C15D2F82C14C3F8DA
:10F2F0005015D2F83014C3F85415D2F83414C3F8AA
:10F300006015D2F83814C3F86415D2F83C14C3F869
:10F310006815D2F84014C3F86C15D2F84424C3F829
:10F32000702546E7E00F00F0E40F00F0E80F00F072
:10F3300000ED00E000E001400400FA050440002078
:10F340000090D00374C007400DF0ADBA4402001025
:10F350003C050040F0ED00E0A005004010560040E4
:10F360001456004000C00040A0F10A03032B10B562
:10F3700003D8D1F1010138BF0021A0F12603042BED
:10F3800013D90A4B142202FB003090F908300133E4
:10F390000BD0426801244FF0A04304FA02F211B9E5
:10F3A000C3F80C2510BDC3F8082510BD6C6602001B
:10F3B0001D4B142210B502FB003494F908400134AF
:10F3C00031D004292FD8DFE801F0031C0A2E1100E8
:10F3D00002FB00300021426802F5E0720CE002FB03
:10F3E00000300C21426802F5E07205E002FB0030BB
:10F3F0000421426802F5E0724FF0A04343F8221066
:10F4000010BD02FB003301225B689A404FF0A0431D
:10F41000C3F81825A0F10A03032B04D80021BDE886
:10F420001040FFF7A1BF10BD6C660200F0B5038865
:10F43000112B89B0044644D01A2B48D0102B60D130
:10F44000314E727D337D03A8311D23EA020200F0A4
:10F4500014F90025039B9D420DD203AA02EB45033C
:10F460002A489B880022009200F110011D2200F022
:10F47000CAF80135EEE7307DA788234DC043C0B2FE
:10F4800000F0B3F84FF6FF73984237D005EB400019
:10F4900005F1150187803A46281D012300F0D3F8B5
:10F4A000281D05F114013A46012300F0CCF8A37D94
:10F4B000A2889C1E634205F1040005F11601634118
:10F4C00019E01248A28800F11101002313E0037A29
:10F4D0000E48A2881F2B00F1130194BF00230123C3
:10F4E00000F0B1F8237A0948A2882F2B00F114010B
:10F4F00094BF0023012300F0A6F802E0042000F0EE
:10F5000066F809B0F0BD00BF084900200C49002092
:10F5100038B5094C0546217D201D2A4600F09CF88F
:10F5200040B1201DA17D2A4600F096F800280CBFAE
:10F530000120022038BD00BF0849002082B00190A0
:10F54000019B002B41D0019B013B019340F2E7302E
:10F55000013800BF00BF00BF00BF00BF00BF00BF39
:10F5600000BF00BF00BF00BF00BF00BF00BF00BFA3
:10F5700000BF00BF00BF00BF00BF00BF00BF00BF93
:10F5800000BF00BF00BF00BF00BF00BF00BF00BF83
:10F5900000BF00BF00BF00BF00BF00BF00BF00BF73
:10F5A00000BF00BF00BF00BF00BF00BF00BF00BF63
:10F5B00000BF00BF00BF00BF00BF00BF00BF00BF53
:10F5C00000BF00BF00BFC3D1BAE702B070471FB58C
:10F5D0000021039001AA44F20100ADF80410029149
:10F5E000AFF3008005B05DF804FB002340FA03F19F
:10F5F000C9079AB205D40133082BF7D14FF6FF7033
:10F6000070471046704770B59DF81050D0B1C9B121
:10F61000C2B1002430F814609E4210D1012303FAD5
:10F6200004F4E4B2E643F6B20023C85C0DB1204313
:10F6300000E03040C85401339342F6D170BD01342C
:10F64000082CE7D170BD13B5144600930122234660
:10F65000FFF7D9FF02B010BD10B568B1002330F834
:10F660001340944204D141FA03F303F0010010BDAA
:10F670000133082BF3D1002010BD70B579B1002300
:10F680001C4642FA04F5ED0705D500EB430531F8B9
:10F690001460AE8001330134082CF2D100E00B4637
:10F6A000036070BD72DF704773DF704774DF7047AF
:10F6B00076DF70477ADF70477CDF7047A7DF7047DF
:10F6C00030B50B78152B85B0054615D104230C4CAD
:10F6D00002930DEB0301039401F0D4F960B92368A0
:10F6E000DB0706D5074B0C2118884FF6FF72FFF792
:10F6F000E5FF284601F01CFA002005B030BD00BF30
:10F700003C4900200A40002008B5094B18884FF6F4
:10F71000FF73984203D01321FFF7CAFF01E0FFF700
:10F72000C5FF4FF4FA70BDE80840FFF707BF00BF00
:10F730000A40002010B5044686B08088FFF7E8FE36
:10F740001B4B1B7863B302282AD0A37D022B27D042
:10F75000204601F03BFB1748214600F059FD238865
:10F76000102B1AD0112B1BD1134B4FF6FF721A809E
:10F7700068460021182203F031FB0023A0226846CE
:10F780008DF8003001938DF808300393ADF8102008
:10F79000ADF81230FFF788FF02E0074BA2881A800D
:10F7A000064B13B12046FDF7ADFD06B010BD00BFFE
:10F7B00008400020444900200A40002005D30100F1
:10F7C00030B585B004AD002405F8104D02F038F9CD
:10F7D000684601F047F821460DF10900052203F0C3
:10F7E000FDFA144A9DF809301278134862F30003B9
:10F7F000124A127862F34103114A127862F38203CB
:10F80000104A127803F0F70362F3061364F3C71388
:10F810008DF8093007238DF80A3010238DF80B304E
:10F82000094B019301A901238DF8083001F086F8F6
:10F8300005B030BD0C400020404900204149002067
:10F840004249002009400020C1F6010070B5414E38
:10F850008CB0FFF7B5FF06B3FDF778FDE8B10C22D9
:10F86000002101A803F0BAFA3B4B02930023039353
:10F8700001A901233948ADF8043000F04BFB3848AA
:10F8800002F08CFB374B187802F08EFB002E4AD02A
:10F89000FDF75CFD002846D059E09DF80030324865
:10F8A000012262F303030CAC62F3071304F8303D4A
:10F8B00003F078FB2C4982B26846FFF7FDFE002179
:10F8C000082201A803F08AFA4FF4A073ADF80430BF
:10F8D0004FF402730024ADF8063001A84FF4C8734A
:10F8E000ADF80A30ADF80840FFF7E4FE21461F22CC
:10F8F00004A803F073FA1C4803F054FBC5B26B1C58
:10F900008DF810302A4609230DF1120016498DF8A2
:10F91000113003F05AFAA91C04A8C9B222462346A2
:10F92000FFF7C0FE9BE7182204A8002103F056FA57
:10F930000023A02204A88DF8103005938DF818300C
:10F940000793ADF82020ADF82230FFF7ADFE0CB0E4
:10F9500070BD00BF4DD30100151E020044490020B8
:10F9600009F7010040490020B0680200014B1878F7
:10F97000704700BF0840002008B5024B0BB1FDF7EF
:10F98000EDFC08BD5DD30100F8B506460C468F18A6
:10F990000025BC4207D0336814F8011B1B683046B1
:10F9A00098470544F5E72846F8BD70B505460C466E
:10F9B00049B1036808465E6803F0F4FA214602463E
:10F9C0002846B04770BD084670BD08B5FFF7EDFF8B
:10F9D00008BD000008B50249FFF7E7FF08BD00BFFA
:10F9E000366C020038B50446FFF7DFFF05462046B7
:10F9F000FFF7F0FF284438BD38B50446FFF7D5FFC0
:10FA000005462046FFF7E6FF284438BD0120704731
:10FA1000064B1970064B00221A60064A012111603C
:10FA20001A68002AFCD00120704700BF74490020EA
:10FA300020210040082000400C4BD3F8002222F087
:10FA40002002C3F800220A4A012111601022C3F8E3
:10FA500008230022C3F800254FF0FF32C3F80C251D
:10FA60001030C3F8142502F0B5BB00BF00200040E1
:10FA700004200040024B01221A60103002F0AABBA1
:10FA800008200040103002F0B7BB103002F0BABBC3
:10FA9000103002F0A3BB000070B5002343604FF4A8
:10FAA0007A7304468360064B40F8103B0D461646B9
:10FAB00002F07AFB84F8585084F85960204670BDF3
:10FAC000D8680200034B00221A60034B10301978EB
:10FAD00002F075BB1021004075490020B1F5E16FBF
:10FAE00037D3B1F5616F37D3B1F5E15F37D342F664
:10FAF000DF63994235D944F29F13994233D945F6D1
:10FB0000BF53994231D948F23F3399422FD94BF62E
:10FB10007F3399422DD903F5964399422CD903F5A9
:10FB2000E14399422BD903F59633994229D91B4BCE
:10FB3000994229D903F5E133994228D9184B9942C2
:10FB400028D9184881428CBF4FF080504FF0706028
:10FB500070474FF49E2070474FF41D2070471248A5
:10FB60007047124870471248704712487047124851
:10FB700070474FF41D0070474FF46B0070470F48FB
:10FB800070474FF0EB7070474FF06C7070474FF05C
:10FB9000806070474FF0E860704700BF47AA0300DD
:10FBA000FF8B0A001FA90E0000B0130000502700B1
:10FBB00000F03A0000A04E0000C0750000903A012D
:10FBC00001F00F0101290CBF0E200020704700003A
:10FBD0002DE9F0412B4C2C4BC4F8443501262B4B1E
:10FBE000C4F848650546C4F83435C4F838650F468E
:10FBF00090F8580000219046FFF7DAFB95F859007D
:10FC00003146FFF7D5FB95F859003146FFF7ACFBBD
:10FC100039462846FFF762FF4146C4F824052846C6
:10FC2000FFF7CEFFC4F86C0595F8591095F8580009
:10FC3000174B142202FB013102FB003349685B6859
:10FC4000C4F80C15C4F814350823C4F80035102383
:10FC5000C4F804330F4BC02283F802230422C3F8F4
:10FC600080211A600C4B00221A60D4F8003243F055
:10FC70002003C4F800322660084B1B68002BFBD021
:10FC8000BDE8F08100200040744900207549002043
:10FC90006C66020000E100E0102100404C210040B1
:10FCA0001322FFF795BF00000148FFF70BBF00BF0D
:10FCB000A848002010B50446006803F06FF82046FD
:10FCC00010BD10B50446006808B103F067F80023C2
:10FCD0002360A360636010BD38B504460D4600681C
:10FCE000013103F033F910B184E82100012038BD5F
:10FCF000036810B5044613B143688B4207D220460F
:10FD0000FFF7EAFF20B1A3680BB922681370012046
:10FD100010BD70B50E46114604461546FFF7E8FFC4
:10FD200018B92046FFF7CDFF04E0A56020683146F2
:10FD300003F030F9204670BD38B500230446036057
:10FD4000436083600D4639B1084603F02BF929461C
:10FD500002462046FFF7DDFF204638BD38B5054690
:10FD60000C4641B1084603F01DF9214602462846DB
:10FD7000FFF7CFFF01E0FFF7A4FF284638BD1FB50E
:10FD800000230446036043608360084601A900F035
:10FD900096F8204601A9FFF7E1FF204604B010BD08
:10FDA00070B5044685680E4609B9002070BD62B181
:10FDB00015442946FFF79CFF0028F6D02068A36869
:10FDC0003146184403F0E6F8A560012070BD0B46EB
:10FDD00009689A68FFF7E4BF38B505460C4608463F
:10FDE00041B103F0DFF8214602462846BDE838401D
:10FDF000FFF7D6BF38BD38B50C469AB191B18168CE
:10FE00008B4202D30023237038BDC91A551E8D4280
:10FE100028BF0D4601682A461944204603F0CAF857
:10FE20000023635538BD000008B500F04BF80020F2
:10FE3000FFF73CF90A4802F00DFA0A4802F05CF9B3
:10FE4000FCF7DAFBFFF792FD08B1FFF7FFFCFCF7C8
:10FE50003BFB054B002BFAD0AFF30080F7E700BF68
:10FE6000D44D002035F701000000000070B58AB0C5
:10FE700001B3931E222B1FD801AB1D4670B1B0FBFE
:10FE8000F2F602FB1604092C3046D8BF303403F1D9
:10FE90000106C8BF57341C703346EFE7AB42EED0C3
:10FEA0000A46AB4204D913F8010D02F8010BF8E73A
:10FEB00000231370084600E000200AB070BDFFF771
:10FEC000D5BF00000A4B1A684FF47A73B2FBF3F205
:10FED000013AB2F1807F0AD2064B5A60064AE0210D
:10FEE00082F8231000229A6007221A607047FEE70A
:10FEF0000440002010E000E000ED00E0A0DF7047CB
:10FF0000A2DF7047A5DF7047A6DF7047A8DF704704
:10FF100063DF70472DE9F047884694B00546002816
:10FF200000F03681002900F033814B68002B00F08F
:10FF30002F814FF6FF730380994B04AA03F110063B
:10FF4000174618685968144603C40833B34222465A
:10FF5000F7D114AE41F2305338460DF10A0126F8BC
:10FF6000483DFFF7D5FF002840F0148101203146BD
:10FF70002A1DFFF7C3FF0446002840F00C819DF8BE
:10FF80000A30AB7121461C220DA802F027FF9DF814
:10FF900034300E9443F004038DF8343001AFAB7964
:10FFA0008DF80E30214641F2325303223846109428
:10FFB000119412941394ADF80C3002F00FFF9DF8D9
:10FFC000043064F3030364F307138DF804309DF8E1
:10FFD0000530012666F3030366F307138DF8053039
:10FFE0009DF8063066F3420364F3C30364F304131D
:10FFF000DBB233432146142208A88DF806300DF1F8
:020000022000DC
:100000000C0902F0EBFE4FF0140AA888ADF8284066
:100010000DA908AA05F10803ADF82A400C94CDF803
:1000200020900997ADF82CA0FFF76AFF044600283E
:1000300040F0B18021461C220DA802F0CFFE9DF8B1
:1000400034300E9443F018038DF83430AB798DF8CA
:100050000E30214641F23153032238461094119458
:1000600012941394ADF80C3002F0B8FE9DF80430F1
:1000700064F3030364F307138DF804309DF805302F
:1000800066F3030366F307138DF805309DF8063019
:1000900066F3420364F3C303DBB243F0110321466A
:1000A000524608A88DF8063002F098FE1723ADF8E6
:1000B0002C30A888ADF828400DA908AA05F1100336
:1000C000ADF82A400C94CDF820900997FFF718FF5F
:1000D000044600285FD121461C220DA802F07EFEB6
:1000E0009DF834300E9443F002038DF83430AB7930
:1000F0008DF80E30214641F23453032238461094D5
:10010000119412941394ADF80C3002F067FE9DF830
:10011000043066F3030366F307138DF804309DF88B
:10012000053064F3030364F307138DF805309DF87D
:10013000063066F3420364F3C30364F30413DBB2D3
:1001400033432146524608A88DF8063002F046FE99
:100150000223ADF82830ADF82C30A888ADF82A403D
:100160000DA908AA05F12003CDF820900997CDF834
:100170003080FFF7C5FE044668B9D8F80430AB629A
:10018000D8F8083003B1EB62064B01221A7002E086
:100190000E2400E00446204614B0BDE8F08700BFFE
:1001A000006902007649002030B5044687B030B3BC
:1001B00000884FF6FF73984223D0134B1B7803B38C
:1001C000124D102369700321ADF80610AA7002A821
:1001D0001A4600212B7002F001FE238AADF8083088
:1001E00001238DF80A300023ADF80C3020880595E6
:1001F0000DF1060302A90493FFF786FE02E00E202C
:1002000000E0082007B030BD764900207749002083
:1002100070B50D4688B00446002800F0C380002960
:1002200000F0C080826A002A00F0BC800B88112B8D
:100230001BD004D8102B40F0B5808B8817E0502BD2
:1002400002D0512B15D0ADE0C9880389994240F006
:10025000A98008238DF81030123535F8023C8DF84E
:100260001830059504A990479CE04FF6FF73238052
:1002700098E08B79022B40F095800A89038A9A4294
:1002800040F090808B7B043B022B40F28B809DF8EA
:10029000163043F001038DF816300B8AADF8183094
:1002A0004B8AADF81A30022601F11403082200210E
:1002B00001A88DF81060079302F090FD00230DEB6C
:1002C000030202922088A18AADF8046001AAADF869
:1002D0000630FFF717FE064618B1E36A2BB19847C0
:1002E00003E09DF80030DB0708D440F2FD132088BE
:1002F000ADF8143004A9FFF709FE4FE0ADF8140083
:1003000004A92088FFF702FE002847D1297D4B1E53
:10031000072B3FD8DFE803F0040E1D1F21233C25E7
:100320006B8A8DF80460012B02D82046012109E078
:10033000012309E06A8A01239A428DF8043003D828
:1003400020460221062227E015358DF80C30029553
:1003500019E0022315E0032313E0042311E0052331
:100360000FE06B8A022B02D82046082113E0AA7DF9
:100370006B7D43EA0223ADF808300BB9072300E098
:1003800006238DF80430A36A204601A9984709E0A6
:100390000923F6E720460322FFF706FF10B1E36AC0
:1003A00003B1984708B070BD7FDF704786DF7047A4
:1003B000A7DF7047A9DF7047AADF704700207047AA
:1003C00000207047002070470020704700207047D1
:1003D00000207047002070472DE9F34704460F4680
:1003E0002B48A1786A4601F0DFFB00284DD1294B4C
:1003F00062780C2101FB02319946897A11F0400F95
:1004000009D1022F07D0012F07D12348A178234E0D
:1004100002F084FD02E0224E00E0224EDFF89880D8
:10042000A1781C2505FB01812A4600236846B047B8
:10043000A178824605FB01811B482A46002302F071
:100440006DFDBAF1000F12D1022F1ED063780C227D
:1004500002FB039368469A7A22F040029A7261780E
:10046000124B2A4605FB01312B46B04701E0022F13
:100470000BD00F4A23780C2101FB032368469A7A9C
:100480000C4B214653F82230984702B0BDE8F08764
:10049000DC4A0020A449002020690200F91B020068
:1004A000711C0200BD0302005C6902008C4A00203E
:1004B000CC4A002010690200B04900202DE9F84321
:1004C00043782B492B4F24225A438046881844688E
:1004D00074B10C2000FB0370807A050607D5400636
:1004E00005D402F10806A5B20E448C5802E000249F
:1004F000254626464FF00C0909FB0373314618893F
:100500002A462346FFF756FF0B280BD198F8012007
:10051000184B09FB0233314618892A460123FFF79D
:1005200049FF0124002848F2410518BF2846012C44
:100530001BD198F801300C2101FB03774FF6FF72B5
:100540003889FFF735FF80B143F2020398420BD0A0
:10055000082809D043F20403984205D011280CBFA3
:1005600028460020BDE8F8832846BDE8F88300BF90
:10057000A84A0020A4490020FFF7A0BF2DE9F043BE
:1005800089B01A23ADF80230244F4B784FF00C0895
:1005900008FB037381460E46188901A90DF102027A
:1005A0000323FFF709FF002834D170781C4DBDF8F4
:1005B0000220242404FB0050083001A902F0F6FBBD
:1005C000737868B908FB0377BA7A02F0020202F086
:1005D000FF01FAB904FB0350224602F0FFFB19E0C9
:1005E0006343E9180F484A680F4F002A18BF0746AF
:1005F0000322EA5003F10800BDF802204A602844B3
:1006000001A902F0E2FB7178484604FB0151224641
:100610003823B847002009B0BDE8F083A449002082
:10062000A84A0020711C0200F91B0200FFF7A6BFB8
:1006300070B50346094D487824240E4604FB00504B
:1006400019462246382301F04FFB30B9737804FB7A
:1006500003546368013308BF606070BDA84A00207E
:10066000FFF7E6BF2DE9F0471C46544B92B0174602
:100670001A681A9E824688469946002A00F09A8097
:10068000742E00F29780FF2300258DF805308DF839
:1006900006308DF807308DF804508DF8105009940D
:1006A00008964748A9B202AA01F07EFA40B950461E
:1006B00002A9082202F07AFB10B98DF8065002E078
:1006C0000135072DEDD19DF80630FF2B72D0B8F122
:1006D000030F06D1742E0CBF202340238DF8103059
:1006E0004EE0384AA21AC32A11D8374827B9012147
:1006F0000268994011425DD0012202FA03F30268B8
:1007000022EA0302202302608DF8103047E02F4ACE
:10071000A21A1B2A09D8002220238DF805200AAA34
:100720008DF810300992089339E02948221A232ABB
:1007300013D830238DF8103000238DF805300123B5
:100740008DF80730234B9B7A03F0020303F0FF017F
:100750002BBB242202F042FB21E040228DF8102026
:100760001D4A94420CD01D4A52F82320A24221D1A6
:10077000184AD27A9A4212D100238DF805300EE041
:100780009DF8103043F003038DF8103007AB05934C
:1007900001A8D9F8003004A93A4698470AE0B8F110
:1007A000020F9DF8103002D143F00103ECE743F053
:1007B0000203E9E712B0BDE8F08700BFCC4A002091
:1007C000DC4A0020B0490020D84A00208C4A002092
:1007D000A84A0020A4490020546D0200804900204E
:1007E00070B5114E1C244443054630190021344491
:1007F0000622113002F0F2FA00211022204602F007
:10080000EDFAFF232374A3764FF6FF732383074B80
:1008100001211A68A94022EA01021A60044B002251
:1008200043F8252070BD00BFB0490020D84A002001
:100830008049002037B50546A9B209486A4601F04B
:10084000B3F9044640B96846742101F099FA0446A8
:1008500010B92846FFF7C4FF204603B030BD00BFE3
:10086000DC4A00207FB50546002853D02B482C4B8E
:100870000122002482724FF6FF720281C272214669
:1008800007221C605C729C7202F0A8FA254821467F
:10089000242202F0A3FA2046FFF7A2FF224BFF22F8
:1008A000E2540134072CF6D104A8204A40F8102D58
:1008B000742368461E49ADF80430ADF8064001F0D7
:1008C00009F948BB1B4E2C7801233370C4B9184872
:1008D000A1B202AA01F068F9054650B916481C22D7
:1008E00002FB040002A92B4601F0FEF920B135708D
:1008F00012E0002333700FE00134072CE7D10BE046
:10090000BDF80630BDF804100948594389B201F01A
:1009100037FA01E048F20E0004B070BDA44900208F
:10092000CC4A0020A84A00209C490020650602000D
:10093000DC4A0020A3490020B0490020184B1B7856
:1009400070B506461BB328B321B3086810B3154B26
:100950001A6812BB0D461C4644F8040B55F8050FE7
:1009600058602879207109799972197A62F3000127
:10097000C9B241F0020162F382011972D97941F0E2
:10098000030162F38201D9713270104670BD48F2E2
:10099000080070BD48F20E0070BD48F2040070BD42
:1009A000A3490020CC4A00207FB52E4B1B7805467A
:1009B0000C46002B50D0002848D0002946D08B6828
:1009C000002B43D00378002B46D1274B1B68002B0C
:1009D00042D0817806293CD8244B1C2202FB0133EB
:1009E0009B7EFF2B35D04378214A0C2000FB03234C
:1009F0009B7A1B0730D56368032B30D91D4802AAA8
:100A000001F0D2F860BB01A802A90422602301F022
:100A10006BF938B9184A194E019BB3F1FF3F08BF73
:100A2000164600E0144E02A8211D04226023B047A0
:100A3000B0B902A8A1681022642301F019F978B9AD
:100A4000AA780F4BA16843F8221009E048F20E0083
:100A500006E048F2100003E048F2080000E007203A
:100A600004B070BDA3490020CC4A0020B04900204A
:100A7000A4490020DC4A0020F91B0200711C02007E
:100A8000804900201FB5254A127803460C46002AEB
:100A90003AD0002835D0002933D00278002A33D14B
:100AA0001F4A1268002A2FD08278062A2FD81D49A3
:100AB0001C2000FB0211897EFF2928D0A0681A495A
:100AC00018B951F82220A26001E041F8220017482D
:100AD000997802AA01F068F8F0B901A802A90422E5
:100AE000602301F001F9A8B9019B013312D0A0687D
:100AF00002A91022642301F0F7F868B9019B636032
:100B00000AE048F20E0007E048F2080004E048F26C
:100B1000100001E048F2400004B010BDA3490020DD
:100B2000CC4A0020B049002080490020DC4A002047
:100B30001FB51C4B1B78044663B340B303784BBB13
:100B4000194B1B6833B38178062926D8174B1C2212
:100B500002FB01339B7EFF2B1FD0154802AA01F038
:100B600023F8E0B9602301A802A9042201F0BCF82F
:100B7000019B013313D002A80E490422602301F027
:100B800077F860B9A2780C4B43F8220007E048F2EE
:100B90000E0004E048F2080001E048F2100004B042
:100BA00010BD00BFA3490020CC4A0020B04900205E
:100BB000DC4A0020546D020080490020084B1B785D
:100BC0005BB139B130B1007838B9064B1B6823B13D
:100BD0000870704748F20E00704748F208007047EE
:100BE000A3490020CC4A00201C4B1B7810B57BB3D6
:100BF00058B351B304785CBB194B1B6843B382787C
:100C0000FF2A0FD14278FF2A25D0164B0C2000FB7B
:100C100002339A7A92071ED51A680A609A888A80E7
:100C20009B790FE0104B1C2000FB02339A7E02F0F0
:100C3000020202F0FF0472B953F8100F08609A889C
:100C40009B798A808B71204610BD48F20E0010BD42
:100C500048F2080010BD48F2050010BDA34900206D
:100C6000CC4A0020A4490020B04900202DE9F043DF
:100C7000264B1B788BB005460C46002B3DD0002838
:100C800038D0002936D00378002B36D1204A12689C
:100C9000002A32D08278062A32D8DFF87C801C27DE
:100CA00007FB0282927EFF2A2AD0CB608278DFF88F
:100CB0006C904B6107FB028203AE0A61C1F804909D
:100CC0008B600E601348A97801AA00F06DFFC8B9C7
:100CD000304601A93A463B4601F006F890B9E0607B
:100CE000AB78606107FB03872761C4F80490A060BC
:100CF000266007E048F20E0004E048F2080001E038
:100D000048F210000BB0BDE8F08300BFA3490020FB
:100D1000CC4A0020DC4A0020B0490020744A002060
:100D20007FB5044602AAA1781E4800F03DFF617815
:100D30000346002830D11C4E039A1C481C2505FB95
:100D400001630095019502F0E9F860782A4605FBF9
:100D5000006002A92B4600F0C7FF024618B11448F4
:100D6000617802F0DBF8382261780092114A12486B
:100D7000242303FB012202F0D1F8104B9A7A104B86
:100D800002A853F8223021469847024640B16178C4
:100D90000C4802F0C3F803E00B48A27802F0BEF85A
:100DA00004B070BDDC4A00208C4A00209869020023
:100DB000F4690200A84A0020306A0200CC4A0020F0
:100DC000346D0200796A0200B86A02002DE9F04130
:100DD000B74A90B01278FF2305460393002A00F02B
:100DE0002E82B44F3A68002A00F0298206888DF8D6
:100DF00011308DF812308DF81330031D06934FF02B
:100E000000082C23102EADF81C308DF81080AA4C51
:100E100022D0A27A8388920708D54FF6FF729342B8
:100E200000F0CE8122899A4200F0CA81192E00F08A
:100E3000EB8007D8132E67D0142E3BD0112E40F034
:100E4000FE8119E01E2E00F09C81522E00F08F8151
:100E50001A2E40F0F48159E1984802F05FF84FF003
:100E6000A0434FF08052C3F81825C3F80825A37A91
:100E7000DE0700F1AC81E2E19148297A02F04EF8F8
:100E8000A27A02F0FD031007A37206D519060DD54C
:100E900004A80021FFF7A0FA08E09DF81200FF283F
:100EA00004D0FFF79DFCFF238DF812301023A372AE
:100EB00012236AE1834802F031F8E37AFF2B18D15C
:100EC0002A8A002380491C2000FB0311098B9142D0
:100ED0000CD1A27A039342F00802DBB204A8E372B9
:100EE000A2728DF81230FFF71BFF02E00133072BCF
:100EF000E8D1E37A7549A888734AFF2B08BF00211F
:100F00000023FFF753FA9AE1714802F007F8A37A39
:100F10008DF8146043F00403A372E37A664EFF2B4E
:100F20005AD1002368491C2202FB03128846907E96
:100F3000FF2820D120786049022802F118000AD049
:100F4000FD26867002F110060868106188888A798B
:100F5000B080B27101E0FE2282708DF80C305D48E5
:100F6000039A002101F0DAFF9DF80C308DF8123061
:100F7000E372002609E00133072BD3D1564848F22B
:100F8000430101F0CBFF48F24306297A2B7BEA7A32
:100F9000524801F001010091C2F3400203F0010147
:100FA000C3F3800301F0BAFFE37AA8881C2202FB96
:100FB00003830D93454B08930021494A0C9108ABDC
:100FC0000E910F9109910A910B91FFF7EDF90146EE
:100FD000002800F0DD8013E0424801F09FFFB37A63
:100FE00043F04003B372002216238DF8143085219C
:100FF000A8881346FFF7D8F90146002800F0C780FB
:10100000394801F08BFF1AE1297A384801F086FF50
:101010007B7AA27A23F0010302F0FB017B72142099
:10102000A1728DF81400287A234B60B1520604D4C3
:10103000D87AFFF7FFFB2E7A00E00026297A0220FB
:10104000FEF79AFCA4E06A7A560740F1A0809DF86A
:101050001220FF2A00F09B8041F0080199726B7BFF
:10106000980707D5184B1C2101FB0233997E21F00C
:1010700001019976E37A104DFF2B00F08880002162
:10108000144801F04BFF2B780F4A022B9DF81230C9
:101090004FF01C0101FB03232AD09A7E28681861B7
:1010A000A979A888988222F0020299759A7628E098
:1010B000A3490020CC4A0020A4490020046B020070
:1010C000166B0200376B0200B04900208C4A0020EA
:1010D0005F6B0200896B0200F86C0200B16B0200CA
:1010E000D04A0020186C0200D86B0200396C020054
:1010F0005449498A198303F118029B7E23F00103A6
:10110000937004A80121FFF767F940E02A7A4E485E
:1011100002F00F01120901F001FF2B7A112B14D1FB
:10112000A37A4A4D190710D549480021324601F0EB
:1011300055FE16238DF81430AB7A43F06003AB7282
:101140007B7A43F002037B7221E000210120FEF74D
:1011500013FCA37ABA7A63F07F03A37215238DF888
:1011600014303C4B04A853F8223098470FE03A481B
:1011700001F0D4FEBA7A374B04A853F822309847CE
:101180005DE0364801F0CAFE13238DF814300026C6
:101190003B6804A805A9324698479DF81430122BE5
:1011A0004DD1A37A2948012B49D0012383724FF6F0
:1011B000FF730381C3720021072201F00FFE3EE09E
:1011C000E37A8DF8123000238DF811302EE61123CA
:1011D0008DF81430AB8823812E460223A37256F873
:1011E000080F8DF81180B379B288A371EB7DA280CE
:1011F000DA07206006D55B08194AD35CFF2B11D0B3
:1012000003930FE04546174B1C2000FB0530314689
:10121000072201F0CBFD08B9039503E00135072D46
:10122000F1D1B4E7A27A9DF80C30E37242F00802E3
:1012300004A8A2728DF81230FFF772FDA7E710B074
:10124000BDE8F0818C4A0020696C0200A4490020AE
:10125000B04A0020446D0200AB6C0200D56C020065
:101260009C490020C049002010B579B10B7883B9A2
:101270000A4A12686AB1FF228A70094A14898442B4
:101280000AD14B70D27A8A70184610BD48F20E000F
:1012900010BD48F2080010BD052010BDCC4A00204A
:1012A000A44900204FF010235A69531C4FF080537B
:1012B0001DBF186980B2B2FBF0F05869704729DF92
:1012C000704728DF7047000008B5034B1A78034BBE
:1012D00053F82230984708BD684D00206C6D02001D
:1012E00037B502460846074C0B4650F8081F2468DD
:1012F0000C254D4319780094034C1B696459A04791
:1013000003B030BD704D0020484D0020104A1378C6
:10131000142101FB03234FF08052D88811691A6908
:101320000433013A9B8802441A448BB2B2FBF3F2B5
:10133000084B1B68934207D308D1074B1868D0F1BC
:10134000010038BF0020704701207047002070471F
:10135000E44A0020404D0020444D0020034B1A6811
:1013600022F008021A60FFF7AFBF00BF644D0020F3
:10137000074A1368180709D4990744BF43F00103CB
:101380001360044B02221A70FFF79EBFFFF7E6BFFF
:10139000644D0020684D0020054B1B681B0704D4DA
:1013A000044B01221A70FFF78FBFFFF7D7BF00BFB2
:1013B000644D0020684D002008B5B0B1112805D15A
:1013C0000A4B1A6842F008021A6008BD084B1A78E6
:1013D000142101FB02310431FFF782FF054B042287
:1013E0001A70BDE8084000F09BB808BD644D0020AD
:1013F000E44A0020694D002008B5FFF760FFBDE812
:101400000840FFF7D9BF0000F8B5134B134E1A7808
:10141000142404FB02344FF0805504342B69628895
:10142000A0889BB29A42E3680ED929692F6989B2D4
:10143000521A2169184410441144C7F38D02FFF772
:10144000DBFF2B699BB205E0184421699208FFF786
:10145000D3FF63883360F8BDE44A00207C4D002050
:1014600038B50A4A4FF0805415682369013D9BB294
:101470005D43FFF717FF2169431E89B25943044BAF
:1014800028461A68BDE83840FFF7B6BF404D002037
:10149000784D002070B5104A1378142101FB032306
:1014A00004339A885C88DB684FF0805514441C44F0
:1014B0002B699BB2B4FBF3F603FB1646FFF7F2FE73
:1014C0002969431E89B201FB0361044B20461A6857
:1014D000BDE87040FFF790BFE44A0020444D002073
:1014E00010B5FFF7DFFE4FF0805301381C69196912
:1014F0001A698BB205490968A4B260435943C2F323
:101500008D02BDE81040FFF777BF00BF404D0020BF
:1015100008B5FFF7D6FEBDE80840FFF74DBF000055
:10152000294B1B78F0B5032B4DD8DFE803F0020FF1
:101530001346264A00231360254A1360254B5B7827
:10154000002B40D0BDE8F04000F0CCB8BDE8F04042
:10155000FFF75ABF204B1F481A6804781F4F22F02C
:10156000010114254FF08056196005FB0404306911
:10157000256980B2B5FBF0F00434386036696488C0
:10158000013D2544B4B2B5FBF4F5A8421CBF22F0DE
:1015900003021A60124A04BF41F002011960116887
:1015A000104A21B91B689B0701D4022300E00023E5
:1015B000BDE8F0401370FFF787BE084BBDE8F04070
:1015C0001868FFF7A5BFF0BD694D0020744D0020DD
:1015D0007C4D0020E44A0020644D0020404D002056
:1015E000784D0020684D00202DE9F041374A384EF3
:1015F0001378142101FB0323364ADF681969B3F815
:1016000006C00C2404FB07244FF08058228960890F
:101610006468D8F8105000FB02401C890023336036
:10162000ABB2B1FBF3F50CEB040203FB15130A4458
:10163000294D3BB9D8F810309BB29C4504D082426A
:1016400000D10CB1032F09D14FF080531B699BB21D
:10165000B1FBF3F1214B1960032331E04FF08053CC
:1016600021441F69BFB2B1FBF7F407FB14111C4CF6
:10167000890821608242196921D089B2B2FBF1F454
:1016800001FB1421D9B11C69196992B280B2A4B2CC
:1016900089B2B0FBF4F4B2FBF1F18C4203D1821AAF
:1016A000920832600BE019691B699BB2B2FBF3F040
:1016B00003FB102289B292B28B1A9B08336002237B
:1016C0002B70BDE8F041FFF72BBF00BFE44A0020BC
:1016D000444D0020484D0020694D0020404D002021
:1016E000784D00200A4A1378142101FB0323094A8C
:1016F000D9881B791160032B07D0042B05D0012B4F
:1017000005D1054A1370FFF70BBFFFF76DBF704798
:10171000E44A0020704D0020694D0020F8B5114DBD
:101720006E781E2E1AD02C7834441D2C88BF1E3C97
:10173000142707FB04540136207103C9626104F1C8
:101740000C0282E80300E380BDF818302381064BC9
:101750006E701C7824B9FFF7C5FF01E00420F8BDC6
:101760000020F8BDE44A0020694D002038B5124C35
:101770002178142505FB014104310020FFF7B0FD5D
:10178000217805FB0142002302251371D380D56027
:101790001361536113816278013A62704A1CD2B2BC
:1017A0001E2A18BF2270054A08BF23701370BDE8B7
:1017B0003840FFF7B5BE00BFE44A0020694D002065
:1017C000074B1A78142101FB02331B79042B01D03B
:1017D000FFF7CCBF034B01221A70FFF7A1BE00BF79
:1017E000E44A0020694D00201F48F8B5036813F053
:1017F000080121D11D4C2278142505FB0242D2F8A4
:1018000010C0D78816894FF080521569184A14689D
:10181000B4B10CF1FF323A44ADB23244B2FBF5F24E
:10182000144D2D6895420BD143F00103124A036019
:10183000124B116019700CE0BDE8F840FFF78EBD47
:10184000FFF764FD48B10C4B00221A6002220B4BDB
:101850001A70BDE8F840FFF737BD0CB10322F6E778
:10186000BDE8F840FFF7ACBF644D0020E44A00201B
:10187000444D0020404D0020784D0020684D002050
:10188000034B1B681B0701D4FFF79ABFFFF766BD28
:10189000644D002038B5164D2C68230723D4154B12
:1018A0001A6801321A60144B1B680BB1042203E062
:1018B000FFF72CFD30B10222104B1A70BDE8384002
:1018C000FFF702BD0E4B1B684BB114F0010208BFBD
:1018D00044F00104094B0CBF2C600322EDE7BDE886
:1018E0003840FFF76DBFBDE83840FFF737BD00BF98
:1018F000644D0020404D0020784D0020684D0020B0
:10190000444D002008B51F4B1B78022B32D0032B0F
:101910001AD0012B34D11C4B1A68100723D41B4B4F
:101920001A78142101FB02320432194B51881B68CA
:10193000CB1A9BB253801BB9BDE80840FFF716BF16
:10194000BDE80840FFF760BD0F4B1A6811070AD4C5
:10195000104B1A6801321A60FFF7D8FC30B9BDE8A5
:101960000840FFF72DBF22F008021A60BDE80840CA
:10197000FFF7D6BD084B1A78084B53F8223098472A
:1019800008BD00BF694D0020644D0020E44A0020DE
:101990007C4D0020404D0020684D0020586D020015
:1019A000014B1868FFF7B4BD404D002008B5FFF7A4
:1019B00079FC4FF0805301381A691B6992B29BB2CF
:1019C0005043B0FBF3F0BDE80840FFF7A1BD0000B5
:1019D00010B5174C237813F0FB0F28D0022822D023
:1019E000032800D010BD134A126812071BD41249F5
:1019F0000A680132B2F57A7F0A6005D0022B0ED157
:101A0000BDE81040FFF760BC0C4B1A78142101FBB5
:101A100002310D200431FFF763FC04232370BDE87D
:101A20001040FFF77DBDBDE81040FFF76BBF10BD54
:101A3000694D0020644D0020744D0020E44A0020D0
:101A40001B4A38B500231370537002F1140302F5DA
:101A50001B720024022103F8104C23F80E4C1C606A
:101A600023F80C4C03E9120014339342F1D1114BCB
:101A70001C80FFF717FC4FF0805303381B690E4A98
:101A80009BB2434313600D4B1C600D4B1C601C81CB
:101A90005C81DC609C82DC820A4B1C700A4B1C60FF
:101AA0000A4B1C600A4B04221A60204638BD00BF56
:101AB000E44A0020604D00206C4D0020404D002085
:101AC000484D0020694D0020744D00207C4D0020C1
:101AD000644D00202DE9F8432F4B1B685A0704463C
:101AE0000E464FD5002850D000294ED00368002B59
:101AF0004BD04FF080588388D8F8102092B2934290
:101B000002D90720BDE8F8830F2BFAD9C288002A32
:101B1000F7D0224F3D6803FB0259FFF7C3FBD8F80B
:101B2000103001389BB243439945B846E9D8A288A2
:101B30009307E6D11A490B88022B8C4628D086E8F9
:101B400028000C20174E27685843311801334D6088
:101B50003750E0880A8148814FF080510E690C6946
:101B60000969ACF80030B6B200FB0262A4B2013AD7
:101B700092FBF4F289B201FB0255C8F80050002034
:101B8000BDE8F8830820BDE8F8830E20BDE8F8839F
:101B90000420BDE8F88300BF644D00206C4D002098
:101BA000604D0020484D0020114B1B685B0770B54D
:101BB00018D5C8B1C2B10368012B17D80C250D4E3A
:101BC0005D43741975598DB125894068668905FB97
:101BD0000101606805FB0605A94207D21360516048
:101BE000002070BD082070BD0E2070BD072070BDA4
:101BF000644D0020484D0020F7B514461A4A12687B
:101C0000520705460E4626D539B330B30268012A7D
:101C100025D80C2115484A4381188258FAB10A89FF
:101C20004F894968686802FB0711884217D2B4B12E
:101C3000944214D8E118914211DCB70711D19907E9
:101C40000FD182070DD10093294632462346012049
:101C5000FFF764FD06E0082004E00E2002E0072004
:101C600000E0102003B0F0BD644D0020484D00207E
:101C7000F7B514461A4A1268520705460E4626D58D
:101C800039B330B30268012A25D80C2115484A43DC
:101C900081188258FAB10A894F894968686802FB3D
:101CA0000711884217D2B4B1944214D8E118914276
:101CB00011DCB70711D199070FD182070DD100931D
:101CC0002946324623460420FFF728FD06E0082077
:101CD00004E00E2002E0072000E0102003B0F0BD79
:101CE000644D0020484D00202DE9F3411546224A5D
:101CF0001268570706460C4634D5002934D0002810
:101D000032D00968012931D80C201C4A41435018AF
:101D10005158904651B3028947894068616802FB77
:101D20000700814222D20DB395421FD8E818904295
:101D30001CDCB0071CD19A071AD111F0030717D188
:101D400019442A46304601F040F8236800950C22D9
:101D50005343204658F8035002213A463346A847D9
:101D6000384606E0082004E00E2002E0072000E0EC
:101D7000102002B0BDE8F081644D0020484D0020E5
:101D80001C4A1268520773B50B46044629D550B356
:101D90000268012A2BD80C201749424388188A5818
:101DA0002AB3456802894089616802FB005081427C
