:020000021000EC
:10C0000000000120B9090200F9090200FB09020041
:10C01000FD090200FF090200010A02000000000001
:10C02000000000000000000000000000030A020001
:10C03000050A020000000000070A0200410B02008E
:10C040000B0A02000B0A0200411D02000B0A02004B
:10C050007DD80100C51402000D0A02000B0A02007F
:10C060000B0A02000B0A02000B0A02000B0A020074
:10C070000B0A02000B0A02000B0A02000B0A020064
:10C080000B0A02000B0A02000B0A02000B0A020054
:10C090000B0A02000B0A0200394102000B0A0200DF
:10C0A0000B0A02000B0A02000B0A02000B0A020034
:10C0B0000B0A02000B0A0200000000000000000052
:10C0C0000B0A02000B0A02000B0A02000B0A020014
:10C0D0000B0A02000B0A02000B0A0200000000001B
:10C0E0000000000000000000000000000000000050
:10C0F0000000000000000000000000000000000040
:10C10000000000000000000000000000000000002F
:10C11000000000000000000000000000000000001F
:10C4000010B5054C237833B9044B13B10448AFF38E
:10C4100000800123237010BD48410020000000006F
:10C420004C92020008B5064B1BB106480649AFF313
:10C4300000800648036813B1054B03B1984708BD57
:10C44000000000004C9202004C41002044410020BA
:10C4500000000000014B01221A6070476441002077
:10C46000114B1A6813B5EAB102A9002401F8014D75
:10C470000E481C6000F0ECF89DF8073093B10121E4
:10C480000A2004F0C3FC642004F062FB0A20214669
:10C4900004F0BCFC0649074805F0BAFA064804490E
:10C4A00005F0B6FA02B010BD64410020B44A002085
:10C4B0006D750200204E0020D048002010B5074CBA
:10C4C000FF210A4620460B4602F036FD204604496D
:10C4D000044ABDE8104007F005BF00BF68410020D6
:10C4E0005DC501000040002010B50A20134C012159
:10C4F00004F0B0FC12484FF4E13105F01DFC204679
:10C50000104902F0A3FA20460F4C02F0A1FD0F499A
:10C510000F4A204603F08EFF20460E4C03F0B6FF74
:10C52000204600F04DF8204600F08CF815200A490E
:10C530000422BDE8104004F099BA00BF6841002011
:10C54000204E0020827502001C4E00204C75020017
:10C5500095750200B44A002055C40100124B03F146
:10C560008C0210B50360426003F1A402CC33044690
:10C570008260C0F8683700F6341001F03DFF04F621
:10C58000041001F0B3FE04F6EC0001F035FF04F6F0
:10C59000BC0001F0ABFE04F6A40001F02DFF204624
:10C5A00002F078FA204610BDA086020010B50446BD
:10C5B000FFF7D4FF204607F091FE204610BD000093
:10C5C00038B5082007F076FE184C194A194900239F
:10C5D000054600F043F80820256007F06BFE21684F
:10C5E000054600F061F9144B28461D6000F03CF947
:10C5F000082007F05FFE2168054600F06DFA0F4B3A
:10C6000028461D6000F03CFA182007F053FE216810
:10C610000B4C054600F086FE2846256000F088FD9C
:10C620002068BDE8384000F04BBE00BFC84A00207B
:10C63000801A0600CC4A0020BC4A0020C04A0020D4
:10C64000C44A0020014B186800F0F4BEC44A002020
:10C65000014B186800F0C0BEC44A002070B5044603
:10C660000D46164621604360084600F0BBFF284691
:10C67000314600F0E9FF204670BDF8B50446560883
:10C680000D46006831461F4601F051F820680268E7
:10C690003946136898470021206801F053F8206854
:10C6A0009DF81820314601F03FF8013D20680368ED
:10C6B0009B68984730B120680368DB68984705F8A5
:10C6C000010FF3E7F8BDF8B504460F460068BDF862
:10C6D000186051081D4601F02AF8206802682946B2
:10C6E000136898470025B542206805DA0368795D2C
:10C6F0001B6898470135F6E7012101F023F8002077
:10C70000F8BD012A10B5144688BF41F080011A46D1
:10C71000234600F0EBF8003018BF012010BD012ABD
:10C7200010B5144688BF41F080011A46234600F038
:10C73000D1F8003018BF012010BD13B5012220210F
:10C740000DF107030446FFF7DCFF80B99DF80730C1
:10C7500063F07F038DF807302046202101220DF180
:10C760000703FFF7DCFF003018BF012000E00120C5
:10C7700002B010BD13B5012220210DF107030446BC
:10C78000FFF7BFFF80B99DF8073003F07F038DF8F6
:10C7900007302046202101220DF10703FFF7BFFFDC
:10C7A000003018BF012000E0012002B010BD0000E1
:10C7B00008B503460A460248194608F093FBFEE70F
:10C7C000BC750200012937B505460C4604D911484D
:10C7D00040F26621FFF7ECFF202101220DF1070353
:10C7E000FFF78FFF90B99DF8073023F0040343EA69
:10C7F00084042846202101220DF107038DF807400B
:10C80000FFF78DFF003018BF012000E0012003B0CA
:10C8100030BD00BFE9750200032937B505460C4657
:10C8200004D9104840F2BD21FFF7C2FF20210122A8
:10C830000DF10703FFF765FF88B99DF8073023F076
:10C8400003031C432846202101220DF107038DF824
:10C850000740FFF764FF003018BF012000E001200F
:10C8600003B030BDE975020008B5FFF766FF431E4F
:10C870005842584108BDF7EE007AB4EEE70AF1EEEF
:10C8800010FA08B509D9F1EE0C7AB4EEE70AF1EE28
:10C8900010FA94BF0221032100E00121FFF7BCFF41
:10C8A000431E5842584108BDBE2310B54160037075
:10C8B0000446FFF75FFF01280AD020460121FFF759
:10C8C00081FF012804D02046B7EE000AFFF7D3FF0E
:10C8D000204610BD37B5057800930C462346114617
:10C8E00040682A46FFF7EFFE03B030BD37B5057844
:10C8F00000930C462346114640682A46FFF7BDFECA
:10C9000003B030BD08B500F00CF9D0F1010038BF1C
:10C91000002008BD08B500F010F9D0F1010038BFC3
:10C92000002008BD37B501230D460DF10702222175
:10C930000446FFF7EFFF80B19DF8073023F00303B3
:10C940001D43204622210DF1070201238DF80750D7
:10C95000FFF7D8FF003018BF012003B030BD37B556
:10C9600001230D460DF1070224210446FFF7D2FFF3
:10C9700080B19DF8073023F040031D432046242159
:10C980000DF1070201238DF80750FFF7BBFF0030C0
:10C9900018BF012003B030BD37B501230D460DF19E
:10C9A000070221210446FFF7B5FF80B19DF807304B
:10C9B00023F060031D43204621210DF107020123CE
:10C9C0008DF80750FFF79EFF003018BF012003B01D
:10C9D00030BD37B501230D460DF107022021044675
:10C9E000FFF798FF80B19DF8073023F01C031D432B
:10C9F000204620210DF1070201238DF80750FFF793
:10CA000081FF003018BF012003B030BD37B50123CE
:10CA10000D460DF1070220210446FFF77BFF80B190
:10CA20009DF8073023F060031D43204620210DF1BF
:10CA3000070201238DF80750FFF764FF003018BF8D
:10CA4000012003B030BD37B501230D460DF10702BB
:10CA500020210446FFF75EFF80B19DF8073003F008
:10CA60007F031D43204620210DF1070201238DF88D
:10CA70000750FFF747FF003018BF012003B030BD5B
:10CA800008B50021FFF74EFFD0F1010038BF0020AC
:10CA900008BDF1EE007AB4EEE70AF1EE10FA08B53F
:10CAA00010D9F2EE007AB4EEE70AF1EE10FA0BD9E3
:10CAB000F2EE087AB4EEE70AF1EE10FA94BF4021E4
:10CAC000602102E0002100E02021FFF765FFD0F1A6
:10CAD000010038BF002008BD3C2310B54160037041
:10CAE00002210446FFF71EFFC8B120464021FFF790
:10CAF00036FFA0B120461C21FFF76BFF78B120461E
:10CB0000B1EE000AFFF7C5FF012808D020464021FA
:10CB1000FFF77CFF18B120460021FFF794FF204665
:10CB200010BD37B5057800930C4623461146406882
:10CB30002A46FFF7C8FD03B030BD37B5057800932E
:10CB40000C462346114640682A46FFF796FD03B07F
:10CB500030BD08B500F0AEFCD0F1010038BF0020B8
:10CB600008BD08B500F0B2FCD0F1010038BF0020CC
:10CB700008BD37B501230D460DF107021221044609
:10CB8000FFF7EFFF80B19DF8073023F040031D430E
:10CB9000204612210DF1070201238DF80750FFF7FF
:10CBA000D8FF003018BF012003B030BD37B50123D6
:10CBB0000D460DF1070210210446FFF7D2FF80B1A8
:10CBC0009DF8073023F00C031D43204610210DF182
:10CBD000070201238DF80750FFF7BBFF003018BF95
:10CBE000012003B030BD37B501230D460DF107021A
:10CBF00010210446FFF7B5FF80B19DF8073003F020
:10CC00000F031D43204610210DF1070201238DF86B
:10CC10000750FFF79EFF003018BF012003B030BD62
:10CC200037B501230D460DF1070211210446FFF728
:10CC300098FF80B19DF8073023F00C031D43204678
:10CC400011210DF1070201238DF80750FFF781FF35
:10CC5000003018BF012003B030BD37B501230D46A9
:10CC60000DF1070211210446FFF77BFF80B19DF80B
:10CC7000073003F00F031D43204611210DF1070279
:10CC800001238DF80750FFF764FF003018BF012023
:10CC900003B030BD37B501230D460DF10702112158
:10CCA0000446FFF75EFF80B19DF8073023F00203D2
:10CCB0001D43204611210DF1070201238DF8075075
:10CCC000FFF747FF003018BF012003B030BD37B574
:10CCD00001230D460DF107020A210446FFF741FF2B
:10CCE00080B19DF8073023F007031D4320460A2139
:10CCF0000DF1070201238DF80750FFF72AFF0030DE
:10CD000018BF012003B030BD37B501230D460DF12A
:10CD1000070212210446FFF724FF80B19DF8073077
:10CD200023F004031D43204612210DF107020123C5
:10CD30008DF80750FFF70DFF003018BF012003B03A
:10CD400030BD37B501230D460DF107021821044609
:10CD5000FFF707FF80B19DF8073023F008031D435C
:10CD6000204618210DF1070201238DF80750FFF727
:10CD7000F0FE003018BF012003B030BD37B50123ED
:10CD80000D460DF1070218210446FFF7EAFE80B1B7
:10CD90009DF8073023F010031D43204618210DF1A4
:10CDA000070201238DF80750FFF7D3FE003018BFAC
:10CDB000012003B030BD37B501230D460DF1070248
:10CDC00018210446FFF7CDFE80B19DF8073023F00F
:10CDD00020031D43204618210DF1070201238DF881
:10CDE0000750FFF7B6FE003018BF012003B030BD7A
:10CDF00037B501230D460DF1070219210446FFF74F
:10CE0000B0FE80B19DF8073023F008031D43204693
:10CE100019210DF1070201238DF80750FFF799FE44
:10CE2000003018BF012003B030BD37B501230D46D7
:10CE30000DF1070219210446FFF793FE80B19DF81A
:10CE4000073023F010031D43204619210DF107027E
:10CE500001238DF80750FFF77CFE003018BF01203A
:10CE600003B030BD37B501230D460DF1070219217E
:10CE70000446FFF776FE80B19DF8073023F02003CB
:10CE80001D43204619210DF1070201238DF807509B
:10CE9000FFF75FFE003018BF012003B030BD10B5B2
:10CEA0000C4622461C210123FFF75BFE20B12378AC
:10CEB00003F020032370012010BD37B501230D4678
:10CEC0000DF1070258210446FFF74BFE80B19DF893
:10CED000073023F002031D43204658210DF10702BD
:10CEE00001238DF80750FFF734FE003018BF0120F2
:10CEF00003B030BD37B501230D460DF107025821AF
:10CF00000446FFF72EFE80B19DF8073023F004039E
:10CF10001D43204658210DF1070201238DF80750CB
:10CF2000FFF717FE003018BF012003B030BD37B542
:10CF300001230D460DF1070258210446FFF711FEAB
:10CF400080B19DF8073023F008031D432046582187
:10CF50000DF1070201238DF80750FFF7FAFD0030AD
:10CF600018BF012003B030BD37B501230D460DF1C8
:10CF7000070259210446FFF7F4FD90B19DF80730F0
:10CF800005F01F0523F01F031D43204659210DF115
:10CF9000070201238DF80750FFF7DBFD003018BFB3
:10CFA000012003B030BD37B501230D460DF1070256
:10CFB0005A210446FFF7D5FD90B19DF8073005F0E2
:10CFC000030523F003031D4320465A210DF10702F8
:10CFD00001238DF80750FFF7BCFD003018BF01207A
:10CFE00003B030BD37B501230D460DF107025A21BC
:10CFF0000446FFF7B6FD98B19DF80730AD0023F069
:10D000000C0305F00C051D4320465A210DF10702C3
:10D0100001238DF80750FFF79CFD003018BF012059
:10D0200003B030BD37B501230D460DF107025E2177
:10D030000446FFF796FD80B19DF8073023F04003CA
:10D040001D4320465E210DF1070201238DF8075094
:10D05000FFF77FFD003018BF012003B030BD000096
:10D06000F2EE0A7AB4EEE70AF1EE10FA08B53AD910
:10D07000F3EE0A7AB4EEE70AF1EE10FA35D9DFEDF5
:10D08000257AB4EEE70AF1EE10FA30D9DFED227A14
:10D09000B4EEE70AF1EE10FA2BD9DFED207AB4EE08
:10D0A000E70AF1EE10FA26D9DFED1D7AB4EEE70AB1
:10D0B000F1EE10FA21D9DFED1B7AB4EEE70AF1EEBA
:10D0C00010FA1CD9DFED187AB4EEE70AF1EE10FA87
:10D0D00017D9DFED167AB4EEE70AF1EE10FA94BF35
:10D0E0009021A0210EE010210CE020210AE0302147
:10D0F00008E0402106E0502104E0602102E07021B8
:10D1000000E08021FFF76FFDD0F1010038BF002063
:10D1100008BD00BF000050420000D0420000504354
:10D120000000D043004050440080CF4400205045D0
:10D1300010B5037A012B044607D090ED030AFFF7E0
:10D140008FFF012802D001232372002010BD0000B0
:10D15000F2EE0A7AB4EEE70AF1EE10FA3BD9F3EEFA
:10D160000A7AB4EEE70AF1EE10FA34D9DFED1C7A50
:10D17000B4EEE70AF1EE10FA2DD9DFED1A7AB4EE2B
:10D18000E70AF1EE10FA26D9DFED177AB4EEE70AD6
:10D19000F1EE10FA1FD9DFED157AB4EEE70AF1EEE1
:10D1A00010FA18D9DFED127AB4EEE70AF1EE10FAB0
:10D1B00011D9DFED107AB4EEE70AF1EE10FA0AD9D0
:10D1C000DFED0D7A9FED0D7AB4EEE70AF1EE10FA7D
:10D1D00088BFF0EE477AC0ED037A0020704700BFA9
:10D1E000000050420000D042000050430000D043F5
:10D1F000004050440080CF44002050450020D045DE
:10D2000008B5037A012B02D1FFF72AFF01E0FFF7EF
:10D210009FFF431E5842584108BD0000F2EE0A7AB3
:10D22000B4EEE70AF1EE10FA08B52CD9F3EE0A7A5B
:10D23000B4EEE70AF1EE10FA27D9DFED1C7AB4EE6E
:10D24000E70AF1EE10FA22D9DFED197AB4EEE70A17
:10D25000F1EE10FA1DD9DFED177AB4EEE70AF1EE20
:10D2600010FA18D9DFED147AB4EEE70AF1EE10FAED
:10D2700013D9DFED127AB4EEE70AF1EE10FA94BF9B
:10D28000702180210AE0102108E0202106E03021F1
:10D2900004E0402102E0502100E06021FFF7DDFCC6
:10D2A000D0F1010038BF002008BD00BF000050428F
:10D2B0000000D042000050430000D04300405044E2
:10D2C00010B5037C012B044607D090ED050AFFF74B
:10D2D000A5FF012802D001232374002010BDF0EE29
:10D2E000007AB4EEE70AF1EE10FA08B510D9F1EEC3
:10D2F000007AB4EEE70AF1EE10FA0BD9F2EE007AFA
:10D30000B4EEE70AF1EE10FA94BF0C21042102E01A
:10D31000002100E00821FFF749FCD0F1010038BFEF
:10D32000002008BDD62310B54160037004210446D7
:10D33000FFF7EAFC00284BD020464021FFF719FCFC
:10D34000002845D020460021FFF7C1FC00283FD02F
:10D3500020460021FFF747FC002839D02046B0EED8
:10D36000000AFFF7BCFF012832D020460821FFF752
:10D37000E8FC68B320461021FFF700FD40B32046CB
:10D380002021FFF718FD18B320460021FFF765FCA8
:10D39000F0B120460021FFF77DFCC8B120460C21EA
:10D3A000FFF73EFCA0B120460821FFF721FD78B130
:10D3B00020461021FFF739FD50B120462021FFF70C
:10D3C00051FD28B1034AE260002323726261237495
:10D3D000204610BD0000D04213B50C460DF10701E8
:10D3E000FFF75DFD58B19DF8070030B120284FF0E0
:10D3F000010005D12070002002E0207000E0012033
:10D4000002B010BD08B5FFF7AFFDD0F1010038BF85
:10D41000002008BD08B5FFF7C6FDD0F1010038BFF8
:10D42000002008BD08B5FFF7DDFDD0F1010038BFD1
:10D43000002008BD10B59FED1E0A0446FFF7E0FE70
:10D44000012801D1012010BD2046B0EE000AFFF7EF
:10D4500046FF0128F6D020460821FFF768FD002886
:10D46000F0D020460421FFF745FD0028EAD02046F1
:10D470000221FFF722FD0028E4D020460821FFF713
:10D48000C1FF0128DED020460221FFF7C3FF01289B
:10D49000D8D020460121FFF7C5FF0128D2D0204671
:10D4A0004021FFF7BFFDD0F1010038BF002010BDC3
:10D4B0000000D04337B5057800930C46234611464B
:10D4C00040682A46FFF7FFF803B030BD37B505784E
:10D4D00000930C462346114640682A46FFF7CDF8D4
:10D4E00003B030BD7047203004F0B6BA203004F0ED
:10D4F000C1BA0000F8B5847E06460F461546DCB179
:10D500000024AC4216D03368395D1B68304698471A
:10D51000F0B10134F5E773690022C3F85021EAB293
:10D52000C3F84405C3F8482501225A63D3F85021B3
:10D53000002AFBD02846F8BD104607F00BFC054B2F
:10D5400018602346AB42E6D0FA5CC2540133F9E7D7
:10D550002046F8BDC44C0020203004F091BA0000F1
:10D5600038B50C46817E61B1037FDBB100F16805FF
:10D57000284604F08DFAA8B92846214604F05DFA41
:10D580000EE04369084AC3F850111470C3F84425EB
:10D590000122C3F848255A63D3F85021002AFBD052
:10D5A000012038BD002038BD084D0020F8B54FF4EB
:10D5B0007A7383600A4B0360002501230446837657
:10D5C0004560C57620300E46174604F02BFA04F16C
:10D5D000680004F027FA2676677625772046F8BD9E
:10D5E0007876020070B5174A047E142101FB0424EA
:10D5F0004FF04023666803614FF0A04406F5E076E3
:10D600004FF4C06544F82650467E01FB0626766836
:10D6100006F5E07644F82650447E057E01FB04249E
:10D6200001FB052264685268C3F80845C3F80C255D
:10D630004FF0CC72C3F824250622C3F8002501233D
:10D64000837670BD088802000B4B994207D00B4BC4
:10D6500099420CBF4FF0C8614FF0CC7101E04FF020
:10D66000806103690022C3F800250622C3F824154F
:10D67000C3F80025704700BF90D00300801A060051
:10D680002DE9F04105461646002A47D00469254A8F
:10D69000C4F83425F7B2C4F838759046C4F8881534
:10D6A0001BB14FF48052C4F800220022C4F80421B8
:10D6B000C4F84821C4F85C21C4F824210122226264
:10D6C00022605BB1D4F8043133B9D4F82431002B93
:10D6D000F8D001236361F5E700230EE0D4F85C3154
:10D6E0002BB9D4F82431002BF8D001236361012336
:10D6F000E361D4F84821002AFBD0EB7600235C1CC0
:10D70000DBB2B34207D218F8031005F1200004F091
:10D7100094F92346F3E73846BDE8F0811046BDE8AA
:10D72000F08100BF884B00200123FFF7A9BF10B58F
:10D73000044680F8B010683004F08AF9012323779A
:10D7400010BD00002DE9F843002504460E4605777C
:10D7500004F16808404604F08DF9EFB205F10109C3
:10D76000244D28B1404604F077F9E8554D46EFE7DF
:10D770002369C3F84455C3F8487594F8B020C3F83A
:10D78000882516B14FF4007201E04FF48072C3F89F
:10D7900000220022C3F80421C3F82421C3F8482141
:10D7A000C3F8602101221A629A60D6B1D3F804212D
:10D7B0007AB9D3F82421002AF8D001225A61D3F88B
:10D7C000C424C3F8C424022A0CBF02200320BDE8ED
:10D7D000F8830020E076BDE8F883D3F82421002AFE
:10D7E000EBD1D3F84821002AF7D00123E3760020BB
:10D7F000BDE8F883844C00202DE9F041817E044689
:10D80000002937D14369D3F8642152B3C3F86411B6
:10D81000194AC3F834254021C3F83815012119638A
:10D820009046D3F80421002AFBD0D3F83C7500259C
:10D83000FBB29D4204F1200606DA18F805103046C6
:10D8400004F0FBF80135F3E7D4F8B85025B12368AC
:10D8500020469B689847A8473046BDE8F04104F051
:10D86000F7B8D3F8681129B1C3F86821D0F8B430FB
:10D8700003B19847BDE8F081C84C00200148FFF78C
:10D88000BBBF00BFC84B002008B5102111220548BE
:10D89000FFF78CFE044812211322BDE80840FFF771
:10D8A00085BE00BFC84B0020CC4A002001608280AA
:10D8B0007047006870478088704729DF704728DF0D
:10D8C00070474B1C4FF0805310B514BF1A6959694B
:10D8D0005C6918BFB1FBF2F11A695B69611A023B1E
:10D8E000591A5143016010BD03681868013018BF10
:10D8F000012070474FF0805310B51B690468B4FBDA
:10D90000F3F42046FFF7DBFF1128FAD06420BDE8CE
:10D91000104003F065BB70B51E4605460C46FFF788
:10D92000E9FFB608286821463246FFF7C6FF1128EE
:10D93000F8D06420BDE8704003F052BB10B5046815
:10D9400000229A4203D2A05888500432F9E710BD51
:10D9500007B500236946062204300093ADF8043071
:10D9600007F008FA003018BF012003B05DF804FB8F
:10D970000430062207F00DBA04300021062207F019
:10D9800011BA10B504460160FFF7F6FF204610BD3E
:10D9900075DF70477EDF70477FDF704785DF704738
:10D9A00086DF70478ADF704790DF704792DF7047ED
:10D9B00099DF7047A9DF704761DF704762DF70470A
:10D9C00038B5044600F5836528461022002107F08B
:10D9D000E9F994F81834227C62F3000384F81834CF
:10D9E0006389A4F82034A389A4F82234E389A4F835
:10D9F00024342846BDE83840FFF7D4BF2DE9F0476E
:10DA00000446DAB00D4659B94FF48E7313A80BA92A
:10DA1000ADF82C30FFF7D0FF002840F03B8413AD69
:10DA20002B881A2B00F075831FD8132B00F0578119
:10DA30000FD8102B5ED0112B00F0F380012B40F09B
:10DA400029842A7A94F85D34134484F85D3400F014
:10DA500021BC152B00F0EE8330D3172B00F002848D
:10DA6000192B00F0D38300F015BC362B00F06A822E
:10DA700007D8302B1ED0322B18D01D2B40F00A8433
:10DA800020E0392B0ED004D8382B00F0C68200F0ED
:10DA900001BC502B00F04B83522B08BF002600F036
:10DAA0006781F7E394F82924002309E394F8291403
:10DAB0000023CCE194F82924002368E194F8291488
:10DAC00000238BE305F114070FCF6E460FC697E8CE
:10DAD000070086E8070004F55778083595E80E003A
:10DAE000404600F057FDD4F8EC33002B00F0D28311
:10DAF00040461DE2002394F829242372D9B29142B2
:10DB000008D2013304EB4300B0F806644FF6FF700F
:10DB10008642F3D17822AF8802FB01F604EB41057F
:10DB2000A01904F55771A5F80874143007F031F9FD
:10DB3000384609A9FFF742FF9DF8243084F85D3488
:10DB4000D4F8D43313B1A01914309847B4F82A2468
:10DB5000052A14D9B4F82C34B3F5486F0FD8ADF8B2
:10DB60002E300023ADF83030B5F80804ADF82C2085
:10DB70004FF4C8730BA9ADF83230FFF709FF94F8E2
:10DB800038352BB1B5F8080401210022FFF70CFF4E
:10DB900094F82E34B3B304F58660FFF7A5FE06466D
:10DBA00040B1D4F85024B5F8080402F11201FFF78F
:10DBB000F5FE27E0314605220BA807F0F3F89DF8A3
:10DBC0002F3094F85424B5F8080443F001038DF87D
:10DBD0002F309DF82C3043F0010366F3820362F38B
:10DBE000410394F8552462F3061366F3C7138DF8C6
:10DBF0002C3007238DF82D300BA910238DF82E30F3
:10DC0000FFF7C8FE94F8283494F829240133DBB2D6
:10DC10009A4284F8283440F23D832046FFF7D0FE34
:10DC200038E3012394F8292423720023DEB29642BC
:10DC300008D204EB4301A888B1F80814884203F124
:10DC40000103F3D106F501734FF6FF7224F8132098
:10DC500094F82834013B84F82834D4F8F0330020B9
:10DC600084F85D040BB1297A9847D4F8D83323B1EE
:10DC7000782202FB064014309847002594F8383586
:10DC80009D420BDAD4F83C350C2202FB05300830FB
:10DC90000021042207F086F80135EFE794F82854B4
:10DCA00045B1002384F848352046FFF789FE032359
:10DCB0002372EFE294F841359D42F2DAD4F844053C
:10DCC00018266E43304414300021012207F06AF810
:10DCD000D4F844351E440023F3820135EAE794F872
:10DCE0002E34002B00F0D68209A80021052207F06F
:10DCF00059F89DF8273094F8542443F001038DF827
:10DD000027309DF8243043F0010303F0FB0362F356
:10DD1000410394F8552462F306136FF3C7138DF88B
:10DD2000243007238DF825300BA810230021202252
:10DD30008DF8263007F036F80021D4F850340B93D4
:10DD4000A8880F910A460BAB109111910C910D917F
:10DD5000FFF722FE9EE203F50173A88834F8133022
:10DD6000984204D100210A460B46FFF723FE0136F4
:10DD700094F82924F3B29A42EDD88BE204EB4301E4
:10DD8000A888B1F80814884203F1010302D0DEB27A
:10DD90009642F3D3E98871BBB5F80CE02B46714588
:10DDA0001CDA94F838C50022624514DAD4F83C0530
:10DDB00093F810800C2707FB0207B879804508D13B
:10DDC000B3F80E80B888804503D1D3F81200B8604C
:10DDD00001E00132E8E701310833E0E705EBCE0569
:10DDE00006F50176A98934F81600013189B20022BE
:10DDF000FFF7DAFD4EE240F20113994217D194F891
:10DE000038050023834280F24582D4F83C250C215A
:10DE100001FB03210A8942B14A8932B106F5017634
:10DE200084F8403534F8160077E00133EAE7D4F897
:10DE3000F033002B00F02E82022081E004EB43003F
:10DE4000AE88B0F80804864203F1010302D0DAB2CA
:10DE50008A42F3D3E988002941D194F84035D4F8B7
:10DE60003C65B5F80CE003EB430306EB83039B68CA
:10DE70000B9371452BDA002094F84135984220DA53
:10DE8000D4F84435182707FB003394F8407507EBA6
:10DE9000470756F827C05F68BC4510D195F810C0F9
:10DEA0009F7CBC450BD1B5F80EC01F8ABC4506D17E
:10DEB000AF7C1F75EF8ADF82134401271F72013088
:10DEC000DAE7EB8AADF82C3001310A35D1E702F5FB
:10DED00001720BA934F81200FFF768FDDAE1B1F521
:10DEE000857F27D194F8403594F8385501330C20BC
:10DEF000584301E001330C30AB4210DAD4F83C1542
:10DF000001440E89002EF5D04E89002EF2D002F584
:10DF1000017284F8403534F812000831DCE7D4F897
:10DF2000E033002B00F0B681782101FB0240143071
:10DF30009847AFE1D4F8F033002B00F0AB81032019
:10DF40009847A7E1002684F84865E98840F2051360
:10DF5000994236D194F82E34002B57D005220BA8C5
:10DF6000314606F01FFF9DF82F3094F8542443F0FB
:10DF700001038DF82F309DF82C3043F0010303F09E
:10DF8000FB0362F3410394F8552462F3061366F32E
:10DF9000C7138DF82C3007238DF82D3010238DF802
:10DFA0002E3094F82934F2B29A4280F0738104EB57
:10DFB0004602A888B2F80824904206F10106F2D180
:10DFC0005CE019BBAF8994F82934CAB29A4208D2EE
:10DFD00004EB4100AE88B0F80804864201F101016B
:10DFE000F3D194F841650023B34280F25381D4F811
:10DFF0004415182000FB0310C18AB94204D17823CC
:10E0000003FB024100687DE00133EDE7D4F8F03313
:10E01000002B00F03F81042092E7002684F8486539
:10E02000E98840F20513994237D194F82E34BBB3F6
:10E0300005220BA8314606F0B5FE9DF82F3094F866
:10E04000542443F001038DF82F309DF82C3043F019
:10E05000010303F0FB0362F3410394F8552462F3D8
:10E06000061366F3C7138DF82C3007238DF82D3077
:10E0700010238DF82E3094F829340BE00BA9FFF70C
:10E0800089FC07E104EB4602A888B2F80824904214
:10E09000F4D001369E42F5DBFCE0002900F0FA8066
:10E0A000D4F8F033002B00F0F580052048E704EBAE
:10E0B0004301A888B1F80814884203F1010302D093
:10E0C000DEB29642F3D3AB7BAF89022B06D106F5C5
:10E0D0000173394634F81300FFF76AFC94F84115D0
:10E0E000002300E001338B4280F2D480D4F8442531
:10E0F000182000FB0322D08AB842F3D1782310689D
:10E1000003FB0641143105F112022B7C00F08EFE58
:10E11000C0E02B7A03F00F03012B40F0BB80D4F852
:10E12000DC33002B00F0B68004F1140000E7B5F8F2
:10E1300006A094F8292400235FFA83F9914508D2B8
:10E1400004EB4301A888B1F80814884203F10103E5
:10E15000F2D14FF0000894F80134984580F29A808B
:10E160001423D4F8042403FB08F3D618318951454D
:10E170000AD1782303FB094130682B7C143105F167
:10E18000120200F003F985E0B18951451AD1A97C4A
:10E19000EF7CD05841EA072707F00101C7F3400799
:10E1A00000297774317418BF012700F0FFF8874207
:10E1B00008D0782303FB0941306814313A4600F057
:10E1C00005F967E008F10108C5E704EB4300AE88F4
:10E1D000B0F80804864203F1010302D0DAB28A42A1
:10E1E000F3D3D4F850142B8A488A984202F501736D
:10E1F00004D1002234F81300134604E0002134F85F
:10E2000013000A460B46FFF7CBFB43E0297A61B9BE
:10E2100094F82E34002B3DD004F5866004F234418E
:10E2200000221C23FFF777FB34E0D4F8F0338BB3E4
:10E23000012085E6062204F2564005F1080106F0A9
:10E24000A8FDD4F8E4232AB394F8291400238B42C0
:10E2500020DA04EB4300B0F80864A888864214D0A2
:10E260000133F4E7D4F8E823A2B194F82904002399
:10E2700000E0013383420DDA04EB4301B1F8086496
:10E28000A988B142F5D1A4F81614782101FB034006
:10E29000143090475AB0BDE8F087807A7047C06864
:10E2A0007047007C704700207047C368585C704717
:10E2B00070B5056804460E46ED6911461A46A84732
:10E2C0000123A374A36913B130462146984770BD5A
:10E2D000036870B5044608460D46DE6906F078FE10
:10E2E0002946C2B22046B04770BD0000044B10B5AD
:10E2F00004460360C06808B106F034FD204610BD36
:10E300009876020010B50446FFF7F0FF204605F0AE
:10E31000E5FF204610BD10B5837A04469A4228BF17
:10E320001A460274C06806F034FD606920B10368C3
:10E3300021461B68984710BD012010BD70B50446EA
:10E340001646043042F603021D4600F0D5F80D4B88
:10E3500023600021142D34BF2B461423A372E160E7
:10E3600021746674A174E174616104F118000C22D7
:10E3700006F018FD1DB1A07A06F0ECFCE060204626
:10E3800070BD00BF98760200407C704770B505688C
:10E3900004460E46ED6911461A46A8470123A374A8
:10E3A000636A13B130462146984770BDC07C704700
:10E3B000002A08B5C27414BF07220822034650F889
:10E3C000222012B108461946904708BD002A08B518
:10E3D000C27414BF2422282202440346526812B198
:10E3E00008461946904708BD0C293CBF063140F845
:10E3F0002120704741617047014B0360704700BFA7
:10E40000C876020000697047007D70470369585C58
:10E410007047000010B5034B0360044605F05EFF33
:10E42000204610BDC876020038B5044615460430B3
:10E430004FF4245200F060F8044B23602561284615
:10E4400006F0C6FD2075204638BD00BFC876020024
:10E450007047704770470020704770477047002032
:10E460007047002070470020704700207047002050
:10E470007047002070470020704700207047002040
:10E480007047002070470020704700207047704799
:10E4900070477047014B0360704700BFE876020089
:10E4A00010B5034B0360044605F018FF204610BD6D
:10E4B000E87602000E4B70B503604FF6FF73838061
:10E4C000642300250446C38001260323058145817A
:10E4D000067345738373294606220F3006F062FCEB
:10E4E00084F820606575A561E561204670BD00BFB8
:10E4F000E8760200C161704710B50446FFF7D6F90F
:10E50000024B1A7801321A70204610BD094D0020C6
:10E51000014B1878704700BF094D0020014B18606F
:10E52000704700BF0C4D002010B5044602F0D0FC2F
:10E53000A08802F03FFD012806D10B4B186848B1B6
:10E54000214600F037F905E0022803D1074B18688F
:10E5500020B910BD23881D2BF8D010BD2146BDE881
:10E560001040FFF74BBA00BF0C4D0020104D0020AB
:10E57000024B1868003018BF012070470C4D002076
:10E580000A46034903460868194600F071BA00BFFD
:10E590000C4D002084B0F0B506AF87E80E003D4674
:10E5A00000F1500406460FCD0FC40FCD0FC495E8FF
:10E5B000030084E803000023FA185278F254013370
:10E5C000062BF9D19DF82020C2F3C403D9B286F8F6
:10E5D00025300023D8B2884205D2FC18F018647A9E
:10E5E00084710133F6E7C2F3410386F82630C2F3A3
:10E5F00000029DF81F3086F8272086F82830BDE8F5
:10E60000F04004B0704708B5006903681B6A98477A
:10E6100008BDA0F10400FFF7F6BF08B50069036864
:10E620005B6A984708BDA0F10400FFF7F6BF08B584
:10E63000006903689B6A984708BDA0F10400FFF7D2
:10E64000F6BF08B500690368DB6A984708BDA0F10A
:10E650000400FFF7F6BF08B5006903681B6B984715
:10E6600008BDA0F10800FFF7F6BF08B50069036810
:10E670005B6B984708BDA0F10800FFF7F6BF08B52F
:10E68000006903689B6B984708BDA0F10800FFF77D
:10E69000F6BF10B500690468E46BA04710BDA0F197
:10E6A0000800FFF7F6BF08B5006903681B6C9847C0
:10E6B00008BDA0F10800FFF7F6BF08B500690368C0
:10E6C0005B6C984708BDA0F10800FFF7F6BF08B5DE
:10E6D000006903689B6C984708BDA0F10800FFF72C
:10E6E000F6BF08B500690368DB6C984708BDA0F168
:10E6F0000800FFF7F6BF08B5D0F8D83113B100F520
:10E70000E270984708BD08B5D0F8DC3113B100F5C8
:10E71000E270984708BD08B5D0F8E03113B100F5B4
:10E72000E270984708BD08B5D0F8E43113B100F5A0
:10E73000E270984708BD10B5D0F8E84114B1104612
:10E740001946A04710BD10B5146800F5E271646A5F
:10E7500010461A469DF80830A04710BD7047704714
:10E76000704738B5054600F5E27420461146FFF7BC
:10E77000FFF8D5F8D0310BB12046984738BDD0F816
:10E78000D43110B500F5E2740BB12046984720460D
:10E79000BDE81040FFF7F0B800F5E27110461A46E8
:10E7A000FFF706BE00F5E27110461A469DF80030EC
:10E7B00000F02ABB08B500690368DB68984708BD0C
:10E7C00008B5006903681B69984708BD38B5D0F8DB
:10E7D000E43004460D463BB900F0E6FA00B2800092
:10E7E00006F0B8FAC4F8E40094F8E820D4F8E4306D
:10E7F00043F8225094F8E830013384F8E83038BD0B
:10E8000010B500210446FFF7D5FF04F5E270BDE81E
:10E810001040FFF79DB810B50446FFF779FE00B22F
:10E82000800006F097FA04F1EC03C4F8DC00036002
:10E83000D4F8DC3004F1F8025A60D4F8DC3004F586
:10E8400094729A60D4F8DC3004F5AA72DA60D4F8D5
:10E85000DC3004F5B0721A61052384F8E03010BD95
:10E8600070B5D0F8DC3086B004460BB9FFF7D3FFA3
:10E87000002594F8E0309D4213DAD4F8DC3053F8E8
:10E8800025603046FFF717F842F60303984206D199
:10E890000EB1301F00E03046211DFFF7ABFD013502
:10E8A000E7E7002594F8E8309D4214DAD4F8E43024
:10E8B00053F825603046FEF7FEFF42F60303984208
:10E8C00007D10EB1301F00E0304604F1080100F01E
:10E8D000BFFA0135E6E74BB1204604F5C671FFF7F4
:10E8E00075FF204604F5CC71FFF770FF206994F89E
:10E8F000B810056894F8D93004F1B9020092D4F840
:10E90000DC20019294F8E0200292D4F8E4200392F3
:10E9100094F8E8200492AD6804F19802A8472069B1
:10E9200003681B6D984706B070BD38B5D0F8DC3071
:10E9300004460D460BB9FFF76EFF94F8E020D4F8BB
:10E94000DC3043F8225094F8E030013384F8E030B2
:10E9500038BDFFF7EABF2DE9F0410F46194690F8A0
:10E96000B8301B2B144608D8C3F11C03934204DBB8
:10E9700000F1980200F1B8050BE090F8D9301C2B9B
:10E9800049D8C3F11D03A34245DB00F1B90200F1F0
:10E99000D9050026935D02EB060863B398F80100E1
:10E9A000B84205D001331E44F6B21E2EF2D922E041
:10E9B0000A2F01D0192F06D1B01C10442246BDE801
:10E9C000F04106F0E6B92F78274498F8000030446B
:10E9D0000130013F03199F4203DB131BDB5DD3555D
:10E9E000F3E71044224606F0D4F998F800302344A7
:10E9F00088F800300CE02B78601CD0542B7813443E
:10EA00005F70287802301044224606F0C2F90234C2
:10EA10002B781C442C70BDE8F08170B586B005469B
:10EA2000684600F06CFB684600F09BFB0328044638
:10EA3000684634BF0226062600F091FB31460346A5
:10EA400022462846FFF787FF06B070BD70B5054621
:10EA500008460C4606F0BCFAC2B21D2A28462346D8
:10EA600092BF092108211D22BDE87040FFF773BF46
:10EA7000012938B5134604D1036801699B6898479A
:10EA800038BD022904D1016801228D690169A847B6
:10EA900038BD0000154B10B503F174020360044645
:10EAA0008C3342608360FFF78BFED4F8E40008B13A
:10EAB00006F058F9D4F8DC0008B106F053F904F573
:10EAC000CA7000F077F904F5AE70FFF70FFC04F59B
:10EAD0009270FFF70BFC04F1F400FFF707FC04F160
:10EAE000140001F033F8204610BD00BF2885020055
:10EAF00010B50446FFF7CEFF204605F0EFFB204699
:10EB000010BD37B502AC054624F8021D022223468B
:10EB10001921FFF720FF05F5927021460222FFF729
:10EB2000FAFB03B030BD00002DE9F843784B794F74
:10EB3000794E03F10802026003F17C029433836092
:10EB40004FF0102304464260596904F114090C3057
:10EB50000025FEF7B6FE484601F048FC04F1F40833
:10EB600084F8B85084F8D950C4F8DC5084F8E050E8
:10EB7000C4F8E45084F8E85004F1EC00674900F070
:10EB8000B6FA4046664902221323FFF7D7FB02225A
:10EB9000134604F592706349FFF7D0FB394604F53C
:10EBA000AA7000F0A4FA04233146202204F5AE70C6
:10EBB000FFF7C4FB394604F5C67000F04BF95A4F15
:10EBC0003146202204F5CA7000F004F9214604F50C
:10EBD000E270FEF7D6FE3946C4F8E85104F5F67047
:10EBE000FC2206F0D6F807F1FC0104F53A704FF468
:10EBF000806206F0CEF8294604F5DD60682206F052
:10EC0000D1F84A4BC4F8E836494BC4F8EC36494BC6
:10EC1000C4F8F036484BC4F8F436484BC4F8F8361C
:10EC2000474BC4F8FC36474BC4F80037464BC4F892
:10EC30000437464BC4F80837454BC4F80C37454BEE
:10EC4000C4F81037444BC4F81437444BC4F8183791
:10EC5000434BC4F81C37434BC4F82037424BC4F82D
:10EC60002437424BC4F82837414BC4F82C37C4F83A
:10EC70003437404BC4F838373F4BC4F83C373F4B30
:10EC8000C4F840373E4BC4F844373E4A3E4BC4F8C4
:10EC9000302707F2FC47C4F848370FCF04F5EA667F
:10ECA0000FC697E80300182286E803002946C4F837
:10ECB000109004F5E87006F075F8294604F1980004
:10ECC000202206F06FF82022294604F1B90006F050
:10ECD00069F8022384F89830012384F899300623D8
:10ECE00084F89A30032384F8B83040462749FFF768
:10ECF000EFFA20462946FFF704FF20692146FFF777
:10ED0000F9FB2046FFF70AFC2046BDE8F88300BF68
:10ED1000208502007E7C0200837C02006F7C020062
:10ED2000747C0200797C020048770200887C020033
:10ED3000907C02009E7C0200BC7C0200E07C020011
:10ED4000FE7C02001D7D0200407D0200677D020006
:10ED5000947D0200AE7D0200E37D02000D7E020084
:10ED6000387E0200817E0200B57E0200D37E020062
:10ED7000F27E0200557F0200787F0200997F020038
:10ED800004800200157F0200488002007B800200A0
:10ED900010B50446FEF78AFD024B1A7801321A704C
:10EDA000204610BD144D0020014B1878704700BF5D
:10EDB000144D0020014B0360704700BFE085020046
:10EDC00010B5034B0360044605F088FA204610BDD9
:10EDD000E085020038B504461546043042F60302C9
:10EDE000FFF7D6FF0021074B2360A572E17284F87C
:10EDF0002210616204F12800042205F0D3FF2046AE
:10EE000038BD00BFE085020038B50446C3720D4628
:10EE10000C3011461A4605F0BCFF012384F822305D
:10EE2000A36A13B128462146984738BD38B5044631
:10EE3000C3720D460C3011461A4605F0AAFF012395
:10EE400084F82230E36A13B128462146984738BD3A
:10EE50004162704710B54FF420520446FFF798FF07
:10EE6000204610BD10B504460021FFF7A3FCD4F8DE
:10EE70007C07D4F88037C01AC0B210BDA0F55A7014
:10EE8000A0F58060FFF7EEBF10B504460021FFF744
:10EE900091FCD4F88037D4F87C2793421ABFE41849
:10EEA00094F884074FF0FF3010BDA0F55A70A0F51C
:10EEB0008060FFF7E9BF10B504460021FFF77AFC38
:10EEC000D4F88037D4F87C27934207D00133DBB2E3
:10EED000C4F880371C4494F8840710BD4FF0FF300D
:10EEE00010BDA0F55A70A0F58060FFF7E4BFFFF7F2
:10EEF00087BC38B504460D460021FFF75BFC04F6DD
:10EF00000410FFF753FA80B1D4F88428531C22442C
:10EF1000142BC4F8843882F8885801D00A2D03D104
:10EF2000236820469B6F9847012038BDA0F55A7092
:10EF3000A0F58060FFF7DDBF2DE9F0410446FFF743
:10EF4000F3FD4FF47A73C4F87037374B374E3849B6
:10EF500003F10802226003F19402002504F69C07E5
:10EF6000626003F1AC02D433C4F86837A260C4F81D
:10EF70006C57384600F0BBF804F6BC08314604F67E
:10EF8000A4002C4AFFF750FA142340462A490422D1
:10EF9000FFF7D4F9314604F6EC00284AFFF744FAAB
:10EFA000142304F6041026491022FFF7C7F9254A56
:10EFB000314604F63410FFF737FA234BC4F884586F
:10EFC00020463946C4F88057C4F87C57C4F87857AF
:10EFD0001C60FFF7BEFC04F6A8012046FFF7B9FC51
:10EFE0003846FEF766FC01462046FFF716FD204630
:10EFF00004F50C61FFF7ADFC204604F50F61FFF747
:10F00000A8FC124A40462946FFF7EEF9204604F6CE
:10F010000811FFF79EFC204604F63811FFF799FC13
:10F020002046BDE8F08100BF988602000D860200F0
:10F03000E885020012860200178602003C86020064
:10F04000568602007B860200184D002085F00100E4
:10F050000FB408B50298FFF703FCBDE8084004B000
:10F06000704730B5002393420BD0D0F87C47013471
:10F07000E4B2C0F87C470444CD5C84F88457013383
:10F08000F1E730BD094B70B51D680B680C460846AA
:10F09000DB689847236806461B6920469847314637
:10F0A00002462846BDE87040FFF7DBBF184D002040
:10F0B000D0F8842810B5044692B104F68801D2B283
:10F0C00000F60410FFF727F901F034FD0021C4F821
:10F0D0007807C4F884182046BDE81040FFF76ABBE3
:10F0E00010BDA0F55A70A0F58060FFF7E1BF10B524
:10F0F0004FF420520446FFF7FFF9204610BDF7B544
:10F10000044600232160037508460E468DF804303E
:10F110008DF805308DF8063005F05AFF451E002D9C
:10F120001ADB277D0F2F17D8735D2D2B01D10135E9
:10F1300010E0721901A812F8012C8DF804200021AA
:10F1400010228DF8053005F0C3FF237D27440133DD
:10F1500038712375023DE2E7204603B0F0BD04306C
:10F160007047007D704771DF704772DF704773DF53
:10F17000704775DF704776DF704777DF704778DF5D
:10F1800070477ADF70477CDF70477EDF704790DF23
:10F19000704792DF704796DF704798DF704799DFBE
:10F1A0007047A0DF7047A2DF7047A3DF7047A4DF7E
:10F1B0007047A6DF7047A9DF704760DF704761DFE7
:10F1C000704762DF704763DF704753DF704710DFBF
:10F1D000704711DF704790F86800003018BF0120B9
:10F1E000704790F86800003018BF0120704770B574
:10F1F00090F8796002460023B34212DA1801D56F05
:10F200002C18285888420AD1E08958B1207BC0F3D5
:10F21000400038B192F8800080F0010070BD0133E9
:10F22000EAE7002070BD70B590F879600023B34222
:10F2300019DA1C01C56F2A192C598C4211D1D189B8
:10F2400099B1137BC3F340038BB1012380F8803065
:10F2500000228088FFF79FFFD0F1010038BF002017
:10F2600070BD0133E3E7002070BD084670BD18464D
:10F2700070BD70B590F8796003460022B2421ADA88
:10F280001001DD6F2C182858884212D1E08998B1FE
:10F29000207B020704D593F8800080F0010070BD48
:10F2A000C0F3800040B193F86800003018BF01201F
:10F2B00070BD0132E2E7002070BDF0B590F879C072
:10F2C00085B0002464452FDA2601C76FBD19BE59E9
:10F2D0008E4227D1EC894CB32D7B15F00C0127D041
:10F2E00090F8681021B315F0080F0CBF0225012516
:10F2F000ADF80A300139012380F8803080F86810B9
:10F300008DF804508088ADF80640002501A98DF8DD
:10F310000550ADF808500392FFF73FFF431B5842DA
:10F32000584106E00134CDE7002002E0204600E02D
:10F33000084605B0F0BD70B590F879600023B3427F
:10F3400010DA1C01C56F2A192C598C4208D1D089BA
:10F3500048B1137B13F0300F0CBF0020012070BDAB
:10F360000133ECE7002070BD7FB590F87960002391
:10F37000B3422FDA1C01C56F2A192C598C4227D1B0
:10F38000D3894BB3127B12F0300127D0012112F048
:10F39000100F0B440CBF02220A46ADF806300223C0
:10F3A00080F88010ADF802208DF804100022ADF82E
:10F3B0000A3080888DF805206B4401A9ADF808203B
:10F3C0000393FFF7EAFED0F1010038BF002006E00A
:10F3D0000133CDE7002002E0184600E0084604B003
:10F3E00070BD08B503681B6C984708BD7FB590F8E1
:10F3F00079600023B3422BDA1C01C56F2A192C59FE
:10F400008C4223D1D3892BB3127B12F030014FF001
:10F41000000221D001210B44ADF80630022380F810
:10F4200080108DF80410ADF80A308088ADF8022005
:10F430006B4401A98DF80520ADF808200393FFF770
:10F44000ACFED0F1010038BF002006E00133D1E767
:10F45000002002E0184600E0084604B070BD11F13B
:10F46000270F08B514DB11F11D0F14DB11F1130F79
:10F4700014DB11F10F0F14DB11F10B0F14DBCA1D9C
:10F4800015DBCB1C16DB0029CCBF0420002013E0C9
:10F490006FF0270010E06FF01D000DE06FF013001B
:10F4A0000AE06FF00F0007E06FF00B0004E06FF070
:10F4B000070001E06FF00300FFF75FFED0F10100ED
:10F4C00038BF002008BD80881321FFF754BE37B530
:10F4D00004466846FFF747FEE06928B10268214606
:10F4E000956A0DF10102A84703B030BD13B504467B
:10F4F00002A8002240F8042DFFF767FE019805F0EE
:10F5000073F80022074B05F0D5F805F095FB00EEE7
:10F51000100AE06918B102682146D26A904702B029
:10F5200010BD00BF0000D03F704710B5044686B044
:10F5300068460021182205F035FC237B002B4FF094
:10F5400000030CBF03221A468DF80020E2880193C5
:10F550000A21120192FBF1F268468DF808300393FC
:10F56000ADF81020ADF81230FFF701FE06B010BD67
:10F570002DE9F041054690F869008EB00C46002355
:10F58000834260DA14225A43E96E8E188A58A242E6
:10F5900007D12046FEF7F8FEC30754D5736813B9A8
:10F5A00051E00133ECE795F8407005F121013A464E
:10F5B00006A805F0EEFB236820461B699847043037
:10F5C0000744FFB21F2F3ED87068FEF772F901465C
:10F5D0006846FFF794FD236895F840601B69204654
:10F5E00098470EAB1E44033006F8200C95F8406097
:10F5F00033441622684603F81F2CFFF7B0FD06AB14
:10F600000146B01C0222184405F0C3FB95F8408067
:10F6100006AB08F10408984423682046DB68984745
:10F62000236806461B6920469847314602464046F5
:10F6300005F0AFFB002206A839461346FFF795FDFB
:10F640006C64012000E000200EB0BDE8F0812DE9DF
:10F65000F0430446CDB00D4659B94FF48E7305A85A
:10F6600003A9ADF80C30FFF7AAFD002840F0528244
:10F6700005AD2B88302B00F00B810ED8112B5AD002
:10F6800004D8012B1ED0102B23D043E2152B00F001
:10F690002982172B00F032823CE2382B00F0C68121
:10F6A00006D8322B00F03E81362B00F09D8131E2EE
:10F6B000502B00F0A480522B00F0E380392B40F057
:10F6C0002982EDE12A7A94F86830134484F868308E
:10F6D00020E2002384F82030A888A08003A9FFF747
:10F6E00070FDE0699DF80C3084F8683028B103683B
:10F6F00021461B6805F1090298472289052A12D97B
:10F700006389B3F5486F0ED8ADF80E300023ADF81D
:10F710001030A088ADF80C204FF4C87303A9ADF8E1
:10F720001230FFF726FD94F87030002B00F0F281C4
:10F73000A0880121D4E04FF6FF73A38000260123A7
:10F7400084F8686084F8203094F869309E421BDAAF
:10F75000D4F86C904FF0140808FB06F809EB080386
:10F7600000271F745F7459F80800FEF71FFE48B1A8
:10F77000E06938B1036859F80820D3F820C0214661
:10F780003B46E0470136DFE7E06950B103682146B8
:10F790009E692B7A0022B047E069036821465B68C6
:10F7A0009847002594F870309D420ADA636F0C2266
:10F7B00002FB053008300021042205F0F3FA013580
:10F7C000F0E7002594F879309D420DDAE06F2E01C4
:10F7D00030440C300021012205F0E4FAE36F1E44AE
:10F7E0000023F3810135EDE7002384F8803023689E
:10F7F00020469B699847022384F820308AE1B5F8B7
:10F8000006904FF0000894F86930984580F28281A4
:10F810001423E26E03FB08F3D618318949450DD154
:10F82000E069002800F0768103682A7C0092DF6995
:10F830003268214605F11203B8476BE1B1894945A9
:10F840001CD1A97CEF7CD05841EA072707F00101C1
:10F85000C7F3400700297774317418BF0127FEF7FA
:10F86000A5FD87420AD0E069002800F053810368B3
:10F8700032681D6A21463B46A8474BE108F1010862
:10F88000C1E70021A0880A460B46FFF794FC41E13E
:10F89000EB884BBBAF892A46BB421BDA94F870E079
:10F8A0000021714513DA606F92F810C00C2606FB38
:10F8B0000106B079844508D1B2F80EC0B0888445FD
:10F8C00003D1D2F81200B06001E00131E9E7013361
:10F8D0000832E1E705EBC705A088A989013189B2A3
:10F8E0000022FFF754FC15E140F20112934210D1BF
:10F8F00094F870000023834280F20C81626F0C2127
:10F9000001FB03210A8912B14A89002A5DD1013322
:10F91000F1E7E069002800F0FD8002682146956962
:10F9200002225FE0EB88002B37D194F87820606FDB
:10F93000AF8902EB420200EB820292680392BB4263
:10F9400026DA002194F8792091421BDAE26F94F8CC
:10F95000786002EB011206EB460650F826E0566886
:10F96000B6450DD195F810E0967AB64508D1B5F8B0
:10F970000EE01689B64503D1AE7C1673EE8AD681A9
:10F980000131DFE7EA8AADF80C2001330A35D6E70A
:10F99000A08803A9FFF7FDFBBCE0B3F5857F19D173
:10F9A00094F8783094F8700001330C225A4301E047
:10F9B00001330C32834280F2A880616F11440D89BB
:10F9C000002DF5D04D89002DF2D084F87830A08834
:10F9D0000831DFE7E069002800F09C8002682146DA
:10F9E00095690322A84795E0002684F88060EB889B
:10F9F00040F20512934202D1A2690ABB0EE06BB934
:10FA0000A88994F879108B4280F28480E26F02EB2F
:10FA10000312D68986424FD00133F4E7E06900280B
:10FA200078D00268214695690422DBE7002684F835
:10FA30008060EB8840F20512934227D1A2693AB365
:10FA4000314603A8052205F0ADF99DF80F30627B21
:10FA5000A08843F001038DF80F309DF80C3043F07F
:10FA6000010303F0FB0362F34103A27B62F306137D
:10FA700066F3C7138DF80C3007238DF80D3003A9FA
:10FA800010238DF80E30FFF780FB43E0002B41D0B0
:10FA9000E06900283ED00268214695690522A1E769
:10FAA000AB7BAE89022B03D1A0883146FFF777FBF1
:10FAB00094F87910002312E0E06958B30368297CB8
:10FAC00000915E6A1268214605F11203B04721E0F9
:10FAD000E26F02EB0312D089B042EDD001338B42CA
:10FAE000F6DB17E004F10F0005F10801062205F02E
:10FAF00050F9E06970B103681B6903E0E06948B13F
:10FB000003685B692146984704E0E06910B1036827
:10FB1000DB68F7E74DB0BDE8F08310B50446FFF7AA
:10FB200058FBE06F08B105F01DF9606F08B105F0F2
:10FB300019F9E06E08B105F015F9002384F8693071
:10FB400084F8703084F8793010BD000010B5054B92
:10FB500003600446FFF7E1FF2046FEF79BFC2046CA
:10FB600010BD00BF9887020010B50446FFF7EEFFF6
:10FB7000204604F0B3FB204610BD13B51288ADF843
:10FB800000200446ADF802106A4621464FF6FF7089
:10FB90000193FFF70CFB02B010BD00002DE9F04F00
:10FBA0009B46BE4BE7B0044618680A900E46924644
:10FBB00000219DF8C82103920AA8DDF8C4819DF8B0
:10FBC000D071FFF704FB1422B54B0B9300210FA853
:10FBD00005F0E8F80A23ADF83C309DF8483043F0D2
:10FBE000010300250BA98DF848300FA801238DF8DB
:10FBF000443013958DF845508DF84650FFF7DDFAE7
:10FC00002823ADF834305023ADF836300DA84FF42A
:10FC1000C873ADF83A3004F12109ADF83850FFF758
:10FC2000B0FA2846FFF7A9FA51463246484605F091
:10FC3000B0F884F8406048463146709A5B46FFF75A
:10FC400094FA2846FFF79BFA039B9D420EDA58F878
:10FC50002500FDF730FE42F60303984204D194F8E4
:10FC60006930013384F869300135EDE794F86900B3
:10FC70000338C0B284F8690000EB8000800005F012
:10FC800069F80026A8F10402E066ADF81C60029253
:10FC90000496B046039A964280F20182029B53F882
:10FCA000045F02932846FDF704FE014619A8FFF7FA
:10FCB00026FA19A8FFF753FA814619A8FFF751FA57
:10FCC00002280BD199F8012099F8003043EA022369
:10FCD000ADF8303001238DF8323016E0494610225D
:10FCE00026A805F056F899F80D2099F80C3043EA4B
:10FCF0000223ADF8303026A800230DF132018DF833
:10FD0000A5308DF8A430FFF75EFA2846FDF7D3FD45
:10FD1000B0F5205F284611D1FDF7CBFD614905F014
:10FD20004DF9002800F0B9812846FDF7C2FD5E4973
:10FD300005F044F9002800F0B0816FE2FDF7BBFD4B
:10FD400042F60303984240F07A8105B1043D05F183
:10FD500004094846FDF7ADFD544905F02FF9B8B93F
:10FD60009DF89830012262F3030362F307138DF8C4
:10FD700098302B682846DB6898472B6881461B69BA
:10FD8000284698474946024626A8FFF7FCF984E131
:10FD90004846FDF78EFD464905F010F938B92B6845
:10FDA0002846DB6898470088FFF7E9F975E148467F
:10FDB000FDF77FFD3F4905F001F9002800F06D8156
:10FDC0002846FEF7E1FA20F001008DF81B002B68B1
:10FDD00028461B699847E26EADF81E0008EB8801C3
:10FDE0004FEA810902EB09034FF0000A42F8215063
:10FDF000049A5A6083F810A083F811A051461C227F
:10FE00001FA804F0CFFF1FA80DF11B01012204F071
:10FE1000C0FF9DF81B30CDF880A013F0300FCDF857
:10FE200088A0CDF88CA0CDF890A0CDF894A01FD0DC
:10FE30000DF1200B03225846514604F0B3FF9BF806
:10FE40000020CDF890B0012363F3030263F307129F
:10FE50008BF800209BF8012063F3030263F3071281
:10FE60008BF801209BF8022063F342028BF80220FA
:10FE700009A80021032204F095FF9DF81B3013F020
:10FE8000320F22D0A069B8B1FDF72EFDA0B99DF8C0
:10FE90002430012262F30303022212E08887020069
:10FEA000004000206F7C02007E7C0200747C020017
:10FEB000797C0200837C02009DF82430012262F3E9
:10FEC000030362F307138DF824309DF81B3013F001
:10FED0000C0F14D0A06948B1FDF706FD30B99DF8AC
:10FEE0002530012262F30303022204E09DF825304D
:10FEF000012262F3030362F307138DF825309DF8A6
:10FF00002630012262F3420303F0F7036FF3041378
:10FF10008DF826302B6828469B6998479DF8263037
:10FF200080F0010060F300038DF82630029B0593FA
:10FF300006F1010A039B9A4509DA059A52F804BFB3
:10FF400005925846FDF7B7FCB0F5245F25D0002197
:10FF5000142214A804F026FF0CAB149309AB1593DC
:10FF6000BDF81E30ADF858302B684FF0000A9B6882
:10FF7000ADF85AA028469847E36EADF85C004B44B4
:10FF8000083350461FA914AACDF860A0FFF70BF95B
:10FF9000BDF81E30002B35D14CE0BBF1000F01D075
:10FFA000ABF1040B0BF1040210460192FDF781FC4A
:10FFB0009E4905F003F8019AA0B9DBF800205846E5
:10FFC000926890472090DBF800205846D26890470E
:10FFD000DBF80020ADF88400D26858469047ADF8B1
:10FFE00086000CE01046FDF764FC914904F0E6FF42
:10FFF00028B9DBF8002058469268904722900AF111
:020000022000DC
:10000000010A97E7BDF81E309A450ADA2B68514677
:100010005B692846984726AB03F80A000AF1010AF3
:10002000F0E7E36E4B44002118890DF11E0226AB68
:10003000FFF7A3FD08F101085FFA88F82DE02846D4
:10004000FDF739FCB0F5245F27D105B1043D05F17A
:1000500004094846FDF72DFC744904F0AFFFE0B1F8
:100060004846FDF726FC734904F0A8FFA8B14846AE
:10007000FDF71FFC704904F0A1FF70B14846FDF781
:1000800018FC6B4904F09AFF38B1D7E0BDF81C00AA
:10009000002109AA26ABFFF770FD0136FAE50FB182
:1000A000023FFFB20025BD421CDA739B53F8256066
:1000B0003046FDF700FCB0F5205F05D194F87030B4
:1000C000013384F870300BE03046FDF7F4FB42F664
:1000D0000303984204D194F87930013384F87930DD
:1000E0000135E0E794F8700000EB4000800004F078
:1000F00031FE606794F87900000104F02BFE0026C1
:10010000E067B146B046B246BE4276DA739A52F81C
:1001100026502846FDF7CDFB014626A8FEF7EFFF47
:1001200026A8FFF71CF8834626A8FFF71AF802282E
:100130000BD19BF801209BF8003043EA0223ADF875
:10014000643001238DF8663016E0594610221FA84E
:1001500004F01FFE9BF80D209BF80C3043EA0223AD
:10016000ADF864301FA800230DF166018DF88930C9
:100170008DF88830FFF727F82846FDF79CFBB0F58F
:10018000205F15D1626F08EB48018B00D01842F850
:100190002150199A4260606F1844083000210422EF
:1001A00008F1010804F0FEFD5FFA88F8AA4622E093
:1001B0002846FDF780FB42F6030398421BD1E26F0D
:1001C0004FEA091B02EB0B0305B1043D42F80B504B
:1001D000C3F804A0199A9A60E06F584401220C30C9
:1001E000002104F0DFFDE36F5B44002209F1010907
:1001F000DA815FFA89F9013686E7A06920B1FDF757
:1002000073FB002840F08480236820469B69984750
:10021000022384F8203067B0BDE8F08F01200CA9DC
:1002200007AAFEF7BEFF049537E700BF0D86020060
:10023000F8870200FD870200028802002B6828462A
:10024000DB6898470DF1500AADF824000021142214
:100250001FA804F0A7FD00210322504604F0A2FDD0
:100260009AF80230BDF824B04FF0010969F3420357
:100270008AF802302B682846DB6898479AF80230E3
:10028000BBEB000018BF012060F30003A0698AF8EF
:10029000023010B1FDF728FB28B19AF80030012296
:1002A00062F3030304E09AF80030022269F30303C7
:1002B00062F307138AF800300CAB1F93CDF880A0CF
:1002C000BDF82430ADF884302B682846DB689847A9
:1002D0004FF00009ADF888001FA9484607AACDF8DD
:1002E0008C90FEF762FFBDF82430002B3FF4D5AEB2
:1002F000BDF824309945BFF6C9AE2B6849461B6945
:100300002846984726AB03F8090009F10109EFE7F1
:10031000A06904F1480100221C23FDF70FFB73E7DD
:100320002DE9F047044686B00D4600264FF001093E
:1003300094F869309E4254DA14237343E26ED7185E
:10034000D358AB424BD1636C9D4204D12368204605
:100350005B6A294698472B6828461B6998470DF128
:1003600018082B6828F8120DDB68B7F808A0284693
:1003700098470021034642465046FFF7FEFB02A87D
:100380000021102204F00EFD3B89ADF80830002357
:10039000ADF80C3005933B7CCDF8108073B194F828
:1003A000683053B1013B84F86830A088012302A96A
:1003B0008DF80A30FEF7FDFE00E099467B7C73B1B4
:1003C00094F8683053B1013B84F86830A088022368
:1003D00002A98DF80A30FEF7ECFE00E099460136DE
:1003E000A6E7484606B0BDE8F087000010B5044611
:1003F000FEF760F800210E4B236004F1480084F8FA
:100400004010616484F8681084F86910E16684F82B
:100410007010616784F8781084F87910E16784F8C7
:10042000801060661C2204F0BDFC204610BD00BF99
:10043000988702002DE9F043084685B015460F461F
:1004400004F0C6FD8146284604F0C2FD04AC4FF41A
:10045000807344F8043D80460A4E0B48002100F0AA
:10046000A9F95FFA89F12A465FFA88F300960194A8
:10047000384600F001FF3046039900F0D7F905B087
:10048000BDE8F0831C4D00209D04020000F078BA06
:1004900008B5036803B1984708BD00000148FFF79D
:1004A000F7BF00BF1C4E002002480E210F2201F0B2
:1004B0003FBB00BF204E00202DE9F047BA4C8442DC
:1004C00001D0BDE8F0870329FBD8DFE801F01F3138
:1004D00060022378B44C042B00F0FB80052BF0D194
:1004E00094F8682094F8693004219A422170E8D188
:1004F00094F86A20002AE4D113466568A0680321B5
:10050000A847012384F86A30BDE8F0872378042BDC
:10051000D7D0052BD5D0032BD3D104236568237006
:100520000022A068AC4613460121BDE8F0476047B1
:100530002378042B00F0CF80052B0CD104239B4A99
:100540006568A06803EB4303134400229B78237083
:1005500002211346A84794F86960002E00F0AD8090
:1005600000210D46022208200127013107FA02F37B
:100570008E4243EA000300F0A280013AD8B2F4D5DB
:100580006319072283F8480001350020EDE7002BAE
:1005900097D0002A95D01178302992D1022B90D192
:1005A0002178814B04298CD192F8018059694FEA56
:1005B000880505228D421A70C0F08F809A69103A22
:1005C000954200F28A80D8686D1A2844102100F004
:1005D0005BFF4FEAD803C8EBC301B8F1030F01F189
:1005E0000705714E94F8682010D91E444FF0010E93
:1005F00096F848000EFA05F710EA070504D020EA3D
:10060000070086F8480075462A44D2B2063108F140
:10061000010044BF0133072110F0FF0049D0032837
:1006200010D904EB030E01279EF8480007FA01F6E3
:1006300010EA060504D020EA06008EF848003D4680
:100640002A44D2B24E1E002900F0A68008F1020111
:1006500011F0FF012DD0032910D904EB030E01275F
:100660009EF8481007FA06F511EA050004D021EAC1
:1006700005018EF8481038460244D2B2701E002E92
:1006800000F0878008F1030111F0FF0111D0032968
:100690000FD02344012693F8481006FA00F511EA1A
:1006A000050004D021EA050183F8481030460244D1
:1006B000D2B284F86820BDE8F0873546304625443C
:1006C000002385F8480084F8683084F86A30BDE873
:1006D000F087BDE8F087012331E7334E06F1380794
:1006E00038460021102204F05DFBD4F814904D45EB
:1006F0004DD27119C5EB09060F2E01F124013846C0
:100700004DD8324604F045FB37444D46C6F110063D
:10071000A369254AAB4212D953691069D168EB1A13
:10072000C3EB0009B14528BFB146384619444A46D3
:1007300004F02FFBB6EB09064D444F4432D0E36979
:10074000AB420ED95B1BB34228BF334699463846AD
:100750001A4600211D441F4404F024FBB6EB090691
:1007600020D0236AAB420BD95D1BB54228BF35466A
:1007700038462A46FF2104F015FB761B2F4411D082
:1007800038463246002104F00DFB09481EE71026CA
:10079000BEE70133072075E70133072656E710222D
:1007A00004F0F7FA024811E77C4E00204C8A020060
:1007B000B44E002040B1F8B5194C2378042B01D079
:1007C000052B03D10220F8BD04207047032BF9D07C
:1007D000002BF7D103460D46012604F124001149F0
:1007E00063600A22A5602670E12704F0D2FA112680
:1007F000FF230F227C2521460B4884F82E3084F8F5
:100800002F3084F8307084F8316084F8325084F8E6
:10081000332000F0C1FD003018BF0120F8BD00BF3B
:100820007C4E00207C8A0200B9040200B1F5777F7B
:1008300001D903207047F0B43B4D2B78042B01D035
:10084000052B02D10220F0BC7047032BFAD0002BFD
:10085000F8D0012B58D10A23344A334E03EB43031B
:1008600013449B782B70002853D00323FE2986F86D
:100870003430F0603161CCB20B4442D90A0A86F8B8
:10088000374086F83620FF241422042018448008BC
:1008900011444FF47C764FF4806385F86900A961B8
:1008A00085F835406A61EE612B6238B300210E464F
:1008B000022208240127013107FA02F3814243EAA8
:1008C000040311D0013ADCB2F5D5AB19072201318E
:1008D00083F8484081424FF0000407FA02F306F122
:1008E000010643EA0403EDD12E44002086F8484077
:1008F00085F8680085F86A00F0BC70470646044633
:10090000F2E712220220C1E7022B08BF0D23A3D079
:1009100098E703230146F0603061044686F83430DE
:1009200012220220B2E700BF7C4E00204C8A020057
:1009300018B10A2901D0032070470F4A1378042BFD
:1009400011D0052B0FD0032B0DD0012B0BD110B5DF
:100950000446137002F124003CB121460A2204F03F
:1009600018FA002010BD0220704704490A2204F042
:1009700010FA204610BD00BF7C4E00207C8A020089
:1009800008B50C4A1378042B01D0052B01D10220A5
:1009900008BD032BFBD0002BF9D0012BF7D0022B85
:1009A000F5D10323137000F05BFD003018BF012068
:1009B00008BD00BF7C4E00200B490C4A0C4B9B1A13
:1009C00003DD043BC858D050FBDC0949094A00202C
:1009D000521A02DD043A8850FCDC00F0CBF804F037
:1009E00093F901F0B3F9000050920200004000209A
:1009F0004841002020560020FEE7FEE7FEE7FEE724
:100A0000FEE7FEE7FEE7FEE7FEE7FEE737B5002379
:100A1000144A02EB0311D8B2098901F1804101F5B2
:100A2000C0410968012903D00133082BF0D11846D1
:100A300002EB0012002113890B4C03F1804303F5F4
:100A4000C04302F1080519601B680193019BD3683C
:100A5000C4F80833536898476B68C4F8043303B08C
:100A600030BD00BFE84E002000600040F0B500231C
:100A7000284D5C5D2CB90133082BF9D14FF0FF30C4
:100A8000F0BD254F1E01BC19B8516160234931F8F2
:100A9000131021812249013A51F82310E160032A01
:100AA0004FF00004EC5432D81E4CA45C9B0003F1C0
:100AB000804303F5C0431C4A142505FB0020D3F8EE
:100AC0001025456822F4473222F44072C3F81025FD
:100AD000D3F810052A0202F4F8522404024304F465
:100AE00040341443C3F81045D3F8102542F00102F6
:100AF000C3F810250D4BC02283F806234022C3F80B
:100B000080211A600A4B0846C3F80413F0BD022482
:100B1000CCE700BF34400020E84E00200440002015
:100B200014400020888A02000888020000E100E0EA
:100B300000600040014B1868704700BF684F0020FC
:100B4000024B1A6801321A60704700BF684F0020DC
:100B500070B5044648B1054B1D681E4600F008F804
:100B60003268631E521B9A42F8D970BD684F00204C
:100B700070470000944B1B78062B0AD1934B1B68DF
:100B80001A0706D1924B1B6803F0F003302B00F0DC
:100B9000AA808D4B1B78062B0FD18C4B1B681B0733
:100BA0000BD18B4B1B6803F0F002302A00F09F80C2
:100BB00003F0E003402B00F09A80834B1B78062B58
:100BC0000AD1824B1B68180706D1814B1B6803F0C2
:100BD000F003302B00F092807B4B1B78062B0FD15B
:100BE0007A4B1B6819070BD1794B1B6803F0F00295
:100BF000302A00F0898003F0E003402B00F084806D
:100C0000714B1B78062B09D1704B1B681A0705D155
:100C10006F4B1B6803F0F003302B7FD06A4B1B78BF
:100C2000062B0AD1694B1B6813F00F0305D1684AE4
:100C3000126802F0F002302A74D0634B1B78062B46
:100C400009D1624B1B681B0705D1614B1B6803F080
:100C5000F003502B70D05F4BD3F8882042F4700221
:100C6000C3F88820BFF34F8FBFF36F8F4FF010236F
:100C7000D3F80022002A03DBD3F80432002B2EDA4B
:100C8000554B0122C3F80425D3F80024002AFBD0D9
:100C90004FF010221521C2F80012D3F80024002AC8
:100CA000FBD04FF010231522C3F804224A4BD3F88F
:100CB0000024002AFAD00022C3F80425D3F8002427
:100CC000002AFBD0BFF34F8F424A444BD16801F456
:100CD000E0610B43D360BFF34F8F00BFFDE7404B94
:100CE000404A1A607047404B404A1A6051E7404BF7
:100CF0001A68404BC2F342321A605EE73E4BDA6834
:100D000022F08072DA6067E74FF080430022C3F878
:100D10000C21C3F81021C3F8382571E7374B0322A3
:100D20001A607BE7364A05211160012191679360C3
:100D3000344B3F221A6080E74FF08052324BD2F89A
:100D40000414C3F82015D2F80814C3F82415D2F8F7
:100D50000C14C3F82815D2F81014C3F82C15D2F8C7
:100D60001414C3F83015D2F81814C3F83415D2F897
:100D70001C14C3F84015D2F82014C3F84415D2F857
:100D80002414C3F84815D2F82814C3F84C15D2F827
:100D90002C14C3F85015D2F83014C3F85415D2F8F7
:100DA0003414C3F86015D2F83814C3F86415D2F8B7
:100DB0003C14C3F86815D2F84014C3F86C15D2F887
:100DC0004424C3F8702546E7E00F00F0E40F00F07C
:100DD000E80F00F000ED00E000E001400400FA053B
:100DE0003C4000200090D00374C007400DF0ADBA25
:100DF000440200103C050040F0ED00E0A00500407A
:100E0000105600401456004000C00040A0F10A03F4
:100E1000032B10B503D8D1F1010138BF0021A0F197
:100E20002603042B13D90A4B142202FB003090F93D
:100E3000083001330BD0426801244FF0A04304FA7C
:100E400002F211B9C3F80C2510BDC3F8082510BD76
:100E5000088802001D4B142210B502FB003494F9DF
:100E60000840013431D004292FD8DFE801F0031CF9
:100E70000A2E110002FB00300021426802F5E072E8
:100E80000CE002FB00300C21426802F5E07205E044
:100E900002FB00300421426802F5E0724FF0A043EB
:100EA00043F8221010BD02FB003301225B689A4018
:100EB0004FF0A043C3F81825A0F10A03032B04D870
:100EC0000021BDE81040FFF7A1BF10BD0888020057
:100ED000F0B50388112B89B0044644D01A2B48D0B2
:100EE000102B60D1314E727D337D03A8311D23EA72
:100EF000020200F014F90025039B9D420DD203AAC3
:100F000002EB45032A489B880022009200F1100161
:100F10001D2200F0CAF80135EEE7307DA788234D89
:100F2000C043C0B200F0B3F84FF6FF73984237D019
:100F300005EB400005F1150187803A46281D012385
:100F400000F0D3F8281D05F114013A46012300F002
:100F5000CCF8A37DA2889C1E634205F1040005F134
:100F60001601634119E01248A28800F11101002323
:100F700013E0037A0E48A2881F2B00F1130194BFDF
:100F80000023012300F0B1F8237A0948A2882F2B0F
:100F900000F1140194BF0023012300F0A6F802E041
:100FA000042000F066F809B0F0BD00BF6C4F0020CF
:100FB000704F002038B5094C0546217D201D2A467A
:100FC00000F09CF840B1201DA17D2A4600F096F863
:100FD00000280CBF0120022038BD00BF6C4F00204C
:100FE00082B00190019B002B41D0019B013B0193FA
:100FF00040F2E730013800BF00BF00BF00BF00BFB4
:1010000000BF00BF00BF00BF00BF00BF00BF00BFE8
:1010100000BF00BF00BF00BF00BF00BF00BF00BFD8
:1010200000BF00BF00BF00BF00BF00BF00BF00BFC8
:1010300000BF00BF00BF00BF00BF00BF00BF00BFB8
:1010400000BF00BF00BF00BF00BF00BF00BF00BFA8
:1010500000BF00BF00BF00BF00BF00BF00BF00BF98
:1010600000BF00BF00BF00BF00BFC3D1BAE702B0DE
:1010700070471FB50021039001AA44F20100ADF8AA
:1010800004100291AFF3008005B05DF804FB00236B
:1010900040FA03F1C9079AB205D40133082BF7D1FE
:1010A0004FF6FF7070471046704770B59DF81050AE
:1010B000D0B1C9B1C2B1002430F814609E4210D141
:1010C000012303FA04F4E4B2E643F6B20023C85C59
:1010D0000DB1204300E03040C85401339342F6D1B3
:1010E00070BD0134082CE7D170BD13B514460093D0
:1010F00001222346FFF7D9FF02B010BD10B568B139
:10110000002330F81340944204D141FA03F303F072
:10111000010010BD0133082BF3D1002010BD70B5C4
:1011200079B100231C4642FA04F5ED0705D500EB22
:10113000430531F81460AE8001330134082CF2D13C
:1011400000E00B46036070BD2DE9F7430025D0F8A1
:10115000009080460E4617462C46D8F808309C4230
:101160001AD224B9012B14BF8021C02104E0611CD4
:101170008B420CBF402100213B6859F824005A1BC8
:1011800002AB43F8042D324600F01BF830B9019B46
:1011900001341D441E44E0E73D60002003B0BDE87B
:1011A000F08300238360704783684268934206D2CD
:1011B000026842F823100133836000207047042046
:1011C00070472DE9F3419846067A43780446154660
:1011D0001E440BB9063600E007368B0634D1D8F82A
:1011E00000309E4232D82970237819432970237A1F
:1011F0006B7063780BB9AF1D04E041F00801EF1D7F
:10120000AB7129703846227AE16803F0C2FD237A77
:1012100062781F442AB13846616803F0BAFD6378EA
:101220001F44D8F80030606902AA9B1B42F8043DB5
:1012300039462369984750B9019B1ABA1E44C5F82C
:101240000220C8F8006002E0072000E0042002B09D
:10125000BDE8F08138B5154642682B6893420446D4
:1012600007D30846216803F094FD63682B600020D3
:1012700038BD042038BD00002DE9F047044616466D
:101280001748DDF82080099F154D89469A46FFF7DB
:1012900088FF0EB9ACB90BE05146304600F05CF85F
:1012A00001462846FFF780FF0028F3D0BDE8F0870D
:1012B000AB6893B141463A460948BDE8F047FFF7AD
:1012C00043BF4946204600F03DF801460448FFF779
:1012D0006BFF0028ECD0BDE8F0870720BDE8F08761
:1012E000404000202DE9F04104460079237B03446F
:1012F00010680733834222D800254FF0010813609D
:101300000D7081F8018023798B70CF1C22792168C0
:10131000384603F03EFD2379227BFA54FE184644FA
:10132000227BA168304603F034FD227BB318B5540C
:10133000202283F801809A702846BDE8F0810420BD
:10134000BDE8F081024B83E803000248704700BF0C
:10135000A84F002064400020044B054A1A600C226C
:1013600098601A7119730348704700BFB04F00208E
:10137000B08A02004C4000200023036082B0036862
:101380000193019B02B0704710B9024B01221A6011
:10139000704700BF005000402B4BF0B518602B4B3E
:1013A00019604FF080530621D3F85004D3F8542429
:1013B000274BC4B2C3F804132649C3F8041385B0FD
:1013C000C0F3072184F08805C2F3072EC0F307405D
:1013D000C2F307474D408DF80A704540D6B28EEAF9
:1013E00007078DF807508DF80860150E7E408DF8C0
:1013F00006008DF80B5040EA044075408DF805104A
:101400008DF80C5040EA012112BA03258DF80440F2
:101410008DF809E08DF80D50C3F89415C3F89025A8
:101420004422C3F8A02501A80A21FFF781FA0A4B3C
:101430000A4A5A6000221A6001F0A0FE10B18538F5
:1014400018BF012005B0F0BDE04F0020DC4F0020A8
:101450000050004080000800D44F00208913020093
:10146000074A0D23C2F80434064B2021C020C3F8DC
:10147000801183F8050319600123936000207047F1
:101480000050004000E100E038B505460C4691B13F
:101490000A48FFF771FFE400094B40F6F87222405A
:1014A000C3F81055C3F81C251022C3F804230122E9
:1014B000DA60002038BD022038BD00BF1051004066
:1014C0000050004038B5754DD5F8044144B1D5F809
:1014D000004314F0020403D07148FFF74DFF0224CB
:1014E000D5F8083163B16D4BD3F80033590707D5F0
:1014F0006C48FFF741FF002C14BF0324012401E0D6
:10150000002C2ED0032C254608D1644B664AD3F814
:101510003C3412681A4205D101250DE0012C0BD094
:10152000022C1ED1614B1A781C4612B9604801F09A
:101530003DFE0123237014E0584CA56001F05AFED3
:101540005A4B00221A704FF48863C4F80833564B84
:101550001D60584B1C6824B1574B01211868134675
:10156000A0474E4BD3F8182102B3D3F800235206FC
:101570001CD55248D3F82455FFF7FEFE504A137885
:10158000302B0AD14B4B1C6884B14B49C5F3C803BF
:101590000868023B0221A04708E01378502B02D1D3
:1015A000484B01221A703D4B0122DA613B4CD4F8C2
:1015B0001031CBB1D4F80033DD0615D54248FFF722
:1015C000DBFE10233E4AC4F80833C4F81025C4F8E3
:1015D00014350123E361374B1C682CB1364B0022D4
:1015E000186803211346A0472C4CD4F84C314BB358
:1015F000D4F80033180325D53448FFF7BDFE2F4833
:10160000FFF7BAFE3248FFF7B7FE2D4BC4F810358E
:101610001023C4F814350123E3614FF48863C4F840
:1016200004330D23C4F80C34C4F804341E4B0222D6
:101630001A60204B1C682CB11F4B002118680A4609
:101640000B46A047154CD4F828315BB1D4F80033D1
:10165000590507D51E48D4F80C34FFF78DFE0D232D
:10166000C4F80C34D4F81C310C4DB3B1D5F80033A8
:101670001A0612D5D5F804441648FFF77DFEE30795
:1016800007D5104B1A7822B10122C5F80424002294
:101690001A70024B0D22C3F8042438BD00500040DC
:1016A00004510040085100407C400020D04F0020F1
:1016B000D44F0020E04F0020DC4F002018510040A4
:1016C000C04F0020E44F0020105100404C5100401A
:1016D000285100401C51004072DF704773DF704793
:1016E00074DF704776DF70477ADF70477CDF7047C2
:1016F000A7DF704730B50B78152B85B0054615D19F
:1017000004230C4C02930DEB0301039401F020F928
:1017100060B92368DB0706D5074B0C2118884FF604
:10172000FF72FFF7E5FF284601F068F9002005B0D9
:1017300030BD00BFE84F00208240002008B5094BB3
:1017400018884FF6FF73984203D01321FFF7CAFFA2
:1017500001E0FFF7C5FF4FF4FA70BDE80840FFF75E
:101760003FBC00BF8240002010B5044686B0808890
:10177000FFF720FC1B4B1B7863B302282AD0A37D04
:10178000022B27D0204601F087FA1748214600F0A7
:10179000A5FC2388102B1AD0112B1BD1134B4FF60D
:1017A000FF721A8068460021182203F0FBFA00231A
:1017B000A02268468DF8003001938DF8083003931D
:1017C000ADF81020ADF81230FFF788FF02E0074BAC
:1017D000A2881A80064B13B12046FCF7A5FE06B07E
:1017E00010BD00BF80400020F04F0020824000204C
:1017F00029E5010030B585B004AD002405F8104D91
:1018000002F0EEF8684600F093FF21460DF1090062
:10181000052203F0C7FA144A9DF8093012781348DC
:1018200062F30003124A127862F34103114A1278FC
:1018300062F38203104A127803F0F70362F306138F
:1018400064F3C7138DF8093007238DF80A3010238D
:101850008DF80B30094B019301A901238DF8083055
:1018600000F0D2FF05B030BD84400020EC4F0020D6
:10187000ED4F0020EE4F002081400020F5160200C1
:1018800070B5414E8CB0FFF7B5FF06B3FCF770FEA4
:10189000E8B10C22002101A803F084FA3B4B02932B
:1018A0000023039301A901233948ADF8043000F067
:1018B00097FA384802F042FB374B187802F044FBA5
:1018C000002E4AD0FCF754FE002846D059E09DF87F
:1018D00000303248012262F303030CAC62F30713B9
:1018E00004F8303D03F074FB2C4982B26846FFF7E0
:1018F000FDFE0021082201A803F054FA4FF4A07362
:10190000ADF804304FF402730024ADF8063001A89E
:101910004FF4C873ADF80A30ADF80840FFF7E4FEA5
:1019200021461F2204A803F03DFA1C4803F050FB97
:10193000C5B26B1C8DF810302A4609230DF1120038
:1019400016498DF8113003F024FAA91C04A8C9B275
:1019500022462346FFF7C0FE9BE7182204A8002179
:1019600003F020FA0023A02204A88DF8103005937C
:101970008DF818300793ADF82020ADF82230FFF72E
:10198000ADFE0CB070BD00BF71E50100B53D0200B9
:10199000F04F00203D170200EC4F0020BC8A0200EF
:1019A000014B1878704700BF8040002008B5024BFB
:1019B0000BB1FCF7E5FD08BD81E50100F8B5064671
:1019C0000C468F180025BC4207D0336814F8011B61
:1019D0001B68304698470544F5E72846F8BD70B5C2
:1019E00005460C4649B1036808465E6803F0F0FA04
:1019F000214602462846B04770BD084670BD00002B
:101A000008B50249FFF7EBFF08BD00BF468E020094
:101A100038B50446FFF7E3FF05462046FFF7F0FF21
:101A2000284438BD10B500210446402203F0BAF91D
:101A3000002323646364204610BD026C10B5531C60
:101A4000446C03F03F03A3421CBF8154036410BDE8
:101A50000023036443647047436C026C934206D0D6
:101A6000C25C013303F03F034364104670474FF0FC
:101A7000FF307047026C436CD01A48BF403070474B
:101A8000436C026C934214BFC05C4FF0FF30704750
:101A9000036C406C013303F03F031B1A584258415A
:101AA0007047012070470000064B1970064B00225A
:101AB0001A60064A012111601A68002AFCD0012030
:101AC000704700BF20500020202100400820004027
:101AD0000C4BD3F8002222F02002C3F800220A4A5D
:101AE000012111601022C3F808230022C3F8002549
:101AF0004FF0FF32C3F80C251030C3F81425FFF760
:101B0000A7BF00BF0020004004200040024B01227C
:101B10001A601030FFF79CBF082000401030FFF71C
:101B2000A9BF1030FFF7ACBF1030FFF795BF000022
:101B300070B5002343604FF47A7304468360064B0C
:101B400040F8103B0D461646FFF76CFF84F85850DE
:101B500084F85960204670BDE88A0200034B0022D9
:101B60001A60034B10301978FFF767BF102100404F
:101B700021500020B1F5E16F37D3B1F5616F37D354
:101B8000B1F5E15F37D342F6DF63994235D944F2CC
:101B90009F13994233D945F6BF53994231D948F240
:101BA0003F3399422FD94BF67F3399422DD903F514
:101BB000964399422CD903F5E14399422BD903F579
:101BC0009633994229D91B4B994229D903F5E13320
:101BD000994228D9184B994228D9184881428CBF7C
:101BE0004FF080504FF0706070474FF49E20704768
:101BF0004FF41D2070471248704712487047124832
:101C0000704712487047124870474FF41D007047E4
:101C10004FF46B0070470F4870474FF0EB70704700
:101C20004FF06C7070474FF0806070474FF0E86085
:101C3000704700BF47AA0300FF8B0A001FA90E00D0
:101C400000B013000050270000F03A0000A04E0042
:101C500000C0750000903A0101F00F0101290CBF8E
:101C60000E200020704700002DE9F0412B4C2C4B3A
:101C7000C4F8443501262B4BC4F848650546C4F822
:101C80003435C4F838650F4690F858000021904666
:101C9000FFF7E0F895F859003146FFF7DBF895F8C3
:101CA00059003146FFF7B2F839462846FFF762FF80
:101CB0004146C4F824052846FFF7CEFFC4F86C055A
:101CC00095F8591095F85800174B142202FB013172
:101CD00002FB003349685B68C4F80C15C4F814357E
:101CE0000823C4F800351023C4F804330F4BC02276
:101CF00083F802230422C3F880211A600C4B0022CF
:101D00001A60D4F8003243F02003C4F80032266091
:101D1000084B1B68002BFBD0BDE8F0810020004081
:101D200020500020215000200888020000E100E03F
:101D3000102100404C2100401322FFF795BF000006
:101D40000148FFF70BBF00BF204E002008B500F090
:101D50001FF80020FEF7FCFE0A4802F051FA0A487C
:101D600002F0D6F9FAF7C0FBFFF71AFE08B1FFF749
:101D700087FDFAF775FB054B002BFAD0AFF3008017
:101D8000F7E700BF8C540020691702000000000034
:101D90000A4B1A684FF47A73B2FBF3F2013AB2F1CC
:101DA000807F0AD2064B5A60064AE02182F823104F
